:020000040000FA
:1000000068590020C5680100B1650200B1680100AF
:10001000B1680100B1680100B16801000000000092
:10002000000000000000000000000000316A010034
:10003000B168010000000000CD690100B168010055
:100040002D6C0100018002002D6C01002D6C01005F
:100050002D6C01002D6C01002D6C01002D6C010038
:10006000178002002D6C01002D6C0100EB7F020057
:100070002D6C01002D6C01002D6C01002D6C010018
:100080002D6C01002D6C01002D6C01002D6C010008
:100090002D6C01002D6C01002D6C01002D6C0100F8
:1000A0002D6C01002D6C01002D6C01002D6C0100E8
:1000B0002D6C01002D6C01002D6C01002D6C0100D8
:1000C0002D6C01002D6C01002D6C01002D6C0100C8
:1000D0002D6C01002D6C01002D6C0100064B074AB0
:1000E000DB7802604FF434728280C37108220023EF
:1000F00082710372704700BFB80E0020C332010046
:10010000064B074A1B7902604FF4B4728280C371B8
:100110000822FF2382710372704700BFB80E0020CF
:10012000172E01002DE9F341C41D002824F0070417
:10013000064614BF2046002000F08AFF071E04DA9E
:100140006FF00B0002B0BDE8F0810EB9FC42F7D4AD
:10015000364D698928896B7B2A7B0331033089B24C
:1001600080B210F00AF90028EADBA978EB783C4469
:100170000334002E194424F0030400FB01F114BFE2
:100180002046002001F0FAF820440EB90028D7DB01
:100190002B790446B3B1697D19446B791944FF2961
:1001A000CEDC0330002E20F0030414BF20460020D4
:1001B0002A8AC9B201F052F90028C1DB04440EB901
:1001C000002CBDDB012000F039FFC8B1A97BB9B11B
:1001D00095F82C300734002B15BF402325234FF40E
:1001E0008172282224F00704002E14BF204600202C
:1001F00003F03EFD0028A3DB04440EB9002C9FDB76
:10020000AB7CE3B12B799BB10734002E24F00704BB
:1002100014BF20460020A97C06F0C6F900288FDB19
:10022000044466B9002C0ADA8AE700BFB80E002041
:10023000012000F003FF10B1AB7B002BE4D1724B27
:100240001B6893B1A97981B10334002E24F0030413
:1002500014BF20460020EA7C98470028FFF670AFC4
:10026000044416B9002CFFF66BAF684B1B688BB1CA
:10027000297D79B10334002E24F0030414BF2046F5
:10028000002098470028FFF65BAF044416B9002C05
:10029000FFF656AF5E4B1F68AFB1697D99B103346D
:1002A000002E2B7E009324F0030414BF2046002070
:1002B000EB7DAA7DB8470028FFF642AF044416B98B
:1002C000002CFFF63DAF072000F0B8FE98B1A979E9
:1002D00089B10334002E24F0030414BF204600200B
:1002E000AA7E01F0A9F90028FFF62AAF044416B946
:1002F000002CFFF625AF95F82500B6FA86F77F09A2
:10030000A0B1EB7F297F033424F00704194444F0A3
:1003100004043B462246C9B201F0D0F90028FFF69A
:100320000FAF044416B9002CFFF60AAF95F826105B
:10033000002959D00734002E24F0070814BF404686
:1003400000202A8D10F02EF8041EFFF6F9AE44446A
:1003500016B9002CFFF6F4AE1EB1298D40460BF005
:1003600095FA95F82010002940D095F82430002BFC
:100370003CD06A8C0734002E24F0070802F12402D6
:1003800014BF4046002092B210F00CF8041EFFF695
:10039000D7AE444416B9002CFFF6D2AEAB7F297F0E
:1003A00095F82400033424F00704194444F00404AD
:1003B0003B462246C9B201F073F90028FFF6C0AEF1
:1003C000044416B9002CFFF6BBAE3EB16A8C95F81A
:1003D0002010083292B240460BF05EFA2B6B5BB1F4
:1003E00076B12C630020ADE68846B5E7002EF5D047
:1003F000002211461046EFE7002EF3D12046A1E679
:100400002834FBD59CE600BF2405002028050020E9
:100410002C0500201FB572B6184B5D6BE5B9BFF314
:100420004F8F1749174BCA6802F4E0621343CB6041
:10043000BFF34F8F00BFFDE7B2FBF6F2DCB2013332
:10044000002AF9D104F110036B4403F80C2C0A22A2
:1004500034B901A8A847E2E7024600230A26EDE7DF
:10046000631E04AEDCB256FA83F3B0FBF2F602FB75
:100470001600303003F80C0C3046E9E7B80E0020C7
:1004800000ED00E00400FA0513B5114C637B8DF814
:100490000130237B8DF800306389ADF80430684665
:1004A0002389ADF8023004F0B5F918B1E8219C2099
:1004B000FFF7B0FF207E04F0DDF908B1EB21F6E78D
:1004C000E07D04F0D1F908B1EC21F0E702B010BDF5
:1004D000B80E002038B5054600283ED00EF09AFE32
:1004E00010B94FF0FF3038BD0BF04EFEB0F5FA7F7B
:1004F000F7D81C4C1C486563002500F019FD2A2222
:100500002946A01C84F83850257084F82C502563A7
:100510000FF014FA1B222281628140F2032240F282
:100520000113A28103226380A27301231F2223717E
:100530002282A3764FF40272F7236282638444F628
:100540000112FB23E2822385EFF3108472B601F0DF
:10055000C5F82CB962B62046C5E76FF01500C2E7B2
:100560002846C0E7B80E00208904000038B51446BC
:10057000002840F0B9805E4D95F83830032B00F02C
:10058000B080B1B112B96FF0150038BD013914292E
:1005900000F2AA80DFE801F00B1C1F345E67853A89
:1005A0006A6D7F404654598B8E9C9FA294001378AD
:1005B000AB700020FFF7B6FD0028B7BF0123022370
:1005C00085F838306FF00B00A8BF85F83830DCE7CD
:1005D0001378EB70EDE71379002BD4D05379002B0F
:1005E000D1D01288FB2ACED81A2A6388CBD91B3BDC
:1005F000E02BC8D82368AB603E4BA2889A80D8E72E
:1006000013786A799342BED32B71D2E713782A7993
:100610009342B8D86B71CCE713782A799342B2D859
:100620006B75C6E71378002BADD05378013BDBB276
:10063000F82BA8D81388EB822F4B92789A70B8E7E2
:100640001078687609F03EF9B3E71378002B9AD05A
:10065000AB76AEE7012000F0F1FC237808B1012B66
:1006600091D9AB73A5E713882B82A2E71378AB71FE
:100670009FE7072000F0E2FC10B92378012B82D914
:10068000072000F0DBFC18B12378002B3FF47BAF90
:100690002378EB748DE71378082B3FF674AF2B7536
:1006A00087E71388FF2B3FF66EAFAB7481E71378B3
:1006B000EB767EE713780E2B3FF665AF2B7778E766
:1006C00023680E4A2B62636853602389138170E7A5
:1006D00013786B776DE71378EB776AE71378AB776E
:1006E00067E74FF0FF3050E76FF02C004DE700BF99
:1006F000B80E0020C00E0020CE0E0020D80E002024
:10070000F8B50D46064630B329B311F0070422D1DF
:10071000124F97F83830012B02D16FF00B00F8BD63
:10072000032B02D14FF0FF30F9E700F08FF80028DB
:10073000F8D02846FFF7F6FC0028EEDB12F08CFE1E
:100740003046396B04F00AF9FFF79EFE032387F861
:1007500038302046E3E76FF01500E0E7B80E0020E0
:1007600010B5074C94F83830032B03D104F012F97C
:1007700005F05EF80FF03FFF002084F8380010BD50
:10078000B80E002050B1074B03F1140253F8041BBC
:1007900040F8041B9342F9D1002070476FF0150018
:1007A000704700BF948C020010B5074B93F8384097
:1007B0003CB904F09DF80320044900F037FC2046C2
:1007C00010BD4FF0FF30FBE7B80E00200101000024
:1007D00010B5074B93F838403CB904F09DF802205F
:1007E000044900F023FC204610BD4FF0FF30FBE72A
:1007F000B80E0020DD00000010B5054B93F838401E
:100800001CB910F099FE204610BD4FF0FF30FBE7F9
:10081000B80E002010B5054B93F838401CB910F005
:100820008EFE204610BD4FF0FF30FBE7B80E0020D3
:10083000024B02681A600020704700BFF40E0020CF
:10084000014B1B68184700BFF40E0020024B1868CC
:10085000003818BF01207047F40E0020F7B52E4E67
:100860000446071D2C48376004F0FAFF02280546AD
:1008700006D1294920460FF0D6F9284603B0F0BD2D
:10088000042842D13378092B0AD0262B1ED03146BA
:10089000204600F043F8B0F5817F2DD3722112E09D
:1008A00005213E200FF092F90028F0D1F37832793B
:1008B00001A943EA02236846ADF800300FF038FB87
:1008C0000028CFD053210820FFF7A4FD1A213E2095
:1008D0000FF07CF90028DAD17368C3F30F23ADF869
:1008E00004306946112301A88DF806300FF044FB4F
:1008F0000028B7D06521E6E70028B3D0A17820789A
:100900000FF064F90028B8D1ACE70828B5D1024946
:1009100020460FF0B7F9B0E7F80E00202DE9F843B4
:100920000B78013B05460C46832B00F29882DFE8EA
:1009300013F09A009E00A200530196021B012101B0
:1009400027012D0133013701390149014F0184008D
:100950009602A7009602AB003D0143015D016301D1
:1009600057019602690196027C01AC01B201B801FF
:100970009602BE01CA01D0019602FD010B023302AC
:10098000110225022D0217021F026E02740282025A
:10099000880239023F025D024502960296029602E3
:1009A0009602960296029602960296029602960287
:1009B0009602960296029602960296029602960277
:1009C0009602960296029602960296029602960267
:1009D0009602960296029602960296029602960257
:1009E0009602960296029602960296029602960247
:1009F0009602960296029602960296029602960237
:100A00009602960296029602960296029602960226
:100A10009602960296029602960296029602960216
:100A20009602960296029602960296029602960206
:100A3000960296024B02510257020E23B1F8032090
:100A40000B7042F283039A4209D1062363706678E1
:100A500002363246214628460EF0DCFF5AE03521A8
:100A6000C720FFF7D7FC0C230B700823EEE71A23EF
:100A70000B700123EAE73E230B700223A370E6E725
:100A80003E230B700B23F9E7292000F041FA28B12F
:100A90003E232370222363702923EFE70A2000F00E
:100AA00037FA3E2305F1080204F108012B70A0B3C8
:100AB0000A23AB70E378EB70A3882B71A3881B0A21
:100AC0006B71A379AB71E379EB71A368AB608B8831
:100AD0009380D4F80E30C5F80E30638A6B82636958
:100AE0006B61238B2B83638BAB76638B1B0AEB765B
:100AF000A38B2B77A38B1B0A6B77E38BAB77E38BF3
:100B00001B0AEB7794F8203085F820301F226A709A
:100B1000023296B23046BDE8F8830123AB70E37829
:100B2000EB70A3882B71A3881B0A6B71A379AB713F
:100B3000E37903F00103EB71A368AB608B889380CA
:100B4000638BAB73638B1B0AEB73A38B2B74A38B2D
:100B50001B0A6B74E38BAB74E38B1B0AEB7494F886
:100B600020302B751322D2E73E230B7004234B70E9
:100B7000142383E73E230B700C234B7004237DE783
:100B80003E230B700A234B70032377E73E230B7041
:100B90000D234B70052371E705232370042355E7CC
:100BA0000823FAE730230B7003234FE73E230B7033
:100BB0000B234B70072361E73E230B7006234B701A
:100BC0000C235BE713230B708B789B0001333DE70D
:100BD00057230B70022339E73E230B700D234DE79B
:100BE0003E230B7001234B70112347E73E230B700C
:100BF00006234B70122341E73E230B7009234B70F1
:100C000013233BE73E230370242000F081F90028E2
:100C100015BF24230E2313260F263246AB70A11CCA
:100C2000E81C0EF0F7FE721C71E73E2303702520CE
:100C300000F06EF9C0B12523AB70D4F80230C5F8CE
:100C40000330D4F80630C5F807306389A5F80B30B7
:100C50000A26F01CE27A04F10C0128440EF0DAFEB8
:100C6000E27A0132324452E70F23AB706388A5F871
:100C7000033023796B716379AB71A379EB71A37A3C
:100C80002B72E37A6B720726E3E73E230B70032394
:100C90004B701023F2E63E230B7005234B7020238C
:100CA000ECE63E230B7009234B702123E6E63E233E
:100CB0000370262000F02CF9002815BF26231823E6
:100CC00017261326A9E73E230B7004234B70272316
:100CD000D4E63E230370282383708146D1F8023086
:100CE00049F8033F4FF000084646AA795FFA88F3B7
:100CF0009A4205D8721D92B2002A3FF4A8AE06E7C8
:100D0000B21D331DA118A25849F8032009EB0300B6
:100D10008B88838047793A460637063106303E4451
:100D20000EF078FEB6B208F10108DEE73E230B7044
:100D30002A2000F0EDF818B12B2363702A239DE6DA
:100D40001D236370192399E63E230B7007234B7014
:100D50001A2393E63E230B7014234B7022238DE657
:100D60003E230B700B7C5B000F334B701D2385E61D
:100D70003E230B7003234B701E237FE63E230B7034
:100D80000B7D5B0013334B701B2377E63E230B7008
:100D900003234B701C2371E63E230B7005234B701D
:100DA0001F236BE6FF230B700B234B70A22365E61A
:100DB000FF230B7005234B70A3235FE6FF230B700B
:100DC0000D234B70802359E6FF230B700D234B70CE
:100DD000822353E6FF230B7002234B7083234DE6DF
:100DE000FF230B7004234B70842347E6FF2303701B
:100DF00081238370D1F80330C21C03F1280153F81A
:100E0000040B42F8040B8B42F9D129227FE63E23E2
:100E10000B700C234B70232330E6124B1B78002BF6
:100E200014BFFF233E230B704FF00E034B7014BF13
:100E30008523372322E63E230B700A234B7035238C
:100E40001CE6084B1B78002B14BFFF233E230B70BE
:100E50004FF0FE034B7014BF86232B230EE640F2A7
:100E60006221FDE5FC0F0020074B4FF0FF3141F6FA
:100E7000FF72C3E9001205490022C1E900221F21C7
:100E8000C3E90212704700BFC00400200010002018
:100E90003F280CD801380B4BC0F3421200F01F0062
:100EA00053F8223023FA00F000F001007047FF28C9
:100EB00006D04038C0F34212034B00F01F00EFE7AA
:100EC00001207047C0040020001000200146074B9D
:100ED000006849681A4603C240F48C221A6041F047
:100EE000107242F4FF625A60704700BFC0040020D5
:100EF0000246024B0068516803C37047001000208F
:100F00000246024B0068516803C37047C8040020C2
:100F10000138064BC0F3421203EB820300F01F00BE
:100F20009B6823FA00F000F001007047C004002025
:100F3000014B1860704700BF0810002010B5FFF784
:100F400093FF0FF01AFD034B1B68044603B198474B
:100F5000204610BD081000200B880288F0B5C3F3AE
:100F60000E049EB204F11803C57CC35A02352A440C
:100F70002B4497B213FA82F3013B4288B3FBF7F399
:100F800013FB07439BB29A42044A93BF22EA06032B
:100F9000324013439BB20B80F0BD00BF0080FFFFC7
:100FA0004A1E062A08B50346084604D84FF4D171F4
:100FB0001520FFF72FFA094A914202D940F2A311F6
:100FC000F6E711B903B1196008BD2BB11B68002207
:100FD000C3E901211A1D1A600430F5E7FAFFFF7F0B
:100FE00010B5114B00EB41041A786389B3FBF2F39F
:100FF00003FB0223013A1A44B2F5706F027928BF4D
:1010000000231A448378B2FBF3F0194403FB102049
:10101000091AB1FBF3F003FB101313446FEA4343C7
:101020006FEA5343638110BD0C100020024B03EBA9
:1010300080035960704700BF0C100020034B03EB86
:1010400080035868003818BF012070470C1000203A
:101050002DE9F04F10F0070A85B0054604D040F2A4
:1010600061111720FFF7D6F9554F07F14C06B1462D
:101070000446B0464FF0010B57F8043B8DF80BA027
:101080003BB101A898479DF80A30082B01D9E82107
:10109000E7E79DF80B1081BB05B13160B94506F15A
:1010A0000406E9D12DB3DFF81CE100238EF80030EF
:1010B0001E46122258F82200013A60B190F804A0AE
:1010C0008178BAF1FF0F66D14FF000078E420771A9
:1010D0003CBFCEB20123511CECD10BB18EF80060A5
:1010E000122640F6FF6A58F82670002F65D1013E9F
:1010F000F9D2601B05B0BDE8F08F9DF80AC0BCF1C5
:10110000020FE64601F1050238BF4FF0020E0EF164
:10111000FF3004EB42040444CEF100002040BDF84F
:1011200008406444013CCCF1000C04EA0C04B4F522
:10113000803F4FEA420301D3F82192E775B1C31A09
:10114000336099701C8083F803B09DF80C201A71ED
:10115000019A1A814FEA124CA3F806C004FB01045D
:101160009CE758F82C90B9F1000F06D099F804B01C
:10117000D34504BF99F802904F440CF1FF3CBCF1F9
:10118000000FEEDA3944FF29A0D90BB18EF80060C8
:1011900040F2271165E794460027F0E707EB41038B
:1011A0003846A3F80AA0FFF71BFF09F10109BB7835
:1011B0005FFA89F18B42F1D899E74FF00009F6E721
:1011C000101000200C100020034B03EB8003186D5F
:1011D00000B18078704700BF0C100020F8B54FF6C2
:1011E000FF730380184B03EB81030546186DB8B1FC
:1011F00086780379B3FBF6F206FB1233DBB21946AD
:101200000A1D00EB4202B2F902705488002F09DB7C
:101210000131B1FBF6F206FB1211C9B28B42EFD1DC
:101220000020F8BDFF29FBD0C4F30E03C4782B8047
:1012300024B94FF4D5711720FFF7ECF85380BDE8BF
:10124000F8400FF079B800BF0C1000201D4B03EBE5
:10125000810370B51C6D054644B3030404D54FF4F7
:10126000DC711720FFF7D6F8014620460FF046F84C
:10127000FF28014604D02046BDE870400FF05CB85E
:10128000A078B5FBF0F300FB1353DBB219460A1D3F
:1012900004EB4206B6F90260002E09DB0131B1FB16
:1012A000F0F200FB1211C9B28B42F0D1002070BDE8
:1012B000FF29FBD08B4204EB42021CBF0023E370EA
:1012C0005580D8E70C100020094B03EB810310B5C3
:1012D0001C6D014620460FF011F8FF28014604D08E
:1012E0002046BDE810400FF027B8002010BD00BF19
:1012F0000C100020F8B5104B03EB810307461C6D62
:10130000014620460EF0FAFFFF28054611D0E68878
:10131000238953EA064606D0014620460FF00CF812
:1013200001463846B04720462946FFF759FE0020BF
:10133000F8BD0520FCE700BF0C10002038B50E4BAF
:10134000827903EB82030446186D08B9052038BD85
:101350008278E1799142F9D24B1CE37100EB4103B1
:101360005D89B3F90A30002BF3DBA5800EF0E4FFB2
:1013700020600020EBE700BF0C10002070B5044691
:1013800010F003000E4603D04E211820FFF742F85C
:10139000FFF706FE054624B1034831460460FFF717
:1013A000FFFD284670BD00BFA81000202DE9F14FB9
:1013B000DFF870B09DF828A09DF82C901E46DBF851
:1013C000003007460D4690461BB960211820FFF7F4
:1013D00021F85246092140460EF012FE4A4684B2D8
:1013E000092130460EF00CFE14FA80F1DBF8000003
:1013F0000EF059FF386018B9286001B0BDE8F08FD1
:1014000004442C6038685346414609220EF0BCFD66
:1014100028684B460922314601B0BDE8F04F0EF076
:10142000B3BD00BFA810002070B50E4604460EF0F4
:10143000FAFD054630460EF0F6FD044B2A1821460B
:101440001868BDE870400EF052BF00BFA810002021
:10145000014B18680EF01BBFA81000201F2AF8B51A
:10146000044613460ED89200033222F00303B3F56C
:10147000803F2DD2184DACB1A00710D05F210920BC
:10148000FEF7C8FFFF2B4FEA420204D9FF339A420E
:10149000A8BF1A46E8E77C2AB8BF7C22E4E7297097
:1014A0006C602B8122F0030201EB81031204D8004F
:1014B00001276B68120C0025EEB28E4200D3F8BDF6
:1014C00014B126181F705E60104401352833F3E70D
:1014D0004FF0FF30F3E700BFAC10002038B5144ADE
:1014E000147853680021C8B2844203D8AB21092084
:1014F000FEF790FF1846013105782833002DF2D011
:101500000021817001241289447044688161C161A5
:10151000920800F12001051D21F8022B994245F89F
:10152000044B1444F8D100234361037038BD00BF5D
:10153000AC1000200A4B1B89B3F5FF7F4FEA9300E4
:1015400006D25A089B1A9BB2984238BF1846704779
:10155000B3F5EE6F01D8FF22F4E740F27263F3E7D0
:10156000AC1000202DE9F8434B7880460C4602F081
:10157000040602F0FB07D3B1DFB12E4BD4F8049080
:101580001D89B7BB01236370AD08A761E76104F152
:1015900020034A46211D04F1280023F8025B9842EB
:1015A00041F8042B2A44F8D10023636101E0002FA5
:1015B000E3D0FF23A370002E18BF0226A3191B7DC2
:1015C000032B03D1022F1CBF0136F6B2A31901224F
:1015D0001A7506F10C0204EB8606002324F812307B
:1015E0007268A370C8F80020A8F804304046BDE82F
:1015F000F883002114226170A0180EF09FF9B5F550
:10160000FF7F0FD26B08ED1AADB209EB0502C4F8EB
:1016100004902584A2606384C4F80C90A5842261A0
:10162000E384C6E7B5F5EE6F4FF0FF03EBD940F268
:101630007265EAE7AC1000202DE9F84305460C4638
:10164000F720052191460EF0DBFC061E22DB1DB9BA
:1016500014FB06F0BDE8F88315F0030703D09821CA
:101660001920FEF7D7FEDFF83480C8F81050A8F82C
:101670001460A5B2BBB29D42EAD9B8F814C0D8F83C
:1016800010004B4607FB0C000522F7210EF07CFCF6
:101690000137EFE74FF0FF30DCE700BFC01000205C
:1016A00007B5CDE900230B4603490246081D0EF09D
:1016B0007CFF03B05DF804FBD810002013B5064C86
:1016C000CDE900230B46024604F1080104F10C00A9
:1016D0000EF06BFF02B010BDD8100020134B01229A
:1016E00000214FF0FF309A60C3F80012C3F80803DE
:1016F000C3F80015C3F804259A60C3F80803C3F8BB
:101700000015C3F804250A490A4A03F580334FF44B
:101710000040C3F80825C1F88000BFF34F8FBFF326
:101720006F8FC1F88001C3F80825704700F00040B2
:1017300000E100E00000F63F8C46342300B50CF8D1
:10174000033B054B8E4607CBCEF80300CCF80410C4
:10175000CCF808205DF804FBF410002010B5154CFF
:1017600009F062F908F03EFA636A608C002198473C
:10177000237E9BB9104B628C93E8030004F09EFF1C
:10178000E36A188804F0C4FE636B94F8301094F890
:1017900031009847002384F8383010BD94E80700E2
:1017A00004F10C0383E80700044904F1190010F068
:1017B000D6FCDFE7E81000201011002039170000E8
:1017C000034B93F8383003B97047FFF7C7BF00BF2A
:1017D000E810002008B54FF48E610620FEF71AFECF
:1017E00008B5094B93F83820022A07D1DA7A42F07B
:1017F0000102DA72BDE80840FFF7B0BF40F23121C4
:101800002720FEF707FE00BFE810002070B5354E18
:1018100096F8283005460BB1012825D001292AD891
:10182000336C28469847044628B396F8303013BBEB
:1018300096F8283013B31DBB96F84420D106C2F3A6
:1018400000152DD4B26CF16C1278C2F3001201B302
:1018500082F00104BBB1738F9A0715D5F36BDC7866
:10186000023C18BF012407E0738F1807D6D5F36B2D
:10187000DB78022BD2D10124204670BD012DDBD0B4
:101880000024204670BD738F002BF4D1002DF3D0BF
:10189000F6E7B6F850100029DAD0002BF3D0DAE7DB
:1018A000F16B0A7802F00302032A09D1CA78022AEE
:1018B00015D0706D0EF037FC96F828300546C1E75C
:1018C000706D0EF030FC38B903F094FA80F0010529
:1018D00096F82830EDB2B5E796F82830B2E7002543
:1018E000B0E700BFE810002070B5294CE56AA26C93
:1018F00095F89430A265064694F85C000BB104306C
:10190000C0B295F875100EB9FF2837D008F070FDF9
:1019100095F8943063B3206E09F098F994F8283064
:10192000D5F8F020216EA06D6267003B18BF01233F
:1019300084F87C30D5F8F430A36708F0F7F85EB986
:1019400095F875302A8F033B012B94BF2820002087
:10195000104480B209F0E8F9A88E08F00BFD95F864
:101960007410002009F048FA022384F8383070BD62
:10197000A06D09F06BF908F035F9E0E795F87420EF
:101980008A42C7D008F034FD95F89430C2E700BF12
:10199000E81000202DE9F0473C4C94F83830012B3A
:1019A00082B06CD1E56A5FFA83F9E36B95F8842025
:1019B0001F7893F801A00646884607F0030772B126
:1019C000638F002143F00403638785F88410636A02
:1019D0000420984794F828300BB185F88690032F9F
:1019E00033D0BAF1000F2CD0022385F88A3095F855
:1019F0009430EBB1E36A94F8282093F87530003AFC
:101A000018BF0122013BDBB284F87C20D5F8F0201E
:101A10006267032BD5F8F420A26794F85C2033D8D2
:101A20001B490020CB5C00901A49012008F004F803
:101A300016B9B8F1000F17D102B0BDE8F047FFF7B3
:101A40008DBE012385F88A30D1E795F88A303BB9FD
:101A5000638FE16B43F0020363870220636A984758
:101A6000032385F88A30C2E731463046FFF7CEFEC1
:101A70000028E1D102B0BDE8F047FFF735BF40F2E2
:101A8000DC412720FEF7C6FCFFF7A4FEE81000208B
:101A9000A88C02004C11002070B5804EF46A96F8B4
:101AA0005C3094F8942082B000218DF805100AB1C2
:101AB0000433DBB294F8741010B9FF2B00F0B2803D
:101AC000FF2008F095FC94F88A30032B00F2E180A7
:101AD000DFE803F0021C746496F8BA30ADF8063003
:101AE0006F48A4F8643003F05FF9002840F0A0804C
:101AF000706D0DF105020DF106010EF0BBFAF063F9
:101B000020B194F8CF30002B00F0A7806548F06337
:101B100094F88B200378D20003F0030502F008024A
:101B200003F0F303134394F88C20920002F00402B4
:101B3000134303F0EF03032D037051D1C278022A3F
:101B400006D0706D0EF0EFFA002851D1F06B0378DB
:101B5000037094F8933013B14378002B4DD109F002
:101B600075F808F03FF803F063FF08B1032D70D05B
:101B7000E08E08F0FFFB94F87510012009F03CF9A5
:101B8000F36B494A18889978A6F84400012386F82F
:101B9000BC30917086F8383002B070BD404803F018
:101BA00003F9002870D0F06BC3781B2B14D10121EE
:101BB00004F1100008F05AFCF06B0DE0B4F864304A
:101BC000706DADF806300DF105020DF106010EF055
:101BD00051FAF063002852D0012386F8BB3097E712
:101BE000706D0EF0A0FA18B903F004F90028ADD119
:101BF000F06B037843F01003AAE7306E09F026F883
:101C000096F82830D4F8E820F16B306E7267B3FA9A
:101C100083F35B0986F87C30D4F8EC30B36707F0C7
:101C200085FFA0E794F875308B427FF449AF4AE70F
:101C3000738FF16B726A43F480734FF48070738713
:101C40009047F06B012184F88510C3781B2BC3D11A
:101C5000AEE701200AF04CFC8AE79DF8053033B16D
:101C6000BDF806204270012386F8BB3050E70380A0
:101C70008370F06B012110F0BCF9F06BF0E740F2DB
:101C8000D1212720FEF7C6FB40F2DB212720FEF7FB
:101C9000C1FB40F2E9212720FEF7BCFBE810002041
:101CA00024110020701100202C11002070B50D4B64
:101CB0000D4C0E4A1A6094F838301BB1ED212720E4
:101CC000FEF7A8FB03F0FF0206460D46227604F05D
:101CD000EDFC012104F1880010F08BF9A664256663
:101CE00070BD00BF30050020E8100020582600001D
:101CF00010B5074A92F8383013B10C24204610BDB5
:101D000003F0FF04147604F0D1FC204610BD00BFA0
:101D1000E8100020024B012283F8BD20704700BF6D
:101D2000E8100020F0B5BB4C85B002AD85E803009B
:101D300094F838000A9E002840F08281002A00F0C2
:101D40007F81002B00F07C81002E00F0798100F073
:101D5000FF0184F8BD1084F8301084F8BE1084F8B8
:101D6000311084F8BC1084F8BB106187618495E859
:101D70000300236404F1280383E80300E56A626238
:101D8000666308F0D3FB07F02DFF95F97C0008F09F
:101D9000FBFCA86A08F03EFF286A08F0FBFC95F8F7
:101DA000A40008F001FD94F82800002800F0EF805E
:101DB000E36A93F8C231002B40F0C18095F875209A
:101DC0009D21012008F0D8FD934B944E186808F02F
:101DD00027FF6B69D5F8FC10D5F80021D5F8F8007D
:101DE0006365D5F80431AF69C4F8C0700FC6E36A03
:101DF000D5F8081193F88E20C4F87D10D5F80C1191
:101E0000C6F80D10A2F12601012910D993F88F1000
:101E100026290CD0213A012A40F2E680242900F03C
:101E2000C68093F87460032E08BF042616E094F869
:101E30002820002A7CD093F89A2293F874606AB123
:101E4000F31E012B40F2DD80D31E012B40F2D9801E
:101E5000012E03D0012A14BF0226012605F13C07FA
:101E60003146384610F0E4F931460FF0AAFDB5F8D6
:101E7000483095F875100246934228BF13463846FD
:101E800084F8BA3010F0A1F995F8751095F89470AF
:101E9000B5F85060042908BF03210FF092FD0FB977
:101EA000043080B2B04228BF3046C6B284F8C46065
:101EB00003F0BEFD002863D194F8280084F85C602C
:101EC00000283FD195F89330EBB195F8743095F830
:101ED0007E10D5F8E8206267013B0029DBB2D5F817
:101EE000EC20A2674FF0010118BF0420032B84F8F7
:101EF0007C1000F2AA804A4A0021D35C0091FB22A8
:101F0000464907F099FD0120FFF7C6FD0023C4E90B
:101F10000033A360AB6F2988B5F8880095F8A4203A
:101F20006080218022710BB101221A6005B0F0BDE2
:101F300093F80A2293F87460002A81D18EE708F0A2
:101F4000E3FA3BE795F89430B3B195F87530D5F8DE
:101F5000F020D5F8F410A167013BDBB20120032B80
:101F6000626784F87C0070D82D49CB5C0021009119
:101F700032462A4907F060FD0120FFF7B5FCC5E7AE
:101F800003F05CFDB04238BF3046C6B294E795F826
:101F90007420234B03EB42039988224B01F5FA711D
:101FA000A3FB013189096E3108F0E6FC0CE794F8D7
:101FB0002820002A3FF435AF93F82E2193F86D10B6
:101FC00093F8746002EA01035A071AD413F001026D
:101FD0002AD19B077FF542AFF31EDBB2012B10D94C
:101FE000012E18BF022639E72429E0D094F82820D2
:101FF000002A3FF416AF93F82E2193F8746050072F
:1020000001D504262AE712F0010313D191077FF5C9
:1020100025AFE1E7E8100020300500204C1100203A
:10202000A88C0200D34D6210033E012E8CBF1646D1
:10203000042613E7033E012E8CBF1E4604260DE73F
:102040004FF4BE712720FEF7E5F9FFF7C3FB00BF91
:1020500008B5124B93F8382092B193F8282022B992
:1020600093F83830012B14D108BD93F83820022A98
:102070000AD1DB6AD3F8D801BDE8084008F020BED9
:10208000BDE80840FFF76ABB40F213212720FEF7A6
:10209000C1F940F20F212720FEF7BCF9E81000201B
:1020A000FFF75CBB014B1876704700BFE8100020BB
:1020B000014B93F8BC007047E8100020034B93F8E5
:1020C000BB0010B9588CC0F300307047E8100020F6
:1020D000024B588CC0F3C020704700BFE8100020AE
:1020E000014B93F8BE007047E81000202DE9F04343
:1020F0003B4CA56DE76A95F8018010F0010983B0AB
:102100000E4635D00023800784F8C5301ED5E36C19
:10211000002B5AD0B4F850201846294603320DF04F
:1021200079FC0DF1020201A9A065D4F8C0000EF0FF
:10213000A4F801980EF087F8012230604146D4F8E7
:10214000C0000EF02FF8B9F1000F1BD0D7E93C32D8
:1021500097F88C10013342F100020129C7E93C32A3
:102160000CBF0023012387F88C3003B0BDE8F08357
:1021700094F8C530032B2DD8DFE803F024070202C2
:10218000830718D403B0BDE8F0838207FAD5E36C67
:10219000DBB1B4F850202946033218460DF03AFC62
:1021A0000346D4F8C000A3650022414603B0BDE851
:1021B000F0430DF0F7BFD4F8C00003B0BDE8F04322
:1021C0000EF057B88107DDD5A1E740F2CE412720B8
:1021D000FEF720F940F27A412720FEF71BF900BFF5
:1021E000E81000202DE9F04FBC4C94F83820E66A46
:1021F00085B00023022ACDE9023340F01B82638CB4
:10220000884613F04001074606D1636A402098478C
:10221000638C43F040036384A26D5578002F00F077
:10222000A98092F8009096F89430C9F3C00B002B67
:1022300040F05C81A9B2A4F85010002940F06581FB
:102240000023E364638C96F88B10C9F3800243F497
:1022500000739142638400F0F380D4F82CA09AF8C4
:102260008A20DAB1022A00F09C8194F828300021FB
:102270008AF88A1023B19AF88630002B40F08781C3
:102280009AF88530002B40F064819AF88B30012B4E
:102290000CBF002301238AF88B30638C96F88C20C6
:1022A00043F400635A4563844FF0000A09F00309C0
:1022B00000F0CE8003F0BCFB0546002800F02F8123
:1022C000B9F1030F00F03E8196F893304FF000090A
:1022D0004D46002B6CD1B8F1000F40F0908094F87F
:1022E000BE100120FFF792FA002840F08880B9F173
:1022F000000F40F0E680FFF7CFFBBAF1000F09D0E6
:1023000094F82830002B40F0D180B4F80930013324
:10231000A4F80930002F00F08880B4F805300022BE
:102320000133A4F8053084F8BE206D4804F0DEF8CF
:10233000029830B10DF087FFE16A0022027203F0CB
:10234000D3FA039B33B1E16A00221A720C2203987C
:1023500003F098FA002D6ED1638C1B0607D4636AD4
:10236000294680209847638C43F08003638405B03E
:10237000BDE8F08F96F89420002A40F0CC8043F41A
:102380008063638494F8BE30013384F8BE3096F8DD
:102390007530033B012B39D903F04AFB002835D1B6
:1023A0004FF000094D46CA4696F89330002B92D064
:1023B00094F8283096F87E20B3FA83F35B0984F80A
:1023C0007C3096F87430013B002ADBB2D6F8E82066
:1023D000626718BF0420D6F8EC20A26708BF00206F
:1023E000032B00F22C813F4A3F49D35C002200922C
:1023F000FB2207F021FBB8F1000F3FF470AF08F0AB
:102400004FFDB9F1000F4BD1012576E701200AF00D
:102410006FF807F0BFFF0428C2D11B2D4FF0000951
:1024200094BF00250125CA46BEE7B4F80730013342
:10243000A4F8073079E7FFF791F905B0BDE8F08F10
:1024400096F88C205A45BA4609F003097FF432AF5A
:10245000B9F1030FD4F82CB063D143F480536384F3
:10246000638FA16D43F00103012063878BF8840023
:10247000636A98479BF88C30013B18BF01238BF8A7
:102480008C30002D3FF416AFDBF8F0300133CBF881
:10249000F030DBF8F43043F10003CBF8F43009E717
:1024A00003A903204D46FFF721FE26E7B4F80530C7
:1024B000B4F80710B6F888200B4313433FF42AAF53
:1024C00023E703A90120FFF711FE4046FFF7E4FAD6
:1024D00003A90220FFF70AFE0FE700BFE810002063
:1024E00010110020A88C02004C11002007F096FB70
:1024F00000287FF49FAE002D46D096F88C305B45C7
:1025000000F08480A9B2A4F85010D4F8C0000DF0F7
:102510002BFEE06496E607F0C1FB638C2FE7814653
:1025200042E7B9F1000FA5D0002D4CD19BF88C30BB
:10253000013B18BF0123A9468BF88C3003F078FAD1
:10254000002531E701204FF0000909F0D1FF4D4689
:102550002AE700218AF8851002F036FC00210028C5
:1025600074D0638F43F0080363870820636A984739
:10257000DAF8E8300133CAF8E830DAF8EC3043F141
:102580000003CAF8EC3080E6A4F8505058E6638F98
:102590008AF8861043F0100363871020636A984717
:1025A0006EE6606D02A90DF088FD002849D0DAF8CA
:1025B000E8300133CAF8E830DAF8EC3043F10003D0
:1025C000CAF8EC3051E643F4805363849BF894B02E
:1025D00007F0E0FE042894F8C43007D1BBF1000FE7
:1025E00014BF1B221F22934228BF13469D4213D8BB
:1025F000E36C002B3FF45EAE94F8BD30C3B1636A68
:102600000021202098474FF0000997E7012384F824
:102610003130FFF7A3F8AAE694F83030012043F0F8
:10262000100384F830304FF0000909F061FF85E7AE
:10263000B94683E740F25F512720FDF7EBFEFFF735
:10264000C9F840F214412720FDF7E4FE40F22B4187
:102650002720FDF7DFFE00BFE1170000E5210000A5
:1026600095190000C117000008B540F2FB310620A3
:10267000FDF7D0FE2DE9F843002800F0E180044684
:10268000072900F2D380DFE801F0AB2424A7D11F93
:102690009ECD0146204610F0C8FBD4F8443100F12D
:1026A000E5059D4240F2C780E81A322838BF322043
:1026B00003210CF01BFAC4F844510646204610F0E2
:1026C0007DFC002E00F09D802046BDE8F84310F010
:1026D00076BC10F0F9FBD4F81421002305460E4611
:1026E00084F8403184F84931BAB150EA010314D07A
:1026F000CA00C3001B1A42EA507262EB0102D4F80E
:1027000030115B18D4F8341142EB0102D4E95401C2
:10271000834272EB0103C0F09180022304F5A0779D
:1027200084F8483138460BF0B1FB002800F08C806B
:1027300094F8603103F0FF01002B6BD1D4E956020D
:102740006FF000439A4208BFB0F1FF3F13D020461C
:10275000D4E9549810F069FBD4F85831D4F85C21CE
:10276000B3EB090300F1E50062EB08021B1A62F10A
:102770000002002A4BDB94F8100139460BF078FC7C
:1027800000286BD0D4E95401D4E94A32834272EB79
:1027900001071FD255EA06071CD0C01A61EB0201DF
:1027A00033462A460DF02CF805FB01F3D4E94A2103
:1027B00000FB0636A5FB00535519334443EB0103D8
:1027C000C4E94A5306E090F810010BF039FB0023EE
:1027D00084F83831BDE8F883BDE8F84308F074BBED
:1027E00005F0ECFDD4F84401CB380CF0AFF880B321
:1027F000204610F0A7FB00283FF44BAF204610F016
:10280000DDFBD4E95423C4E94C23BDE8F88320461A
:1028100005F0DCFD94F810010BF012FB002384F8A6
:102820003831AFE7FF213020FDF7F4FD40F203110E
:102830003020FDF7EFFDC4F84451DFE701236DE7D9
:10284000E2213020FDF7E6FD40F2A4613020FDF7E3
:10285000E1FD40F25D213020FDF7DCFD4FF4D56154
:102860003020FDF7D7FD00BF2DE9F04F04468BB0B7
:102870004FF00008029390F875B0CDF818800E461E
:1028800015460EF0B8FE94F8C3310B2B00F21884F5
:10289000BD4F37F8139094F88F304844442B1FFAFB
:1028A00080F914D094F88E20442A10D0A3F10E029F
:1028B000B2FA82F252090392002D40F0BD8294F8E0
:1028C0000422032A00F00E830123049306E0002D66
:1028D00000F08B800123CDF810800393B4F85052A0
:1028E000B4F888A0751B2DB2A6EB0A0A002D0FFACA
:1028F0008AFA04F50878C0F29582029BA34A1278FE
:1029000002F0FF005AB9074694F80422032A00F2A5
:10291000F383DFE812F041010001C7017300059362
:1029200009F026FC059B0028EDD0B4F8F021012A1F
:1029300040F2288394F80422022A00F0238394F8BA
:102940001A02002840F01E8394F87E20002ADAD173
:1029500094F8C3210B2A00F2B38337F8129094F84D
:10296000042209F5C869012A1FFA89F940F0608339
:1029700094F89220032A40F09683D4F8FC01E76A89
:1029800007444946059309F0B7FB02463846D4F898
:10299000F871C4F8F821D21BD4F80072494602FB42
:1029A00007F709F0A9FBD4F80822C4F80802801A36
:1029B00007444946E06909F09FFB94F87E20059B97
:1029C00002B10230B4F8DC21D4F800125244C943F9
:1029D000521B0A44D4F80C12C4F80C02401A00FB33
:1029E0000277012284F81A228EE794F80432032B2E
:1029F00000F07D820123CDE903336FE7E16902989E
:102A000001FB05F2002800F01A82B4F8DC0100286E
:102A100040F0158284F81B02D4F80CC20CFB15257B
:102A200094F88E200695262A00F0AE8294F88F2026
:102A3000262A00F0A982002B3BD0D0BBD4E98E23FC
:102A4000D4F84012D4F844E28A4273EB0E0380F0CB
:102A5000488394F87530DA1E012A40F2DC82184669
:102A600008F0ACFCDFF82891D4F8401200F5234EB2
:102A70000EF1A10EA9FB0E3ED4E98E2394F8750049
:102A80008439A0F1030C8A1A1544BCF1010FA5EB9F
:102A90009E1540F22B8308F091FC00F2E731A9FB70
:102AA0000131B4F8DC01D4F80CC289092944103989
:102AB00006918244ABF103030CFB0AFADBB20AF184
:102AC000300A012B4FEA4A0A40F2A282584608F027
:102AD00075FC2F4B00F52340A130A3FB00304FEADB
:102AE0009019584608F062FC0AF17405274B4D44D2
:102AF0002844586094F87E30002B42D0254AE06983
:102B0000514606AB0EF0A2FF204B84F81B02069A3A
:102B10005868E1692EE1D4F80C02E269D4F8083271
:102B2000D4F80012B4F8DC9194F875B0121A02FBD4
:102B300005F5D4F8F82106953033CA4402FB013973
:102B4000C943258E8A44ABF1030300FB0A99012B8C
:102B50004FEA490905F1740540F2B981584608F079
:102B60002DFC0B4B00F52340A130A3FB00304FEAB6
:102B7000901A584608F01AFC4D44044B554428441A
:102B80005860069A8CE000BFBC8C0200B011002097
:102B9000D34D6210B411002094F8751094F8D6014A
:102BA0000EF037FF0546E06A4946284409F0A4FACA
:102BB0004946C4F80802E06909F09EFA94F87E30AC
:102BC000002B40F0DD81C4F80C0207A908A808F02A
:102BD0006FF9079B0093D4E99201DDE908230CF01B
:102BE000FFF994F8753005938146184608F0E6FB26
:102BF000059BDFF8E8A2033B00F55F40012B00F1E5
:102C0000410094BF28210021AAFB003001EB901164
:102C10008031012220460FF069FBD4F85432E26A79
:102C200094F875000693059208F0C8FB4AF2A13BA0
:102C30005844AAFB0031069B059AA3F19400D4F8EE
:102C400008321044C01A2844A0EB090003F13009EF
:102C500094F87530258EDA1EA0EB9110012A0690AB
:102C60004FEA490905F1960540F22E811846059371
:102C700008F0A4FB8344AAFB0B3A059B4FEA9A1A7F
:102C8000184608F093FB4D44954B069A554428444A
:102C90005860D4F85432D31AB3F5917FC0F017823C
:102CA000E16967E0E36AD4F8FC014946184409F099
:102CB00023FA4946C4F80802E06909F01DFA94F8BD
:102CC0007E30002B40F05A8194F87590C4F80C02C5
:102CD000484608F073FB814D00F55F40A9F10309F8
:102CE000B9F1010F00F14100A5FB003094BF28218C
:102CF000002101EB90118031012220460FF0F6FAFD
:102D0000B4F8DC31002B00F0A280D4F8FC31E26A88
:102D1000D4F8080294F875A013441B1AAAF1030111
:102D20000693C9B2D4F8F831D4F80022B4F8309040
:102D300002FB0305303501294FEA450509F1740905
:102D400040F2C880504608F039FB644B00F5234040
:102D5000A130A3FB00304FEA901B504608F026FB41
:102D60004D445F4B069AE1695D4428445860012355
:102D700084F80432D4F80C526FF4AD734D1B1D442B
:102D8000D21BD4F84872D4F84C320692854228BF40
:102D90000546BA1843F10003C4F834320023C4F8DE
:102DA000D851C4F8302284F8203204F13C000FF0EE
:102DB0000AFAD4E98C230544C4E99223C4F82452C6
:102DC000A4F8506205F044FF20B1D4F824321E3339
:102DD000C4F82432B4F8C811039A8E1B002336B20B
:102DE0009E4284F82832C4BF022384F82832002A85
:102DF00040F0D680029A002A40F0D68094F804323F
:102E0000002B40F0F28094F81C0241460BF030F9A0
:102E1000002800F05781049B84F8183200200BB082
:102E2000BDE8F08FD4E98E01002384F81B32C4E999
:102E300092015546012361E5CDF810804EE594F8E6
:102E40001B02002800F0E180254B586892E7029BA6
:102E5000002B3FF45AAFD4F8FC31E26A94F87500C5
:102E600003EB020B08F0AAFA00F52340A130A5FB02
:102E700000304FEA9019D4F80802D4F8402294F8B0
:102E800075A0ABF1940BABEB000B9344AAF10301DB
:102E9000D4E98E23C9B20129ABEB020B40F2C48006
:102EA000504608F08BFA94F875A000F2E732A5FBC3
:102EB0000235AAF10301D4F80802AD09C9B2ABEB9F
:102EC00009022A4406922DE74FF0650AD8E64FF032
:102ED000650A4EE64FF0650B3FE700BFD34D621029
:102EE000B01100200E2B18BF03957FF4EDACB4F8A1
:102EF0009832B3427FF47EADB4F85232B4F8DC219C
:102F00001344C4F80032D4F80C32C4F8F831E36941
:102F1000C4F8FC31204606F053FC94F8AC32002B88
:102F200040F0A880D4F8A052E269954204D02088ED
:102F300010F06EFAD4F8A02294F87E30002B00F046
:102F40008D8041F64B539D4240F28D8000234FF01F
:102F500096112387616384F87E30D4F89C32E36253
:102F6000B4F89A322386D4F8A4326362022384F838
:102F700004320123CDE90333E261AFE40230A3E67A
:102F8000023020E60027BFE4B4F89822B21A1204F7
:102F90003FF551AD94F89B22002A18BF93464AE5AD
:102FA000029A002A3FF42FAFB4F8F021D2B1B4F85E
:102FB000F20194F8F41100FB01118A4200F10100C2
:102FC0007FF721AF002B3FF41EAF002384F8283297
:102FD000A4F8F20102F038FD00F00700013084F897
:102FE000F40110E7A4F8F2210DE7E169D4F80C32FE
:102FF0004046C91A0EF0B4FC80B200283FF403AF7B
:10300000149B9BB11880012009E7B4F8DC0103E5AB
:103010004FF0650965E5D4E98E23A1F1E90EAEEB29
:10302000020E3C21754441E53C2548E70120F6E6C7
:10303000E0690593494609F05FF894F87E20059B06
:1030400002B10230B4F8DC71D4F80C22C4F80C02DE
:1030500057447F1B821A02FB07F7C2E441F64B512B
:103060008D423FF678AF4FF04D1363630023238703
:10307000012370E7208810F0C8F968B3B4F89822EB
:10308000B4F8A812618694F87E30B4F8AA1242818E
:10309000013A02820022C2818181D4F8A022002B51
:1030A0007FF454AF57E794F8751094F8D601E76AA7
:1030B00005930EF0AEFC059B0744D4F8FC0160E4D8
:1030C000FFF7D2FA40F293513020FDF7A3F940F216
:1030D000DE413020FDF79EF940F23E713020FDF7D1
:1030E00099F940F232513020FDF794F9B4F8DC013F
:1030F000D4F80CC23C21D9E440F24A513020FDF70B
:1031000089F900BFF0B585B0002800F010810446B1
:10311000072900F2F380DFE811F0950008000800AD
:103120007E00F10083008B00ED0010F040FAD4E93E
:103130008E23801A61EB0301012871F10003C0F2B4
:10314000FF806FF00102002382428B41C0F20181B7
:10315000E3690BB1B0FBF3F394F88F20442A00F03D
:103160009B800E2A94F88E1000F096804339012936
:1031700040F29280B4F88810B4F816220B449BB247
:10318000D11A090400F1C880531C9BB2A4F816326E
:1031900094F81932B4F81612002B00F0B380B4F88A
:1031A000C200B4F888306D4FB4F852220344B4F82A
:1031B000C000013B1B1A9EB23B680132A4F85222A8
:1031C00002AD53B1013989B2002220469847B4F8C4
:1031D0001612014489B2A4F81612731A1B0462D4A1
:1031E000002300951A462046FFF73EFB40B3012816
:1031F00040F0A180B4F81612B4F8C831CA1A10040D
:103200006ED4BDF80830194489B23B68A4F8161290
:10321000002BD7D1E1E705B0BDE8F04007F054BE80
:10322000012009F065F905B0BDE8F040FEF738BFB0
:1032300090F80432042B40F08880002380F8043298
:1032400005B0F0BD90F81832D3B1B0F81622B0F83E
:1032500088309A4263D0D31AA0F8CE31A0F88820E3
:10326000D4E98C232046C4E98E2306F0C9F994F8EA
:10327000D331002BE4D005B0BDE8F04010F056B8D3
:10328000B0F81432B0F88810B0F81422A0F88820F2
:103290005B1AA0F8CE31E3E7B4F81612013189B217
:1032A000A4F816127BE794F892200394002A0CBF2E
:1032B0003E220822012384F8B12028468DF80830E8
:1032C00002F0D2FE204610F033F8002384F80432D6
:1032D00094F81C020AF0B4FD202384F81C32AFE7F6
:1032E000BDF80820114489B2721A12F4004F18BFB9
:1032F00019468AE7D6213020FDF78CF8DA213020F4
:10330000FDF788F8B4F8CC318B427FF448AF013137
:1033100089B2A4F8161242E701339BB236E7B0F83F
:10332000CC31A0F888309B1AA0F8CE3198E7AA21BA
:103330003020FDF76FF840F276613020FDF76AF833
:1033400040F21E613020FDF765F8D0213020FDF7F6
:1033500061F840F21F613020FDF75CF83405002071
:103360002DE9F043D0F814310026D0E9548983B018
:1033700080F8186105460F4683F8D62180F8386139
:103380000121D0F8140101F073FFD5F81441C4E90C
:103390008E8995F8103184F81C32C4E99289C4F8FA
:1033A000547284F80462A4F85062334600963246A0
:1033B00031462046FFF758FAD0B9012384F8043289
:1033C000C4F80002C4F8F801A4F81602A4F8140224
:1033D00084F81902B4F88830A4F85202013BA4F82A
:1033E000883007F0C1FB03B0BDE8F0430AF012BB20
:1033F00040F2FF113020FDF70DF800BFD0F81401A6
:10340000704700BF2DE9F04385B000230322CDE9CA
:103410000033FF268DF806206846FDF78FFF04462F
:1034200020BB009D95F83831002BF5D085F8606100
:10343000012128460FF0C5FD95F83831002BEBD05F
:1034400095F810010BF066F895F810010BF086FC6A
:1034500095F810010AF0F4FC002840D085F83841B6
:103460006846FDF76BFF04460028DAD0DFF8848059
:10347000012388F80830002502264FF6FF771EE06A
:10348000029B03B393F81C22202A1CD01888B84250
:103490001FD00221FDF718FF814628B390F81C02C7
:1034A0000BF038F899F81C020BF058FC99F81C0244
:1034B00089F804420AF0C4FC202389F81C32CDE9C3
:1034C00002558DF80E6002A8FDF738FF044600286B
:1034D000D6D0002388F8083005B0BDE8F08340F26C
:1034E000EB113020FCF796FF4FF49B713020FCF776
:1034F00091FF00BFB0110020054B0022012142F2D4
:1035000010705A72588119701A72FFF77BBF00BF92
:10351000B01100202DE9F84390F83831002B77D115
:103520000446884601465648154603F0FF070AF050
:1035300053FC202806466BD05822394604F5887083
:103540000CF0FCF984F81061C4F81481FF2384F8AE
:103550003831B8F1000F06D002F08EFA00F0070003
:10356000013088F8F40102234FF00008A4F8483134
:1035700084F8408108F012FE00F19E062046B6B2A3
:103580000FF0E0FC002847D00EF035F800F5CD61D3
:1035900089B2284608F0B0FD2844C4F8440110F070
:1035A00006F8301841F100014FF00109C4F850014C
:1035B000A4F82680C4F8541184F8189120460FF01E
:1035C000D7FC002846D0494620460FF02EFC6FF469
:1035D0009C631D442D1AC4F81C514FF0FF326FF04C
:1035E0000043C4E9562394F8100104F5A0710AF0D1
:1035F0003FFD00283FD0D4E954232046C4E94A23A4
:10360000C4E94C2300210FF0DCFC3846BDE8F88308
:103610000C273846BDE8F883014620460FF005FC2C
:10362000DFF86080E530C4F84401B8F80A0008B15A
:10363000E08CB8B906440FF0BAFF361841F100012A
:10364000C4E95461002DC8D0AE1941F10001C4E9AC
:103650005661C8E748460FF08CFDE53D2D1AC4F8C9
:103660001C51BAE702F008FAB8F80A30B0FBF3F2DE
:1036700002FB1300DEE740F2CD113020FCF7CAFE5A
:1036800075260000B011002090F838310BB90020E9
:10369000704710B50446FF2380F8603101210FF018
:1036A00090FC94F838310BB9002010BD94F810014B
:1036B0000AF030FF94F810010BF050FB94F8100161
:1036C0000AF0BEFB20B1002384F83831002010BD81
:1036D00040F2EB113020FCF79DFE00BF014B587209
:1036E000704700BFB011002090F8602182B910B57A
:1036F00002F0FF0490F8182112B90122104610BD03
:10370000D0E947319942F9D904F060FE2246F5E745
:1037100000221046704700BF08B506F041FE044B7A
:10372000DA6882422ABF187A002080F0010008BDC2
:10373000B011002008B540F2FF110EF0E0FDB0F529
:10374000296F28BF4FF4296080B208BD90F8D331AB
:10375000002B75D1F0B503F0FF0590F80432032B70
:1037600085B0044601D005B0F0BD0FF020FFD4E9CC
:103770008E23801A61EB0301012871F10003F2DB53
:103780006FF00103834275EB01035CDBE369B4F87E
:103790008820002B55D0B0FBF3F080B2531C1844A6
:1037A00080B2A4F81402B4F81422B4F8CC319B1AF5
:1037B0001BB2002BD7DD94F81C020AF0ABFE0028E8
:1037C000D1D0FF2384F81932B4F88850B4F8C2205D
:1037D000B4F8C030214F1544013DED1A3B68ADB23D
:1037E0000DF10E066BB1B4F81412013989B2002242
:1037F00020469847B4F8143210FA83F39BB2A4F829
:103800001432B4F81432EB1A1B04ACD4B4F814120A
:10381000009689B2002301222046FFF725F80028F0
:10382000A1D0012814D1B4F81432BDF80E2012FA38
:1038300083F39BB2A4F814323B68002BD3D1E0E7AA
:1038400070471846AAE740F2C7513020FCF7E2FD66
:1038500040F20E613020FCF7DDFD00BF3405002092
:103860002DE9F043044683B0062900F22B81DFE8FE
:1038700001F0042613232C338C00D0E98E23D0E9E9
:10388000900182428B41C0F0B180914B1B7A03F0D2
:10389000FF02002B00F09B80042384F8043207F021
:1038A00063F90AF0B7F8B4F88820A4F816220023C8
:1038B000A4F8523284F8193203B0BDE8F083032330
:1038C00080F8043203B0BDE8F08306F071FDC4E96E
:1038D000900103B0BDE8F08300881121FDF7F4FCEE
:1038E00094F87530002800F0DC80022B00F0D780BF
:1038F00066D8012B08BF0A3040F0DE80808840F295
:103900004517874234BFC01B0020D4F80C52E3692E
:10391000DFF8BC912A18934284BF5B1B1D1A99F8EB
:10392000093098BF00251BB9E36B9D4228BF1D4697
:1039300004F13C00D4F8D8610EF045FC06EB000819
:1039400002200BF06BF8A5EB080525EAE57585422A
:1039500028BF0546022128460BF0C8F800B9A84444
:1039600001233A46414620460EF0AFFCE269D4F806
:10397000D831C9F80C00D0180AF0E8FF00289BD114
:1039800040F28A313020FCF745FD90F8755028460A
:1039900007F014FD033D4F4900F55F40012D00F194
:1039A0004100A1FB003094BF2821002101EB9011C0
:1039B00001228031204603B0BDE8F0430EF096BCF2
:1039C000033B012B78D8408C40F26D1799E7B4F88F
:1039D000CC11009201232046FEF746FF00283FF459
:1039E0005EAF40F2DC613020FCF714FD94F81A322F
:1039F000002B3FF44AAF94F80432032B7FF445AF19
:103A000094F875800DF0F7FD94F8C3310B2B57D85F
:103A1000314AD4F8406232F81330D4F8D891C5183E
:103A200003F5C8639FB2D4E98E234046B61A07F067
:103A3000BDFCA8F10302012AADB2A9EB000939D9F6
:103A4000404607F0BBFC234B00F52342A132A3FB09
:103A500002239B09A9EB0303A3F174025208D43B90
:103A60009D3205FB03F3B3FBF7F36033A2EB530185
:103A70008E424FEA530302D313449E4201D908F009
:103A80007DFBE069294608F037FB94F87E3003B1EE
:103A900002300023C4F80C0284F81A32F5E6143020
:103AA0002CE740F26D17033B40F24512012B88BF13
:103AB00017462AE76523CDE7CD21B420FCF7AAFC01
:103AC000FEF7D2FD4FF4F3613020FCF7A3FC00BFFA
:103AD000B0110020D34D6210BC8C0200012A70B5D9
:103AE000064609D0022A14460D461ED04AB140F2BD
:103AF000C2713020FCF78EFC06F052FCC6F854026E
:103B000070BD06F04DFC224601462846FFF728FC12
:103B10000F4995F81001324608F0DAFC0028EFD181
:103B200040F2AB713020FCF775FCD0F85412012242
:103B30002846FFF715FC064995F81001324608F0B3
:103B4000C7FC0028DCD140F2BC713020FCF762FCDD
:103B500005310000F8B5044651B101295BD10023BD
:103B600080F8183107F000F8BDE8F84009F052BFBE
:103B7000C58C002D47D12046D4E94A760FF0A4F930
:103B8000401941F10001C01946EB01010022022356
:103B9000C4E95401C4E94A0184F84021A4F8483139
:103BA00094F8603103F0FF01002BDBD1D4E9560219
:103BB0006FF000439A4208BFB0F1FF3F0CD194F878
:103BC000100104F5A0710AF053FA0028CAD140F29E
:103BD000FB613020FCF71EFC2046D4E954560FF060
:103BE00024F9D4F85831D4F85C215B1B00F1E500CE
:103BF00062EB06021B1A62F10002002ADFDA20469D
:103C000004F0E4FBAEE701F01FFFE58CB0FBF5F339
:103C100003FB1505AFE740F2D2713020FCF7FAFB49
:103C200090F83801003818BF01207047014B5881C7
:103C3000704700BFB011002090F854305907024679
:103C40000DD413F0030000D1704792F8550000F036
:103C5000FD00A0F10100B0FA80F04009704790F833
:103C60005600A0F10100B0FA80F04009704700BF93
:103C7000343270B592B205460C461E460CF092FBEB
:103C800025B1034B1D601C745E741C7170BD00BFB8
:103C9000D8110020014B1870704700BFD1040020DC
:103CA00090F86C00003818BF01207047014B587025
:103CB000704700BFF0110020F0B5070CA7F5AA422D
:103CC000144B543A012A03EA90231FD927F40040E9
:103CD00042F6AA22801A18BF012000221621164699
:103CE0001F2487EA060562EA0505013510D0DD03C9
:103CF000ADB245EA5606E503ADB2013945EA5202D6
:103D00004FEA53034FEA5404EBD1F0BD0020E4E73F
:103D10000020FAE7E0FF3F00F8B58D1FADB240F696
:103D20007A4C65450746BDF824601046BDF818205A
:103D30003BD8841FA4B264458CBF002401242546CF
:103D4000AFBB1D4F3F796FB15CB96FF450654D1932
:103D5000062D06D86FF450640419062C8CBF00247D
:103D600001242546FDB1814224D803FB0666B6F541
:103D7000FA7F1FDCA2F10A039BB240F67644A3420D
:103D800018D80CF040FC42F210735A4300FB06F1C5
:103D9000B2EB410F0ED9BDF81C50BDF82000854292
:103DA0008CBF002501252846F8BD0024C7E797F8F9
:103DB0007D70C8E70025F6E7A01200202DE9F34149
:103DC0000023CDE9003304460E46174600F10A08E9
:103DD0006846FDF7B3FA08B1002015E0009DA54242
:103DE000F6D030460CF009FCEB1CAA7839460DF0F1
:103DF0004AFD0028ECD06A7A607A05F10A03414650
:103E00000DF041FD0028E3D002B0BDE8F0810000D4
:103E1000054A134692F8202053F8211B11F8030B92
:103E2000C0F380100DF02FBDE81700200138C0B29C
:103E3000032808B504D940F249310620FCF7EAFA14
:103E4000014B185C08BD00BF8C8D02000138C0B268
:103E5000032808B504D940F249310620FCF7DAFA04
:103E6000014B185C08BD00BFFC8D02000138C0B2D8
:103E7000032808B504D940F249310620FCF7CAFAF4
:103E8000014B185C08BD00BFEA8E0200F7B5114B6C
:103E90009C7EDD7E9F8B064614B900F0E1FD044652
:103EA000A5B900F0DDFD054614B9092003B0F0BD49
:103EB0000028FAD0304601A98DF804408DF805504D
:103EC000ADF806700DF0A1FD0020EFE7002CF1D158
:103ED000EBE700BF3417002010B503210020FDF7E9
:103EE000F3F9044670B90321FDF7B0F9044620B98F
:103EF00040F291313920FCF78DFA034B93F96010B1
:103F00000EF04DFF204610BDA012002038B50DF078
:103F1000B9FC01F0B9F800F0B1FD0EF0F8F801F0CD
:103F20004FFA02F053FB01F07FFA012000F04EFD42
:103F30001A4B1B4A1B4C00251D601B4BA4F8545008
:103F40001A601B229A805D839D839D771D76174B97
:103F5000A576F92258682283154A1B892260E06100
:103F60002946142204F124002384A580A5750BF0B2
:103F7000E5FC012304F13A0042F21072C4E90A227E
:103F800084F8243084F8393084F856500FF033FA2E
:103F900004F14400BDE838400FF052BA3805002063
:103FA00003021B00A0120020341700208C8D020099
:103FB0001B004801044B41F64C521B21C3E902226D
:103FC00019745A61FFF7A2BF3417002073B53B4D37
:103FD000AB68C3633A4B1B79003B18BF012380F8E1
:103FE0007D30384BC3610446FFF7A4FB064600F062
:103FF00031FD2B7C84F84430334BA4F8466010F03C
:10400000200F1B681DBFAA886988A4F866101B22B0
:1040100008BFA4F86620A4F868201BB194F97C10AE
:1040200020889847294B1B6813B129492088984755
:104030002046FFF72BFF064650B120880221FDF7EE
:1040400059F9002836D040F224613920FCF7E2F912
:10405000012363861F4B1B6813B1014620889847D4
:104060001D4B1B6813B12088002198471B4B1B6810
:104070000BB1208898471A4B1B680BB120889847D2
:10408000AB886A88697801910333297800910332FB
:104090009BB292B204F1180104F11400FDF786F905
:1040A000636913B940F24E61CFE7A3691BB940F2CF
:1040B0004F61CAE70926304602B070BD34170020B0
:1040C000A012002000093D004C0500204005002002
:1040D000A81200205C050020500500205405002097
:1040E000580500202DE9F34105460E460EF098FED6
:1040F000002800F0AF8028460EF024FF30B1B6F85B
:104100000130013B7F2B01D9122404E028460EF038
:104110001DFF20B90C24204602B0BDE8F0812846DE
:10412000FFF77EFD0028F5D128460EF022FE8046DE
:104130000028EFD1284603F05FFE0028E4D0B6F84F
:104140000170F17842F2107328465F430EF0E5FEED
:1041500004213078FDF7B8F8062104463078FDF7E1
:10416000B3F8002C78D038B141F67D313920FCF716
:1041700051F990F8BD800446414E3368002B6DD054
:10418000403420460EF06AFB002867D020460EF02F
:1041900059FB002862D1B8F1000F08D0394B2046F6
:1041A0001B689847002859D041F69131DEE736491F
:1041B0003368496942462046984700284ED041F668
:1041C0009631D3E728460EF0BDFE40B902210DF12D
:1041D0000600FDF703F8064658B90D249BE728466C
:1041E0000EF0C2FE0028F1D1284B1B79002BEDD137
:1041F0008AE7002101F03CF8BDF8063033802846FC
:1042000031460EF0CFFE28460EF0AEFEA8B9296A60
:1042100028460EF0B3FE01463046FFF7D7FE0446AF
:1042200000287FF478AF3A4631462846FFF772F906
:10423000044620B141F6C23198E70121ECE7134B67
:10424000DB6D002B3FF467AF024606F591713046F7
:10425000984760E742245EE700288AD128460EF09E
:1042600069FE01460028ADD13A462846FFF752F9CB
:10427000044600283FF44FAF41F69F3176E700BF78
:104280003C0500204405002034170020A012002027
:10429000024B1B6803B118470C20704738050020FB
:1042A000B0F90020F8B514B292B202F5A0639BB247
:1042B000B3F5206F34D8B0F902301DB29BB203F5CC
:1042C000A06189B2B1F5206F2AD802F2F64189B215
:1042D00040F2BE50814225D803F2F64189B28142B4
:1042E00020D8002CC4BF093214B2002DC4BF09333A
:1042F0001DB20A2094FBF0F401F06AF867B206469A
:104300000A21384695FBF1F149B201F053F8074B09
:104310001B684BB1A01B40B208B198470020F8BD04
:104320003020FCE71120FAE71846F8E7480500209E
:10433000034B5A8802801B7883700020704700BFAF
:10434000341700207FB583781A2B064609D8042B32
:1043500005D9012202FA03F3314A134205D112258D
:104360001AE0292B01D03B2BF9D13088B0F5706FC2
:10437000F5D269460DF0C6FA88B9019B93F8202161
:1043800002F0FF05C2B9B27883F82121FF2283F839
:10439000202168460DF094FE284604B070BD308898
:1043A0000921FCF791FF0446002837D0B0F8AC0192
:1043B00002A90DF0A7FA08B10C25EDE7B4F8AE019B
:1043C0000821FCF781FF20B940F691113920FCF754
:1043D00021F803781BB994F8C831032BECD1039B67
:1043E00093F83621002AE7D194F8F02102F0FF0576
:1043F000002AE1D1B4F8B021A3F8382194F8B4210F
:1044000083F83A21027D83F83B21B27883F83C217E
:1044100084F8F021FF2283F83621BDE70225BBE7AF
:104420002000380438B504784278857804F0010318
:1044300052EA030104F0020401D1112038BDBCB9D5
:10444000002DFAD0002B08BF144601E000242546B9
:1044500020460CF05EF90028EFD028460CF059F900
:104460000028EAD0054B00209C76DD769883E5E7AE
:10447000002BEBD114461D46EAE700BF341700209D
:1044800013B5008869460DF03DFA18B102242046A4
:1044900002B010BD9DF8003001984BB90CF0C0F887
:1044A0000028F3D0019890F8323123B13A24EEE796
:1044B0000CF0C4F8F4E790F8DA3003F0FF04002BB6
:1044C000F4D190F8D1309B0706D1FF2380F8323128
:1044D00068460DF0F5FDDAE70249D2300DF03FFEF7
:1044E000D5E700BFA12701002DE9FF410778EF2F95
:1044F00004460E4601D91226D6E0B0F80130ADF8D8
:104500000C309DF90C209DF80C30002AF3DB9DF84F
:104510000D209507EFD1D80600F19A80990603F097
:10452000030240F19180002AE5D11A0703D503F078
:104530006703012BDFD163781D0711D42179E2785D
:10454000E07942EA0122617942EA0142A17941EA35
:104550000021207A41EA00418A42CCD81F2ACAD9D8
:10456000627A013A062AC6D8A27A032AC3D813F07F
:10457000040102D1023A012A03D8E27A012ABAD808
:1045800011B9A27C032AB6D813F01001227D72D093
:10459000012AB0D1237E012BADD800297CD06378CD
:1045A000D80703D500F0D4F900287CD06378227DA9
:1045B00003F01801082940F08B80022A73D11B07F1
:1045C00040F18E801FFA87F803214046FCF77CFEFD
:1045D0000546002840F0958003214046FCF736FE52
:1045E0000546002800F0AA80554B93F960100EF0A4
:1045F000D6FB002138460EF0D4FE002840F088801B
:1046000028460EF094FC21463070E074284603F0F2
:104610004BFCE37E0646002B46D0002844D1E96CD3
:1046200002466846FCF79EFFE86C324601210BF01B
:104630000EFFE96C68460422FCF794FFE86C3246F2
:1046400031460BF004FF2FE0032A7FF46EAF52E7F0
:1046500013F0600F7FF44FAF03F00F0203F0070376
:10466000052B3FF468AF931E012B7FF664AF002A41
:104670007FF441AF5FE7022A04D103F06F03092BF7
:104680007FF439AFA37D013B022B3FF634AFE37DCE
:104690000F2B7FF67FAF2EE700F0E2F981070AD4F7
:1046A000237D022B04D11126304604B0BDE8F081F1
:1046B000A37D022BF7D000F0D3F942073FF56FAF8F
:1046C000237D032BEFD0A37D032B7FF468AFEAE7B4
:1046D000022A3FF474AF227F002A3FF470AFE2E772
:1046E000E279A37943EA0223227A43EA0243B3F54B
:1046F000804F7FF667AF0EF0B8FF00287FF462AFFF
:10470000D1E7FFF78DFA00283FF473AF0C26CBE713
:1047100040300EF0A3F800283FF472AF637813F036
:10472000330F7FF4E8AE296AA77D28460EF026FCF9
:10473000FFF77CFB87423FF463AFE7E70726B3E769
:10474000A012002030B50279042A8BB003465CD851
:104750004488B4F5804F58D82D4810440021827CFD
:10476000457BADF8001042F0100242EA4502C57DDB
:10477000007F8DF8081042EA850242EAC00202F08A
:104780001F028DF80020BDF80020ADF809201A881E
:104790008DF80B208DF80E40120A240A8DF80D10AA
:1047A0008DF810108DF80C208DF80F405A7B8DF885
:1047B00011205A798DF812209A79D3F807008DF8D4
:1047C0001320B3F80B209B7B8DF81A307F238DF8D4
:1047D0001B30012305908DF81D10ADF818208DF8C1
:1047E0001C308DF81E3002A88DF81F108DF8201097
:1047F0008DF823108DF824108DF821108DF82210DB
:104800006946FFF771FE0BB030BD1220FBE700BF19
:104810008C8D02000278034672B1427862B1428800
:104820001A2A09D982881A2A06D9044A006810600F
:104830009B88938000207047122070473417002017
:10484000024B02689A600020704700BF34170020B6
:104850000378A3F10A02112A9DBF024A00201374B3
:104860001220704734170020014B18760020704743
:10487000A0120020014B587600207047A0120020A3
:10488000024B1B6803B118471120704760050020D8
:1048900008B503F099F9FEF72FFEBDE8084001487E
:1048A00003F07CB90413002008B50CF0E9FF0648BA
:1048B00000F58471FDF7FAF902200BF045FDBDE823
:1048C000084000200BF040BD0413002008B5074B42
:1048D000012283F80A2203F07FF904F0ABF9FFF715
:1048E000E3FFBDE8084000F0B3BF00BF04130020A1
:1048F00010B5064C064904F503700CF03CFE04F5B7
:1049000004700449BDE810400CF035BE04130020CB
:10491000640500206C05002010B5094C094904F518
:1049200003700CF028FE04F5047007490CF023FE18
:1049300004F505700549BDE810400CF01CBE00BF31
:1049400004130020740500207C050020840500204D
:10495000014B93F80A0270470413002038B5094C44
:104960000D4600F051FFD4F80C02C4F804510CF0CD
:10497000FAFDFFF71FFB01F097F8012384F81832C6
:1049800038BD00BF04130020014B93F81802704794
:104990000413002010B50C4CD4F810020CF0E3FD09
:1049A000D4F814020CF0DFFDFFF7B0FA202000F07D
:1049B0002FF8262000F02CF8292000F029F80023F9
:1049C00084F8183210BD00BF04130020014B83F897
:1049D0001902704704130020014B93F81902704725
:1049E00004130020C2080849012300F0070003FA5D
:1049F00000F08B5C1843885404490B78934238BF0D
:104A000013460B70704700BFD80400201E1500200D
:104A100010B50E4BC40803EBD002012100F00700D3
:104A20008140185D20EA0100094918550B78A3421E
:104A300005D1002012F8014914B100B10B7010BD6E
:104A4000002BFAD0013BDBB20120F3E7D8040020B1
:104A50001E150020014BD3E900017047D804002047
:104A6000054B1868C0F3C022C0F30020400040EAA4
:104A7000820040F001007047D804002008B507F01C
:104A800083FB084A002332F82310814205D302EB4E
:104A900083039B78044A137008BD01330C2BF2D1B9
:104AA0000023F7E7CC8D02001F150020024B187879
:104AB000072828BF072070471F15002010B544683D
:104AC0002388A4F87E3184F87D1194F87400FFF7F0
:104AD000BDF984F8800194F87500FFF7B7F905492E
:104AE00084F8810104F5BA700DF039FB002384F8D5
:104AF0002C3110BDFB150100406808490388A0F85F
:104B0000703190F86C3080F8723190F86D3080F828
:104B1000733100F267100DF01CBB00BF11160100CD
:104B20002DE9F0438946097999F80580446801F038
:104B3000070108F007084B1E08F1FF3202EA0802DD
:104B40000B40134394F88F2094F88E70242A85B07C
:104B500005462DD104F18F06002B45D140460CF0BF
:104B6000A6FD78B394F8743098422BD094F82C2199
:104B7000012A0CBF94F82E2194F8702018EA020F35
:104B800032D0222F1ED094F86D2018EA020F19D1CE
:104B90000138C0B2032806D85C4A013B1044DBB29E
:104BA000032B00790AD940F21F210620FBF732FCC3
:104BB000222F40F0A78004F18E06CDE713441B7925
:104BC000834211D808460CF072FDB0B394F87530EA
:104BD000834232D094F82C31012B0CBF94F82F3142
:104BE00094F87130194228D194F82C31012B14D14A
:104BF0001E212846FFF762FF222F12D16B68182270
:104C000083F811210A2283F88E2093F8CA30002BF2
:104C100045D140F2B321AE20C8E7002384F82C31FF
:104C2000EAE70023284633700DF0A2FB182128463E
:104C300005B0BDE8F0430DF0C7BBB9F8067003AB93
:104C4000009320463B4642460CF03CFD6C6880BB1E
:104C500094F82C31012B29D1B4F8883094F87410D1
:104C6000B4F8300104F526720CF08CFD0446C0B98E
:104C700001462846FFF722FF34706B6803F18F026C
:104C8000964202D1002283F88F206B6803F18F02D5
:104C900096424FF0000432D128460DF069FB002007
:104CA00031E06B68282283F88E20E6E784F82C0137
:104CB000E3E7B4F88830A4F89872DB431F44BFB22E
:104CC00047F6FD739F4206D9282384F8B130284661
:104CD00001F0CAF9D9E794F88F300E2B02D00B3BC4
:104CE000012B01D82A23F0E79DF80C3084F89A3282
:104CF0009DF80D3084F89B3226233370C5E783F886
:104D0000CA40CCE7022005B0BDE8F083FC8D02006C
:104D1000044B002283F832204FF6FF729A86DA861F
:104D20001A87704720150020054B9A8E824201BFDA
:104D3000002283F832204FF6FF729A86704700BF38
:104D400020150020014BD886704700BF2015002099
:104D5000094A0346908E4FF6FF71884206D192F8B9
:104D60003210012905D01A60012070470020186018
:104D700070470020704700BF20150020064B93F8B5
:104D80003220012A1FBF0120DA8E83F832009A8672
:104D900008BF0020704700BF20150020014B188776
:104DA000704700BF20150020064B0246198F988ED1
:104DB000884205D193F8320018B113600120704782
:104DC0000020704720150020094B998E1A8F9142C0
:104DD00001D0002070474FF6FF729A8693F8322078
:104DE000002AF6D0002283F832200120704700BF4D
:104DF00020150020054B998E1A8F914203BF93F81E
:104E00003200B0FA80F040090120704720150020E0
:104E100050B90A4A1346012003F8010B0868C2F88A
:104E200001008A889A807047012805D1034B0A68DF
:104E30009A608A88D8719A81704700BF5A150020FD
:104E400048B90A4B187880B1D3F80120B3F805307F
:104E50000A608B807047012806D1044BD87920B1B5
:104E60009A680A609B89F4E7002070475A15002071
:104E700020B9054B187800F00100704701280ABFDF
:104E8000014B0020D879F6E75A150020F7B500222B
:104E90008B888DF80600ADF8043008680C4B8DF84F
:104EA0000720019D1C78014603F5AC73D0B2844203
:104EB00001D8082009E0D3E90076AE4208BF8F424E
:104EC00003F1080302F10102F0D103B0F0BD00BF0D
:104ED0006815002030B5094B01465C78002203F5C7
:104EE0008173D0B2844201D8082005E013F8015B39
:104EF0008D4202F10102F4D130BD00BF68150020DF
:104F0000F0B5254D95F8984189B0224605F29911E2
:104F100068460AF07FFD214668460CF0D2FC044644
:104F2000B8B300EB4001C9B202A8FBF789FC601ED0
:104F300095F8A161C0B2012495F8982105E0731C91
:104F4000B3FBF2F102FB1133DEB206F120030DEBED
:104F5000030111F8203C002BF1D100EB400220327C
:104F60006A4406EB46032B4412F8187C83F8A271BE
:104F700012F8177C12F8162C83F8A37183F8A42179
:104F800001F8204C0138AB19C0B2FF2883F89941D1
:104F9000D2D109B0F0BD00BF6815002070B506463B
:104FA00088B00C46002A4ED0294A92F8A131D01878
:104FB00090F8991119B9FF212820FBF72BFA03EB80
:104FC00043011144013391F8A251E57091F8A351C6
:104FD00091F8A41161710021257180F8991192F85E
:104FE0009811B3FBF1F001FB103382F8A13192F874
:104FF000C23123B9174902F5DD700DF0ADF86579BE
:1050000005F03F0545F0400565710D220021684619
:105010000AF094FCE3788DF80F3023798DF80E3088
:1050200004AA0423694630468DF80D500AF028FA88
:105030009DF81F3023709DF81E3063709DF81D3061
:10504000A37008B070BD03216018FBF7F9FBD6E729
:1050500068150020014F0000044B5A78824286BF39
:105060001B1893F84A010020704700BF6815002004
:10507000044B5A78824286BF1B1893F842010020E5
:10508000704700BF68150020064B00224FF4617185
:105090001A8083F8C32183F8C421A3F8C61183F8CA
:1050A000C221704768150020014B83F8C401704786
:1050B00068150020014BB3F8C60170476815002041
:1050C00030B50A4B5C7884420ED9184490F802013E
:1050D0002B3003EBC004A5790D7053F8300010603D
:1050E000A3889380012030BD0020FCE768150020D4
:1050F0000246074810B590F8C34124B1417821B168
:10510000023004F0EFFB204610BD0C46FBE700BF69
:10511000681500202DE9F74F2F4C9A46637883429B
:105120008046894656D9231893F8425185F00105E7
:10513000F9B193F84A31E3B945F002070135BAF104
:10514000000F18D1FA070AD5062101FB084104EB2C
:105150000810524601F585718230FFF71FFFBB072B
:1051600034D504EB0810524649460230FFF716FFCB
:105170002CE02F46E3E794F8A1614FF0010B002DDE
:10518000E0D0A319019393F8991199B90092DAB17B
:1051900000F05AFC06EB46012144019B81F8A20174
:1051A0004FEA102C009A81F8A3C1000C81F8A401E9
:1051B00083F899B194F898310136B6FBF3F103FB0B
:1051C0001166F6B2013DDAE747F00407384603B04E
:1051D000BDE8F08F0027F9E768150020074B5A78E3
:1051E000824209D91A1892F842212AB9062202FBF2
:1051F000003000F58570704700207047681500206A
:10520000064B5A78824281BF1B1893F83A01B0FAD4
:1052100080F0400998BF0020704700BF681500204B
:1052200030B50024A0F84040B0F8444042F2107578
:105230004C43B4FBF2F4A0F84440541E05FB034376
:10524000B3FBF2F3A0F84230084BB3FBF2F30133A7
:10525000A0F84830838F05FB0344436BB4FBF2F4A2
:1052600059438463B1FBF2F2426330BD005A6202DB
:1052700070B504460D4659BB4FF434720AF05EFB1C
:10528000012384F896306FF0360384F8E13004236C
:1052900084F8E2306FF03B0384F8E3306F2384F846
:1052A000E4306FF03C0384F8E5306FF07F0384F85E
:1052B000E7302B2384F8E030FE2384F816317F2377
:1052C00084F88D30202384F8E65084F81C3270BDB9
:1052D000012922D10023A0F8DC3180F8D331154B0D
:1052E000C2691344B3FBF2F3C0F8B83040F6B833E8
:1052F000A0F8BC301146C38C8030FFF791FF0AF054
:10530000D7F930B1206AFEF7D7FC10B984F8C25142
:10531000DDE7002384F8C231D9E70229D7D1B0F8FC
:10532000A632D0F8A022C169BDE870408030FFF7F6
:1053300077BF00BF7FC3C901034B80F87C101B6897
:105340000BB10088184770478C050020074B93F974
:1053500000301844142804DC10F17F0F03DB40B246
:105360007047142070476FF07E00704730170020A0
:1053700007B57F230DF107008DF8073005F030FDEC
:105380009DF9073068B10A4A5078404243FA80F0EC
:10539000142808DC10F17F0F07DB40B203B05DF882
:1053A00004FB1846FAE71420F8E76FF07E00F5E7F3
:1053B00030170020014B18705970704730170020CB
:1053C000024B00221A705A70704700BF301700203D
:1053D000014B93F90000704730170020014B93F9FF
:1053E0000100704730170020054B1B7833B9054B7F
:1053F0001A681B7902600371012070470020704712
:1054000032170020E8040020054BFF221A70054ADD
:10541000016811600179117100221A70704700BF94
:1054200032170020E804002007B5064B18680090EA
:105430001B798DF804306846FFF7E6FF03B05DF88E
:1054400004FB00BFAFDA02000346407898B1DB7876
:105450003F2B05D8084AD35C1B1A58425841704765
:1054600003F11402D2B2022A04D8034A134413F8F7
:10547000AC3CF1E701207047048E02003F2908B5DB
:10548000C17003D80B4B5B5C437008BD01F1140382
:10549000DBB2022B04D8074B194411F8AC3CF3E7FC
:1054A000FF2904D04FF48A612A20FAF7B3FF0123C1
:1054B000EAE700BF048E02002DE9F34789466946FA
:1054C000144698460CF01EFA054600283ED1019E6F
:1054D00034B9012486F89540204602B0BDE8F08733
:1054E000D6F814A0214650460AF06FFD014678B365
:1054F000194B5B88A3422DD350460AF0A0FE96F8C4
:1055000095300580002B0CBF494602210746857067
:105510000CF06FFD22464146F81C0AF07BFA21464A
:1055200050460AF08CFD044618B97E212B20FAF76C
:1055300071FF9DF800302BB168460CF0C1FD019B56
:10554000A3F8CA51002386F89530C5E70124C3E7C4
:105550000446C1E72C46BFE734170020024B987F72
:10556000C04300F0010070473417002083230B7004
:10557000014B1B78CB707047541700202DE9F84F72
:10558000D0F80480D8F8186030460D460AF049FE7D
:10559000044618B9FF211020FAF73CFF01463046B7
:1055A0000AF04DFEB4F800B01FFA8BF7824617B927
:1055B00040F20311EFE71E4B1B6800F103098BB9A2
:1055C000B8F80030AB8000236B72A5F806B09AF8EB
:1055D000003003F00303012B0FD0022B0DD040F25B
:1055E0001D11D8E7B8F800003A46494698470446E6
:1055F0000028E5D12046BDE8F88F2B7230460AF02E
:1056000024FE044610B94FF49371C4E7FB2F02D96E
:1056100040F23511BFE7286810B94FF49B71BAE723
:105620003A4649460AF0F6F930460AF06BFDE1E7E2
:10563000900500202DE9F347DFF86881DFF86891D5
:1056400006460D4605272B694BB11B7A1BB98021F5
:105650001020FAF7DFFE2C6994B9002066E06C6830
:10566000237A012BF9D0EFF3108372B66A681268BF
:105670006A6003B962B62C61237A0BB9A621E7E709
:1056800094F808A05FFA8AFA27720AF1FF330B2B0D
:1056900073D8DFE803F06F0610276C3D4E3D3D3DAB
:1056A0003D61636813B94FF4D771D1E731462046A5
:1056B000984704201EE0636813B940F2B711C7E7AA
:1056C0003146204698470346C3F30723012BADF824
:1056D0000400C0B254D0022B0CD100232B6100284F
:1056E000B1D023E0636813B940F2BF11B0E72046A0
:1056F00098470020EFF3108372B6227A052AD1B2C0
:1057000046D1002222722A61002BE8D162B6E6E778
:10571000D9F80030002BECD06068524631469847EB
:10572000BAF10A0FC5D100232B61042002B0BDE8F5
:10573000F08763680BB9B5218AE70D2232701988AA
:105740005869A6F8031001220024B2707271B47176
:105750000AF0D8FC2C61E8E7D8F800303146204642
:105760009847034660B100232B610220DEE74FF427
:10577000FB716DE740F2F9116AE74FF4FE7167E7DC
:1057800084F808A00028D1D1002B7FF45CAF64E737
:1057900011B940F21D215BE7002B7FF454AF62B6D4
:1057A00051E700BF980500209405002070B5144C07
:1057B0001426231D3246002118460AF0BFF803467E
:1057C0000125257400210433324604F11800C4E990
:1057D00001330AF0B3F884F824500A4A04F11C0398
:1057E000C4E906330023E362236384F83430C4F849
:1057F0003530C4F8393084F83D30136070BD00BFD7
:10580000541700209005002010B5084C2378FF2B7A
:1058100004D04FF4A0711020FAF7FCFD09F078FED7
:105820002070BDE81040FFF7C1BF00BFED040020AD
:1058300010B5034C207809F087FEFF23237010BDBC
:10584000ED040020014B187809F08EBEED04002015
:10585000014B024A1A607047980500207D550000F0
:1058600010B506490446FFF7E5FE28B9204604496D
:10587000BDE81040FFF7DEBE10BD00BF6C17002072
:105880005817002010B51346027A22B140F2992130
:105890001020FAF7BFFD0A46BDE810400146014856
:1058A0000CF037BC58170020044890F834301BB96E
:1058B00003492C300CF04ABC704700BF541700203D
:1058C000052101000346064890F83E203AB190F8C1
:1058D0003D2022B900F8353B02490CF037BC704737
:1058E000541700206D55000010B50A46037A23B105
:1058F00040F2A1211020FAF78DFD0146BDE81040CD
:10590000014807230CF005BC6C1700201346027AEF
:105910000AB1037270470A46014601480CF0F9BB10
:10592000581700201B234FF01B12838403848261CD
:105930008382C260038541B94FF4A473094AC384CA
:105940004384C261C382026170474FF42963C384F8
:1059500043844FF4A47203F12963C361C2820361DB
:10596000704700BF4801480103460846B3F860206D
:10597000B3F85410B3F84AC0F0B48A4293F87540B3
:10598000B3F85860B3F85070B3F84E5028BF0A46C9
:10599000B3F86210A3F84A20033CB142E4B228BF36
:1059A0003146012C8BBFB3F852604FF429660C4688
:1059B0004FF42964974238BF17468E4238BF0E46CF
:1059C0009445A3F84E40A3F85070A3F8526026D136
:1059D0002C1B18BF0124B3F85C20B3F85650B3F861
:1059E0004860B3F84C10954228BF154693F87420D0
:1059F000033A012A15D9B3F85A20B3F85E70BA42B7
:105A000028BF3A46AE42A3F84850A3F84C2002D132
:105A1000914200D144B1F0BC04490CF0A0BB012478
:105A2000D9E74FF42962EDE7F0BC7047652101002A
:105A3000014B1878704700BF93170020014B18786E
:105A4000704700BFEE040020094AD2E9000343403A
:105A500083EAB01181EA43214FEAF3435360054BD7
:105A6000116058434FEAF06000EB8000704700BFC0
:105A700094170020BB79379E094AD2E900034340BE
:105A800083EAB01181EA43214FEAF3435360054BA7
:105A9000116058434FEAF06000EB8000704700BF90
:105AA000F0040020BB79379E10B50A4C0948082144
:105AB000FAF7C6FED4E900231343F7D0064CFFF7EC
:105AC000DBFF2060FFF7D8FF236860600343F6D058
:105AD00010BD00BFF004002094170020174B184A97
