:020000040000FA
:1000000000760020857001001F7C020071700100E5
:10001000717001007170010071700100000000003A
:100020000000000000000000000000002D72010030
:1000300071700100000000008D71010071700100FD
:100040000975010075960200097501000975010026
:1000500009750100097501000975010009750100A4
:100060008B96020009750100097501005F96020078
:100070000975010009750100097501000975010084
:100080000975010009750100097501000975010074
:100090000975010009750100097501000975010064
:1000A0000975010009750100097501000975010054
:1000B0000975010009750100097501000975010044
:1000C0000975010009750100097501000975010034
:0C00D000097501000975010009750100A7
:1000E0002DE9F04F95B01C460592CDE901010CF0C9
:1000F000E7FC182305460F460820B64904EB4402E6
:1001000013FB0404631801EBC2026458197BD3F893
:10011000049093F80DA00491083201F1010B0FCA6D
:100120000DF1380C8CE80F0003940CF0EBFC204030
:100130000CF0C4FA80460CF083FD00900CF0C6FC75
:1001400006460CF0EBFC804508EB0B0200F2B38195
:10015000009B9B4500F3AA81B24280F28F80002A67
:10016000B6BF9319009200930CF00EFABAF1010F8A
:10017000834609D0DFF86082D8E90223B3F1FF3F5C
:1001800008BFB2F1FF3F4CD00CF024FAB7F1FF3FAB
:1001900008BFB5F1FF3F069003D0AC4279EB0703EF
:1001A0006FD2019B03210022E31A8B4261DBDFF84F
:1001B0002882D8E902319C4279EB010045D2B1F1A5
:1001C000FF3F08BFB3F1FF3F40F07F81019B0792E3
:1001D000E61A029B69EB030B0CF0FCF90930C3171C
:1001E00086427BEB030380F0E080059B079A012B9E
:1001F00000F0E580002A48D1B7F1FF3F08BFB5F114
:10020000FF3F42D0291B67EB0903042973F100006B
:1002100080F23681012973F100032ADA93460395AF
:1002200044E00028B0D10CF0D5F9B7F1FF3F08BF8A
:10023000B5F1FF3F069004D0AC4279EB070380F0A4
:10024000AA80019BC11C0122AEE7BBF1000FBDD10A
:10025000B1F1FF3F08BFB3F1FF3FB7D00698E31AF3
:1002600069EB0101834271F10003AFD2BAF1010FD2
:10027000ACD00026304615B0BDE8F08F931B00933C
:1002800072E700212B460A468EE7204649460CF0CD
:1002900015FD4FF0000B0028EBD0B9F1FF3F08BF70
:1002A000B4F1FF3F00F00C8125464F460CF02AFCCC
:1002B000039B18400CF002FA06460CF0C1FC0190BA
:1002C0000CF004FC02900CF029FC009B01999A1B95
:1002D00091420DD8A6EB030C614500F2B08090422C
:1002E000C0F0C980604580F0FA80029A32449A1AC0
:1002F000D31700200CF0A6FD06460028B9D0BAF1AD
:10030000010FD8E902236BD0BBF1000F40F08280CF
:10031000B3F1FF3F08BFB2F1FF3F00F0C080D8F853
:1003200018304FF080420120C2F8080518600CF028
:100330005FFEB8F81030002B40F09680049B8DF8DB
:10034000443000238DF8483008934FF0FF324FF0CF
:10035000FF33CDE90A238DF845A0CDF83C900E94EB
:1003600008AF0FCFDFF8748045460FC50FCF0FC51C
:1003700097E80F0085E80F00204649460CF0ACF9DD
:10038000049B0133181841F10001C8E9040130460B
:1003900015B0BDE8F08F98F81030002B069B14BF05
:1003A0000021194601222B46FEE6204649460CF064
:1003B00085FCBAF1010B18BF4FF0010B6BE7B7F1E9
:1003C000FF3F08BFB5F1FF3F00F0848003954FF079
:1003D000000B6BE7E01B0020401F0020E81E002000
:1003E000B3F1FF3F08BFB2F1FF3F19D1BBF1000FDE
:1003F00028D1B8F81030BBBBBAF1010F9ED1621EF4
:1004000069F1000305200CF01DFD00283ED088F89E
:1004100011A093E7B3F1FF3F08BFB2F1FF3F11D046
:100420000CF0ACF89FED307BD8F818104FF08042FC
:10043000002388ED027B0B60C2F80835D6E7CCF1CB
:10044000000255E7069BEA1A67F1000305200CF04D
:10045000F9FC00283FF40DAF98F81030002BCBD1F9
:10046000012388F81030C7E705200CF091FC002329
:10047000A8F81030C0E71A46029B1A44921B37E7CF
:100480002046494693460CF019FC04E7D8F818308A
:100490004FF08042C2F808A5C3F800A04EE70CF068
:1004A00067F813F09CF8C8E9020138E740F23141DF
:1004B00070200EF071FE4FF4866170200EF06CFE1D
:1004C0004FF4FB6170200EF067FE40F2BF717020A8
:1004D0000EF062FE40F23B7170200EF05DFE40F6C1
:1004E000B20170200EF058FEFFFFFFFFFFFFFFFF7D
:1004F000064B074ADB7802604FF434728280C37186
:100500000822002382710372704700BFF80E00209A
:10051000CD320100064B074A1B7902604FF4B472DA
:100520008280C3710822FF2382710372704700BF6B
:10053000F80E0020192E01002DE9F743C41D0028F4
:1005400024F00704064614BF2046002000F090FF68
:10055000071E04DA6FF00B0003B0BDE8F0830EB99C
:10056000FC42F7D4364D698928896B7B2A7B03319D
:10057000033089B280B20FF002FF011EEADBAB78D4
:10058000EA783C440334002E134424F0030403FBB4
:1005900001F114BF2046002001F000F920440EB9FB
:1005A0000028D7DB2B790446B3B1697D19446B79F8
:1005B0001944FF29CEDC0330002E20F0030714BFBE
:1005C000384600202A8AC9B201F058F9041EC1DB5E
:1005D0003C440EB9002CBDDB012000F03FFFC8B148
:1005E000A97BB9B195F82C300734002B15BF4023F7
:1005F00025234FF48172282224F00707002E14BF10
:100600003846002003F03CFD041EA3DB3C440EB939
:10061000002C9FDBAB7CE3B12B799BB10734002E20
:1006200024F0070714BF38460020A97C06F0C6F95D
:10063000041E8FDB3C4466B9002C0ADA8AE700BF4F
:10064000F80E0020012000F009FF10B1AB7B002B59
:10065000E4D1744B1B6893B1A97981B10334002EA6
:1006600024F0030714BF38460020EA7C9847041E94
:10067000FFF670AF3C4416B9002CFFF66BAF6A4B27
:100680001B688BB1297D79B10334002E24F0030758
:1006900014BF384600209847041EFFF65BAF3C4469
:1006A00016B9002CFFF656AF604BD3F80080B8F1B6
:1006B000000F15D0697D99B10334002E2B7E009375
:1006C00024F0030714BF38460020EB7DAA7DC04705
:1006D000041EFFF63FAF3C4416B9002CFFF63AAFBC
:1006E000072000F0BBFE98B1A97989B10334002E30
:1006F00024F0030714BF38460020AA7E01F0ACF9AD
:10070000041EFFF627AF3C4416B9002CFFF622AFBB
:1007100095F82500B6FA86F84FEA5818A0B1EB7F95
:10072000297FE71C27F00707194447F004074346D1
:100730003A46C9B201F0D2F9041EFFF60BAF3C44B1
:1007400016B9002CFFF606AF95F82610002959D0EF
:100750000734002E24F0070714BF384600202A8DE6
:100760000FF022FE041EFFF6F5AE3C4416B9002C35
:10077000FFF6F0AE1EB1298D38460BF095FA95F8CC
:100780002010002940D095F82430002B3CD06A8CF2
:100790000734002E02F1240224F0070914BF484652
:1007A000002092B20FF000FE071EFFF6D3AE4F44BA
:1007B00016B9002FFFF6CEAEAB7F297F95F8240047
:1007C000033727F00707194447F0040743463A4622
:1007D000C9B201F075F9041EFFF6BCAE3C4416B96F
:1007E000002CFFF6B7AE3EB16A8C95F820100832A7
:1007F00092B248460BF05EFA2B6B5BB176B12C637C
:100800000020A9E60F46B5E7002EF5D000221146DC
:100810001046EFE7002EF3D120469DE62834FBD5A5
:1008200098E600BF64050020680500206C050020E4
:100830001FB572B6184B5D6BE5B9BFF34F8F174903
:10084000174BCA6802F4E0621343CB60BFF34F8FCB
:1008500000BFFDE7B2FBF6F2DCB20133002AF9D1AA
:1008600004F110036B4403F80C2C0A2234B901A8DC
:10087000A847E2E7024600230A26EDE7631E04AE1E
:10088000DCB256FA83F3B0FBF2F602FB160030300E
:1008900003F80C0C3046E9E7F80E002000ED00E00C
:1008A0000400FA0513B5114C637B8DF80130237BEE
:1008B0008DF800306389ADF8043068462389ADF8BF
:1008C000023004F0B3F918B1E8219C20FFF7B0FF23
:1008D000207E04F0DBF908B1EB21F6E7E07D04F0BF
:1008E000CFF908B1EC21F0E702B010BDF80E0020FE
:1008F00038B5054600283ED00EF08EFC10B94FF0FA
:10090000FF3038BD0BF052FEB0F5FA7FF7D81C4C23
:100910001C486563002500F019FD2A222946A01C09
:1009200084F83850257084F82C5025630FF006F8B1
:100930001B222281628140F2032240F20113A28134
:1009400003226380A27301231F2223712282A376D4
:100950004FF40272F7236282638444F60112FB2390
:10096000E2822385EFF3108472B601F0C7F82CB948
:1009700062B62046C5E76FF01500C2E72846C0E71B
:10098000F80E0020A508000038B51446002840F0F5
:10099000B9805E4D95F83830032B00F0B080B1B1CE
:1009A00012B96FF0150038BD0139142900F2AA8080
:1009B000DFE801F00B1C1F345E67853A6A6D7F40EB
:1009C0004654598B8E9C9FA294001378AB700020E4
:1009D000FFF7B2FD0028B7BF0123022385F83830A6
:1009E0006FF00B00A8BF85F83830DCE71378EB70A8
:1009F000EDE71379002BD4D05379002BD1D0128896
:100A0000FB2ACED81A2A6388CBD91B3BE02BC8D847
:100A10002368AB603E4BA2889A80D8E713786A7946
:100A20009342BED32B71D2E713782A799342B8D878
:100A30006B71CCE713782A799342B2D86B75C6E70D
:100A40001378002BADD05378013BDBB2F82BA8D83C
:100A50001388EB822F4B92789A70B8E710786876FB
:100A600009F03EF9B3E71378002B9AD0AB76AEE7E6
:100A7000012000F0F3FC237808B1012B91D9AB736E
:100A8000A5E713882B82A2E71378AB719FE70720B5
:100A900000F0E4FC10B92378012B82D9072000F084
:100AA000DDFC18B12378002B3FF47BAF2378EB7487
:100AB0008DE71378082B3FF674AF2B7587E7138803
:100AC000FF2B3FF66EAFAB7481E71378EB767EE7D2
:100AD00013780E2B3FF665AF2B7778E723680E4A25
:100AE0002B62636853602389138170E713786B77F7
:100AF0006DE71378EB776AE71378AB7767E74FF02A
:100B0000FF3050E76FF02C004DE700BFF80E0020DB
:100B1000000F00200E0F0020180F0020F8B50D4622
:100B2000064630B329B311F0070422D1124F97F8CB
:100B30003830012B02D16FF00B00F8BD032B02D12E
:100B40004FF0FF30F9E700F08FF80028F8D0284682
:100B5000FFF7F2FC0028EEDB12F083FC3046396B25
:100B600004F008F9FFF79EFE032387F8383020468B
:100B7000E3E76FF01500E0E7F80E002010B5074C32
:100B800094F83830032B03D104F010F905F05AF82B
:100B90000FF031FD002084F8380010BDF80E002061
:100BA00050B1074B03F1140253F8041B40F8041B27
:100BB0009342F9D1002070476FF01500704700BFD5
:100BC000C4A5020010B5074B93F838403CB904F0B7
:100BD0009BF80320044900F039FC204610BD4FF07B
:100BE000FF30FBE7F80E00201505000010B5074B9D
:100BF00093F838403CB904F09BF80220044900F017
:100C000025FC204610BD4FF0FF30FBE7F80E00201A
:100C1000F104000010B5054B93F838401CB910F0F2
:100C20008CFC204610BD4FF0FF30FBE7F80E002093
:100C300010B5054B93F838401CB910F081FC2046E4
:100C400010BD4FF0FF30FBE7F80E0020024B0268AA
:100C50001A600020704700BF340F0020014B1B6852
:100C6000184700BF340F0020024B1868003818BF27
:100C700001207047340F0020F7B52E4E0446071DA3
:100C80002C48376004F0F6FF0228054606D12949B2
:100C900020460EF0C8FF284603B0F0BD042842D11C
:100CA0003378092B0AD0262B1ED03146204600F07F
:100CB00043F8B0F5817F2DD3722112E005213E204B
:100CC0000EF084FF0028F0D1F378327901A943EACD
:100CD00002236846ADF800300FF02CF90028CFD081
:100CE00053210820FFF7A4FD1A213E200EF06EFFCD
:100CF0000028DAD17368C3F30F23ADF804306946D6
:100D0000112301A88DF806300FF038F90028B7D06C
:100D10006521E6E70028B3D0A17820780EF056FFD1
:100D20000028B8D1ACE70828B5D1024920460EF01A
:100D3000A9FFB0E7380F00202DE9F8430B78013BFD
:100D400005460C46832B00F29882DFE813F09A00E8
:100D50009E00A200530196021B01210127012D01D3
:100D600033013701390149014F0184009602A70080
:100D70009602AB003D0143015D01630157019602FC
:100D8000690196027C01AC01B201B8019602BE0174
:100D9000CA01D0019602FD010B02330211022502A5
:100DA0002D0217021F026E027402820288023902AB
:100DB0003F025D0245029602960296029602960254
:100DC0009602960296029602960296029602960263
:100DD0009602960296029602960296029602960253
:100DE0009602960296029602960296029602960243
:100DF0009602960296029602960296029602960233
:100E00009602960296029602960296029602960222
:100E10009602960296029602960296029602960212
:100E20009602960296029602960296029602960202
:100E300096029602960296029602960296029602F2
:100E400096029602960296029602960296029602E2
:100E50004B02510257020E23B1F803200B7042F2ED
:100E600083039A4209D106236370667802363246BC
:100E7000214628460EF0CEFD5AE03521C720FFF767
:100E8000D7FC0C230B700823EEE71A230B70012309
:100E9000EAE73E230B700223A370E6E73E230B70C4
:100EA0000B23F9E7292000F041FA28B13E232370F3
:100EB000222363702923EFE70A2000F037FA3E234C
:100EC00005F1080204F108012B70A0B30A23AB70EE
:100ED000E378EB70A3882B71A3881B0A6B71A3794D
:100EE000AB71E379EB71A368AB608B889380D4F826
:100EF0000E30C5F80E30638A6B8263696B61238B99
:100F00002B83638BAB76638B1B0AEB76A38B2B77E0
:100F1000A38B1B0A6B77E38BAB77E38B1B0AEB7717
:100F200094F8203085F820301F226A70023296B281
:100F30003046BDE8F8830123AB70E378EB70A388FB
:100F40002B71A3881B0A6B71A379AB71E37903F052
:100F50000103EB71A368AB608B889380638BAB73E9
:100F6000638B1B0AEB73A38B2B74A38B1B0A6B7411
:100F7000E38BAB74E38B1B0AEB7494F820302B7576
:100F80001322D2E73E230B7004234B70142383E714
:100F90003E230B700C234B7004237DE73E230B7024
:100FA0000A234B70032377E73E230B700D234B700E
:100FB000052371E705232370042355E70823FAE787
:100FC00030230B7003234FE73E230B700B234B7032
:100FD000072361E73E230B7006234B700C235BE76E
:100FE00013230B708B789B0001333DE757230B7065
:100FF000022339E73E230B700D234DE73E230B7090
:1010000001234B70112347E73E230B7006234B70DF
:10101000122341E73E230B7009234B7013233BE758
:101020003E230370242000F081F9002815BF2423FB
:101030000E2313260F263246AB70A11CE81C0EF0BF
:10104000E9FC721C71E73E230370252000F06EF965
:10105000C0B12523AB70D4F80230C5F80330D4F802
:101060000630C5F807306389A5F80B300A26F01C56
:10107000E27A04F10C0128440EF0CCFCE27A013251
:10108000324452E70F23AB706388A5F8033023790D
:101090006B716379AB71A379EB71A37A2B72E37AED
:1010A0006B720726E3E73E230B7003234B7010237C
:1010B000F2E63E230B7005234B702023ECE63E2323
:1010C0000B7009234B702123E6E63E230370262094
:1010D00000F02CF9002815BF262318231726132605
:1010E000A9E73E230B7004234B702723D4E63E234D
:1010F0000370282383708146D1F8023049F8033FFA
:101100004FF000084646AA795FFA88F39A4205D85C
:10111000721D92B2002A3FF4A8AE06E7B21D331D3D
:10112000A118A25849F8032009EB03008B8883809B
:1011300047793A460637063106303E440EF06AFCDF
:10114000B6B208F10108DEE73E230B702A2000F05A
:10115000EDF818B12B2363702A239DE61D236370DD
:10116000192399E63E230B7007234B701A2393E64D
:101170003E230B7014234B7022238DE63E230B700D
:101180000B7C5B000F334B701D2385E63E230B70F9
:1011900003234B701E237FE63E230B700B7D5B0009
:1011A00013334B701B2377E63E230B7003234B70E6
:1011B0001C2371E63E230B7005234B701F236BE647
:1011C000FF230B700B234B70A22365E6FF230B70EC
:1011D00005234B70A3235FE6FF230B700D234B7099
:1011E000802359E6FF230B700D234B70822353E6B7
:1011F000FF230B7002234B7083234DE6FF230B70FC
:1012000004234B70842347E6FF23037081238370FC
:10121000D1F80330C21C03F1280153F8040B42F843
:10122000040B8B42F9D129227FE63E230B700C235D
:101230004B70232330E6124B1B78002B14BFFF2387
:101240003E230B704FF00E034B7014BF85233723E2
:1012500022E63E230B700A234B7035231CE6084B15
:101260001B78002B14BFFF233E230B704FF0FE03AF
:101270004B7014BF86232B230EE640F26221FDE55E
:101280003C100020074B4FF0FF3141F6FF72C3E9DD
:10129000001205490022C1E900221F21C3E9021200
:1012A000704700BF00050020401000203F280CD8E8
:1012B00001380B4BC0F3421200F01F0053F82230EC
:1012C00023FA00F000F001007047FF2806D04038F4
:1012D000C0F34212034B00F01F00EFE701207047FC
:1012E00000050020401000200146074B00684968B7
:1012F0001A4603C240F48C221A6041F0107242F484
:10130000FF625A60704700BF000500200246024B92
:101310000068516803C37047401000200246024B2A
:101320000068516803C37047080500200138064B68
:10133000C0F3421203EB820300F01F009B6823FA04
:1013400000F000F00100704700050020014B18601C
:10135000704700BF4810002007B5FFF793FF0FF05C
:101360000CFB044B1B6813B101909847019803B024
:101370005DF804FB481000200B880288F0B5C3F329
:101380000E049EB204F11803C57CC35A02352A44E8
:101390002B4497B213FA82F3013B4288B3FBF7F375
:1013A00013FB07439BB29A42044A93BF22EA060307
:1013B000324013439BB20B80F0BD00BF0080FFFFA3
:1013C00008B54B1E062B04D84FF4D1711520FFF73A
:1013D0002FFA0A4B994202D940F2A311F6E719B944
:1013E00000B10160084608BD28B103680022C3E9C6
:1013F00001211A1D1A600431F4E700BFFAFFFF7FD4
:1014000010B5114B00EB41041A786389B3FBF2F37A
:1014100003FB0223013A1A44B2F5706F027928BF28
:1014200000231A448378B2FBF3F0194403FB102025
:10143000091AB1FBF3F003FB101313446FEA4343A3
:101440006FEA5343638110BD4C100020024B03EB45
:1014500080004160704700BF4C100020034B03EB3D
:1014600080004068003818BF012070474C100020F1
:101470002DE9F04F10F0070A85B0054604D040F280
:1014800061111720FFF7D4F9554F07F14C06B1460B
:101490000446B0464FF0010B57F8043B8DF80BA003
:1014A0003BB101A898479DF80A30082B01D9E821E3
:1014B000E7E79DF80B1081BB05B13160B94506F136
:1014C0000406E9D12DB3DFF81CE100238EF80030CB
:1014D0001E46122258F82200013A60B190F804A08A
:1014E0008178BAF1FF0F66D14FF000078E42077185
:1014F0003CBFCEB20123511CECD10BB18EF8006081
:10150000122640F6FF6A58F82670002F65D1013E7A
:10151000F9D2601B05B0BDE8F08F9DF80AC0BCF1A0
:10152000020FE64601F1050238BF4FF0020E0EF140
:10153000FF3004EB42040444CEF100002040BDF82B
:1015400008406444013CCCF1000C04EA0C04B4F5FE
:10155000803F4FEA420301D3F82192E775B1C31AE5
:10156000336099701C8083F803B09DF80C201A71C9
:10157000019A1A814FEA124CA3F806C004FB010439
:101580009CE758F82C90B9F1000F06D099F804B0F8
:10159000D34504BF99F802904F440CF1FF3CBCF1D5
:1015A000000FEEDA3944FF29A0D90BB18EF80060A4
:1015B00040F2271165E794460027F0E707EB410367
:1015C0003846A3F80AA0FFF71BFF09F10109BB7811
:1015D0005FFA89F18B42F1D899E74FF00009F6E7FD
:1015E000501000204C100020034B03EB8000006DD6
:1015F00000B18078704700BF4C100020F8B54FF65E
:10160000FF730380184B03EB81010546086DB8B1E9
:1016100086780379B3FBF6F206FB1233DBB2194688
:101620000A1D00EB4202B2F902705488002F09DB58
:101630000131B1FBF6F206FB1211C9B28B42EFD1B8
:101640000020F8BDFF29FBD0C4F30E03C4782B8023
:1016500024B94FF4D5711720FFF7EAF85380BDE89D
:10166000F8400EF06BBE00BF4C1000201D4B03EB8A
:10167000810170B50C6D054644B3030404D54FF4E5
:10168000DC711720FFF7D4F8014620460EF038FE33
:10169000FF28014604D02046BDE870400EF04EBE43
:1016A000A078B5FBF0F300FB1353DBB219460A1D1B
:1016B00004EB4206B6F90260002E09DB0131B1FBF2
:1016C000F0F200FB1211C9B28B42F0D1002070BDC4
:1016D000FF29FBD08B4204EB42021CBF0023E370C6
:1016E0005580D8E74C100020094B03EB810110B561
:1016F0000C6D014620460EF003FEFF28014604D083
:101700002046BDE810400EF019BE002010BD00BFFD
:101710004C100020F8B5104B03EB810107460C6D0F
:10172000014620460EF0ECFDFF28054611D0E68864
:10173000238953EA064606D0014620460EF0FEFDF8
:1017400001463846B04720462946FFF759FE00209B
:10175000F8BD0520FCE700BF4C10002038B50E4B4B
:10176000827903EB82030446186D08B9052038BD61
:101770008278E1799142F9D24B1CE37100EB41038D
:101780005D89B3F90A30002BF3DBA5800EF0D6FD9E
:1017900020600020EBE700BF4C10002070B504462D
:1017A00010F003000E4603D04E211820FFF740F83A
:1017B000FFF706FE054624B1034831460460FFF7F3
:1017C000FFFD284670BD00BFE81000202DE9F3475B
:1017D0001C4C9DF82CA0904622681E4607469DF89A
:1017E00028300D461AB960211820FFF721F81A4653
:1017F0000921404601930EF005FC52461FFA80F97C
:10180000092130460EF0FEFB19FA80F120680EF037
:101810004CFD019B386018B9286002B0BDE8F08724
:1018200000EB09042C603868414609220EF0AEFB3B
:10183000286853460922314602B0BDE8F0470EF051
:10184000A5BB00BFE810002070B50E4604460EF0A0
:10185000ECFB054630460EF0E8FB044B2A18214607
:101860001868BDE870400EF044BD00BFE8100020CD
:10187000014B18680EF00DBDE81000201F2AF8B5C6
:1018800004460ED89200033222F00303B3F5803FE2
:101890002ED2194DB4B1A00711D05F210920FEF757
:1018A000C7FFFF2A4FEA420304D9FF329A42A8BF7A
:1018B0001A46E8E77C2BB8BF7C231A46E3E7297079
:1018C0006C602B8122F0030201EB81031204D8002B
:1018D00001276B68120C0025EEB28E4200D3F8BDD2
:1018E00014B126181F705E60104401352833F3E7E9
:1018F0004FF0FF30F3E700BFEC10002038B5144A7A
:10190000147853680021C8B2844203D8AB2109205F
:10191000FEF78EFF1846013105782833002DF2D0EE
:101920000021817001241289447044688161C16181
:10193000920800F12001051D21F8022B994245F87B
:10194000044B1444F8D100234361037038BD00BF39
:10195000EC1000200A4B1B89B3F5FF7F4FEA930080
:1019600006D25A089B1A9BB2984238BF1846704755
:10197000B3F5EE6F01D8FF22F4E740F27263F3E7AC
:10198000EC1000202DE9F8434B7880460C4602F01D
:10199000040602F0FB07D3B1DFB12E4BD4F804905C
:1019A0001D89B7BB01236370AD08A761E76104F12E
:1019B00020034A46211D04F1280023F8025B9842C7
:1019C00041F8042B2A44F8D10023636101E0002F81
:1019D000E3D0FF23A370002E18BF0226A3191B7D9E
:1019E000032B03D1022F1CBF0136F6B2A31901222B
:1019F0001A7506F10C0204EB8606002324F8123057
:101A00007268A370C8F80020A8F804304046BDE80A
:101A1000F883002114226170A0180DF08FFFB5F536
:101A2000FF7F0FD26B08ED1AADB209EB0502C4F8C7
:101A300004902584A2606384C4F80C90A58422617C
:101A4000E384C6E7B5F5EE6F4FF0FF03EBD940F244
:101A50007265EAE7EC1000202DE9F84305460C46D4
:101A6000F720052191460EF0CDFA061E22DB1DB9A6
:101A700014FB06F0BDE8F88315F0030703D09821A6
:101A80001920FEF7D5FEDFF83480C8F81050A8F80A
:101A90001460A5B2BBB29D42EAD9B8F814C0D8F818
:101AA00010004B4607FB0C000522F7210EF06EFAE2
:101AB0000137EFE74FF0FF30DCE700BF00110020F7
:101AC00007B5CDE900230B4603490246081D0EF079
:101AD0006CFD03B05DF804FB1811002013B5064C33
:101AE000CDE900230B46024604F1080104F10C0085
:101AF0000EF05BFD02B010BD18110020134B012247
:101B000000214FF0FF309A60C3F80012C3F80803B9
:101B1000C3F80015C3F804259A60C3F80803C3F896
:101B20000015C3F804250A490A4A03F580334FF427
:101B30000040C3F80825C1F88000BFF34F8FBFF302
:101B40006F8FC1F88001C3F80825704700F000408E
:101B500000E100E00000F63F8C46342300B50CF8AD
:101B6000033B054B8E4607CBCEF80300CCF80410A0
:101B7000CCF808205DF804FB3411002010B5154C9A
:101B800009F062F908F03CFA636A608C002198471A
:101B9000237E9BB9104B628C93E8030004F096FF00
:101BA000E36A188804F0BEFE636B94F8301094F872
:101BB00031009847002384F8383010BD94E80700BE
:101BC00004F10C0383E80700044904F1190010F044
:101BD000C5FADFE72811002050110020591B000032
:101BE000034B93F8383003B97047FFF7C7BF00BF06
:101BF0002811002008B54FF48E610620FEF718FE6C
:101C000008B5094B93F83820022A07D1DA7A42F056
:101C10000102DA72BDE80840FFF7B0BF40F231219F
:101C20002720FEF705FE00BF2811002070B5354EB5
:101C300096F8283005460BB1012825D001292AD86D
:101C4000336C28469847044628B396F8303013BBC7
:101C500096F8283013B31DBB96F84420D106C2F382
:101C600000152DD4B26CF16C1278C2F3001201B3DE
:101C700082F00104BBB1738F9A0715D5F36BDC7842
:101C8000023C18BF012407E0738F1807D6D5F36B09
:101C9000DB78022BD2D10124204670BD012DDBD090
:101CA0000024204670BD738F002BF4D1002DF3D09B
:101CB000F6E7B6F850100029DAD0002BF3D0DAE7B7
:101CC000F16B0A7802F00302032A09D1CA78022ACA
:101CD00015D0706D0EF029FA96F828300546C1E748
:101CE000706D0EF022FA38B903F08CFA80F0010022
:101CF00096F82830C5B2B5E796F82830B2E7002547
:101D0000B0E700BF2811002070B5294CE56AA26C2D
:101D100095F89430A265064694F85C000BB1043047
:101D2000C0B295F875100EB9FF2837D008F070FDD5
:101D300095F8943063B3206E09F098F994F8283040
:101D4000D5F8F020216EA06D6267003B18BF01231B
:101D500084F87C30D5F8F430A36708F0F5F85EB964
:101D600095F875302A8F033B012B94BF2820002063
:101D7000104480B209F0E8F9A88E08F00BFD95F840
:101D80007410002009F048FA022384F8383070BD3E
:101D9000A06D09F06BF908F033F9E0E795F87420CD
:101DA0008A42C7D008F034FD95F89430C2E700BFEE
:101DB000281100202DE9F0473C4C94F83830012BD5
:101DC00082B06CD1E56A5FFA83F9E36B95F8842001
:101DD0001F7893F801A00646884607F0030772B102
:101DE000638F002143F00403638785F88410636ADE
:101DF0000420984794F828300BB185F88690032F7B
:101E000033D0BAF1000F2CD0022385F88A3095F830
:101E10009430EBB1E36A94F8282093F87530003AD7
:101E200018BF0122013BDBB284F87C20D5F8F020FA
:101E30006267032BD5F8F420A26794F85C2033D8AE
:101E40001B490020CB5C00901A49012008F002F8E1
:101E500016B9B8F1000F17D102B0BDE8F047FFF78F
:101E60008DBE012385F88A30D1E795F88A303BB9D9
:101E7000638FE16B43F0020363870220636A984734
:101E8000032385F88A30C2E731463046FFF7CEFE9D
:101E90000028E1D102B0BDE8F047FFF735BF40F2BE
:101EA000DC412720FEF7C4FCFFF7A4FE2811002028
:101EB000D8A502008C11002070B5804EF46A96F807
:101EC0005C3094F8942082B000218DF805100AB19E
:101ED0000433DBB294F8741010B9FF2B00F0B28019
:101EE000FF2008F095FC94F88A30032B00F2E18083
:101EF000DFE803F0021C746496F8BA30ADF80630DF
:101F00006F48A4F8643003F057F9002840F0A0802F
:101F1000706D0DF105020DF106010EF0ADF8F063E4
:101F200020B194F8CF30002B00F0A7806548F06313
:101F300094F88B200378D20003F0030502F0080226
:101F400003F0F303134394F88C20920002F0040290
:101F5000134303F0EF03032D037051D1C278022A1B
:101F600006D0706D0EF0E1F8002851D1F06B0378C7
:101F7000037094F8933013B14378002B4DD109F0DE
:101F800075F808F03DF803F05DFF08B1032D70D03F
:101F9000E08E08F0FFFB94F87510012009F03CF981
:101FA000F36B494A18889978A6F84400012386F80B
:101FB000BC30917086F8383002B070BD404803F0F4
:101FC000FBF8002870D0F06BC3781B2B14D10121D3
:101FD00004F1100008F05AFCF06B0DE0B4F8643026
:101FE000706DADF806300DF105020DF106010EF031
:101FF00043F8F063002852D0012386F8BB3097E7FE
:10200000706D0EF092F818B903F0FCF80028ADD10D
:10201000F06B037843F01003AAE7306E09F026F85E
:1020200096F82830D4F8E820F16B306E7267B3FA76
:1020300083F35B0986F87C30D4F8EC30B36707F0A3
:1020400083FFA0E794F875308B427FF449AF4AE7ED
:10205000738FF16B726A43F480734FF480707387EF
:102060009047F06B012184F88510C3781B2BC3D1F6
:10207000AEE701200AF04EFC8AE79DF8053033B147
:10208000BDF806204270012386F8BB3050E703807C
:102090008370F06B01210FF0ABFFF06BF0E740F2C3
:1020A000D1212720FEF7C4FB40F2DB212720FEF7D9
:1020B000BFFB40F2E9212720FEF7BAFB28110020E0
:1020C00064110020B01100206C11002070B50D4B80
:1020D0000D4C0E4A1A6094F838301BB1ED212720C0
:1020E000FEF7A6FB03F0FF0206460D46227604F03B
:1020F000E5FC012104F188000FF07AFFA664256653
:1021000070BD00BF7005002028110020782A000053
:1021100010B5074A92F8383013B10C24204610BD90
:1021200003F0FF04147604F0C9FC204610BD00BF84
:1021300028110020024B012283F8BD20704700BF08
:1021400028110020F0B5BB4C85B002AD85E8030036
:1021500094F838000A9E002840F08281002A00F09E
:102160007F81002B00F07C81002E00F0798100F04F
:10217000FF0184F8BD1084F8301084F8BE1084F894
:10218000311084F8BC1084F8BB106187618495E835
:102190000300236404F1280383E80300E56A626214
:1021A000666308F0D3FB07F02BFF95F97C0008F07D
:1021B000FBFCA86A08F03EFF286A08F0FBFC95F8D3
:1021C000A40008F001FD94F82800002800F0EF803A
:1021D000E36A93F8C231002B40F0C18095F8752076
:1021E0009D21012008F0D8FD934B944E186808F00B
:1021F00027FF6B69D5F8FC10D5F80021D5F8F80059
:102200006365D5F80431AF69C4F8C0700FC6E36ADE
:10221000D5F8081193F88E20C4F87D10D5F80C116C
:10222000C6F80D10A2F12601012910D993F88F10DC
:1022300026290CD0213A012A40F2E680242900F018
:10224000C68093F87460032E08BF042616E094F845
:102250002820002A7CD093F89A2293F874606AB1FF
:10226000F31E012B40F2DD80D31E012B40F2D980FA
:10227000012E03D0012A14BF0226012605F13C07D6
:10228000314638460FF0D3FF31460FF09AFBB5F8D0
:10229000482095F875100346934228BF13463846E8
:1022A00084F8BA300FF090FF95F8751095F8947097
:1022B000B5F85060042908BF03210FF082FB0FB965
:1022C000043080B2B04228BF3046C6B284F8C46041
:1022D00003F0B8FD002863D194F8280084F85C600E
:1022E00000283FD195F89330EBB195F8743095F80C
:1022F0007E10D5F8E8206267013B0029DBB2D5F8F3
:10230000EC20A2674FF0010118BF0420032B84F8D2
:102310007C1000F2AA804A4A0021D35C0091FB2283
:10232000464907F097FD0120FFF7C6FD0023C4E9E9
:102330000033A360AB6F2988B5F8880095F8A42016
:102340006080218022710BB101221A6005B0F0BDBE
:1023500093F80A2293F87460002A81D18EE708F07E
:10236000E3FA3BE795F89430B3B195F87530D5F8BA
:10237000F020D5F8F410A167013BDBB20120032B5C
:10238000626784F87C0070D82D49CB5C00210091F5
:1023900032462A4907F05EFD0120FFF7B5FCC5E78C
:1023A00003F056FDB04238BF3046C6B294E795F808
:1023B0007420234B03EB42039988224B01F5FA71F9
:1023C000A3FB013189096E3108F0E6FC0CE794F8B3
:1023D0002820002A3FF435AF93F82E2193F86D1092
:1023E00093F8746002EA01035A071AD413F0010249
:1023F0002AD19B077FF542AFF31EDBB2012B10D928
:10240000012E18BF022639E72429E0D094F82820AD
:10241000002A3FF416AF93F82E2193F8746050070A
:1024200001D504262AE712F0010313D191077FF5A5
:1024300025AFE1E728110020700500208C11002055
:10244000D8A50200D34D6210033E012E8CBF164664
:10245000042613E7033E012E8CBF1E4604260DE71B
:102460004FF4BE712720FEF7E3F9FFF7C3FB00BF6F
:1024700008B5124B93F8382092B193F8282022B96E
:1024800093F83830012B14D108BD93F83820022A74
:102490000AD1DB6AD3F8D801BDE8084008F020BEB5
:1024A000BDE80840FFF76ABB40F213212720FEF782
:1024B000BFF940F20F212720FEF7BAF928110020BA
:1024C000FFF75CBB014B1876704700BF2811002056
:1024D000014B93F8BC00704728110020034B93F880
:1024E000BB0010B9588CC0F3003070472811002091
:1024F000024B588CC0F3C020704700BF2811002049
:10250000014B93F8BE007047281100202DE9F043DD
:102510003B4CA56DE76A95F8018010F0010983B086
:102520000E4635D00023800784F8C5301ED5E36CF5
:10253000002B5AD0B4F850201846294603320DF02B
:1025400069FA0DF1020201A9A065D4F8C0000DF0EE
:1025500096FE01980DF079FE012230604146D4F8D4
:10256000C0000DF021FEB9F1000F1BD0D7E93C32BD
:1025700097F88C10013342F100020129C7E93C327F
:102580000CBF0023012387F88C3003B0BDE8F08333
:1025900094F8C530032B2DD8DFE803F0240702029E
:1025A000830718D403B0BDE8F0838207FAD5E36C43
:1025B000DBB1B4F850202946033218460DF02AFA50
:1025C0000346D4F8C000A3650022414603B0BDE82D
:1025D000F0430DF0E9BDD4F8C00003B0BDE8F0430E
:1025E0000DF049BE8107DDD5A1E740F2CE4127209D
:1025F000FEF71EF940F27A412720FEF719F900BFD5
:10260000281100202DE9F04FBC4C94F83820E66AE0
:1026100085B00023022ACDE9023340F01B82638C8F
:10262000884613F04001074606D1636A4020984768
:10263000638C43F040036384A26D5578002F00F053
:10264000A98092F8009096F89430C9F3C00B002B43
:1026500040F05C81A9B2A4F85010002940F06581D7
:102660000023E364638C96F88B10C9F3800243F473
:1026700000739142638400F0F380D4F82CA09AF8A0
:102680008A20DAB1022A00F09C8194F828300021D7
:102690008AF88A1023B19AF88630002B40F087819F
:1026A0009AF88530002B40F064819AF88B30012B2A
:1026B0000CBF002301238AF88B30638C96F88C20A2
:1026C00043F400635A4563844FF0000A09F003099C
:1026D00000F0CE8003F0B6FB0546002800F02F8105
:1026E000B9F1030F00F03E8196F893304FF00009E6
:1026F0004D46002B6CD1B8F1000F40F0908094F85B
:10270000BE100120FFF792FA002840F08880B9F14E
:10271000000F40F0E680FFF7CFFBBAF1000F09D0C1
:1027200094F82830002B40F0D180B4F80930013300
:10273000A4F80930002F00F08880B4F8053000229A
:102740000133A4F8053084F8BE206D4804F0D8F8B1
:10275000029830B10DF079FDE16A0022027203F0B7
:10276000CDFA039B33B1E16A00221A720C2203985E
:1027700003F092FA002D6ED1638C1B0607D4636AB6
:10278000294680209847638C43F08003638405B01A
:10279000BDE8F08F96F89420002A40F0CC8043F4F6
:1027A0008063638494F8BE30013384F8BE3096F8B9
:1027B0007530033B012B39D903F044FB002835D198
:1027C0004FF000094D46CA4696F89330002B92D040
:1027D00094F8283096F87E20B3FA83F35B0984F8E6
:1027E0007C3096F87430013B002ADBB2D6F8E82042
:1027F000626718BF0420D6F8EC20A26708BF00204B
:10280000032B00F22C813F4A3F49D35C0022009207
:10281000FB2207F01FFBB8F1000F3FF470AF08F088
:102820004FFDB9F1000F4BD1012576E701200AF0E9
:1028300071F807F0BFFF0428C2D11B2D4FF000092B
:1028400094BF00250125CA46BEE7B4F8073001331E
:10285000A4F8073079E7FFF791F905B0BDE8F08FEC
:1028600096F88C205A45BA4609F003097FF432AF36
:10287000B9F1030FD4F82CB063D143F480536384CF
:10288000638FA16D43F00103012063878BF88400FF
:10289000636A98479BF88C30013B18BF01238BF883
:1028A0008C30002D3FF416AFDBF8F0300133CBF85D
:1028B000F030DBF8F43043F10003CBF8F43009E7F3
:1028C00003A903204D46FFF721FE26E7B4F80530A3
:1028D000B4F80710B6F888200B4313433FF42AAF2F
:1028E00023E703A90120FFF711FE4046FFF7E4FAB2
:1028F00003A90220FFF70AFE0FE700BF28110020FE
:1029000050110020D8A502008C11002007F094FB84
:1029100000287FF49FAE002D46D096F88C305B45A2
:1029200000F08480A9B2A4F85010D4F8C0000DF0D3
:102930001DFCE06496E607F0BFFB638C2FE7814641
:1029400042E7B9F1000FA5D0002D4CD19BF88C3097
:10295000013B18BF0123A9468BF88C3003F072FAB3
:10296000002531E701204FF0000909F0D3FF4D4663
:102970002AE700218AF8851002F02EFC00210028A9
:1029800074D0638F43F0080363870820636A984715
:10299000DAF8E8300133CAF8E830DAF8EC3043F11D
:1029A0000003CAF8EC3080E6A4F8505058E6638F74
:1029B0008AF8861043F0100363871020636A9847F3
:1029C0006EE6606D02A90DF07AFB002849D0DAF8B6
:1029D000E8300133CAF8E830DAF8EC3043F10003AC
:1029E000CAF8EC3051E643F4805363849BF894B00A
:1029F00007F0E0FE042894F8C43007D1BBF1000FC3
:102A000014BF1B221F22934228BF13469D4213D896
:102A1000E36C002B3FF45EAE94F8BD30C3B1636A43
:102A20000021202098474FF0000997E7012384F800
:102A30003130FFF7A3F8AAE694F83030012043F0D4
:102A4000100384F830304FF0000909F063FF85E788
:102A5000B94683E740F25F512720FDF7E9FEFFF713
:102A6000C9F840F214412720FDF7E2FE40F22B4165
:102A70002720FDF7DDFE00BF011C00000526000039
:102A8000B51D0000E11B000008B540F2FB31062037
:102A9000FDF7CEFE2DE9F843002800F0E180044662
:102AA000072900F2D380DFE801F0AB2424A7D11F6F
:102AB0009ECD0146204610F0B9F9D4F8443100F11A
:102AC000E5059D4240F2C780E81A322838BF32201F
:102AD00003210CF00DF8C4F844510646204610F0CE
:102AE0006EFA002E00F09D802046BDE8F84310F0FD
:102AF00067BA10F0EAF9D4F81421002305460E460F
:102B000084F8403184F84931BAB150EA010314D055
:102B1000CA00C3001B1A42EA507262EB0102D4F8E9
:102B200030115B18D4F8341142EB0102D4E954019E
:102B3000834272EB0103C0F09180022304F5A07779
:102B400084F8483138460BF0A7F9002800F08C8053
:102B500094F8603103F0FF01002B6BD1D4E95602E9
:102B60006FF000439A4208BFB0F1FF3F13D02046F8
:102B7000D4E9549810F05AF9D4F85831D4F85C21BB
:102B8000B3EB090300F1E50062EB08021B1A62F1E6
:102B90000002002A4BDB94F8100139460BF06EFA64
:102BA00000286BD0D4E95401D4E94A32834272EB55
:102BB00001071FD255EA06071CD0C01A61EB0201BB
:102BC00033462A460CF01EFE05FB01F100FB0616FB
:102BD000D4E94A21A5FB00535519334443EB0103C3
:102BE000C4E94A5306E090F810010BF02FF90023D6
:102BF00084F83831BDE8F883BDE8F84308F072BBCB
:102C000005F0E4FDD4F84401CB380BF0A1FE80B30D
:102C1000204610F098F900283FF44BAF204610F002
:102C2000CEF9D4E95423C4E94C23BDE8F883204607
:102C300005F0D4FD94F810010BF008F9002384F896
:102C40003831AFE7FF213020FDF7F2FD40F20311EC
:102C50003020FDF7EDFDC4F84451DFE701236DE7B7
:102C6000E2213020FDF7E4FD40F2A4613020FDF7C1
:102C7000DFFD40F25D213020FDF7DAFD4FF4D56134
:102C80003020FDF7D5FD00BF2DE9F04F04468BB095
:102C90004FF00008029390F875B0CDF818800E46FA
:102CA00015460EF0A9FC94F8C3310B2B00F21184E9
:102CB000BB4F37F8139094F88F304844442B1FFAD9
:102CC00080F914D094F88E20442A10D0A3F10E027B
:102CD000B2FA82F252090392002D40F0B88294F8C1
:102CE0000422032A00F002830123049306E0002D4E
:102CF00000F08B800123CDF810800393B4F850527C
:102D0000B4F888A0751B2DB2A6EB0A0A002D0FFAA5
:102D10008AFA04F50878C0F29082029BA14A1278E0
:102D200002F0FF005AB9074694F80422032A00F281
:102D3000EC83DFE812F03D01FD00C3017300059351
:102D400009F028FC059B0028EDD0B4F8F021012AF9
:102D500040F21C8394F80422022A00F0178394F8AE
:102D60001A02002840F0128394F87E20002ADAD15B
:102D700094F8C3210B2A00F2AC8337F8129094F830
:102D8000042209F5C869012A1FFA89F940F059831C
:102D900094F89220032A40F08F83D4F8FC01E76A6C
:102DA00007444946059309F0B9FB02463846D4F872
:102DB000F871C4F8F821D21BD4F80072494602FB1E
:102DC00007F709F0ABFBD4F80822C4F80802801A10
:102DD00007444946E06909F0A1FB94F87E20059B71
:102DE00002B10230B4F8DC21D4F800125244C943D5
:102DF000521B0A44D4F80C12C4F80C02401A00FB0F
:102E00000277012284F81A228EE794F80432032B09
:102E100000F071820123CDE903336FE7E169029885
:102E200001FB05F2002800F01582B4F8DC0100284F
:102E300040F0108284F81B02D4F80CC20CFB15255C
:102E400094F88E200695262A00F0A28294F88F200E
:102E5000262A00F09D82CBB3C0BBD4E98E23D4F8E0
:102E600040E2D4F8441272458B4180F0438394F8D9
:102E70007530DA1E012A40F2D682184608F0ACFC02
:102E8000DFF82491D4F8401200F52340A130A9FBCB
:102E9000003ED4E98E2394F875008439A0F1030C28
:102EA0008A1A1544BCF1010FA5EB9E1540F2278349
:102EB00008F092FC00F2E731A9FB0131B4F8DC0123
:102EC000D4F80CC289092944103906918244ABF127
:102ED00003030CFB0AFADBB20AF1300A012B4FEABA
:102EE0004A0A40F29D82584608F076FC2E4B00F5C7
:102EF0002340A130A3FB00304FEA9019584608F058
:102F000063FC0AF174039944264B4844586094F8D2
:102F10007E30002B42D0254AE069514606AB0EF0C8
:102F200095FD204B84F81B02069A5868E1692CE154
:102F3000D4F80C02E269D4F80832D4F80012B4F8DC
:102F4000DC9194F875B0121A02FB05F5D4F8F8215B
:102F500006953033CA4402FB0139C943258E8A44A1
:102F6000ABF1030300FB0A99012B4FEA490905F174
:102F7000740540F2B581584608F02EFC0A4B00F566
:102F80002340A130A3FB00304FEA901A584608F0C6
:102F90001BFCA944034BD14448445860069A8BE07B
:102FA000ECA50200F0110020D34D6210F4110020B6
:102FB00094F8751094F8D6010EF02BFD0546E06AE2
:102FC0004946284409F0AAFA4946C4F80802E069CB
:102FD00009F0A4FA94F87E30002B40F0D581C4F8B3
:102FE0000C0207A908A808F073F9079B0093D4E91D
:102FF0009201DDE908230BF0F5FF94F87530059395
:103000008146184608F0E8FB059BDFF8A0A3033BC8
:1030100000F55F40012B00F1410094BF2821002101
:10302000AAFB003001EB90118031012220460FF005
:103030005BF9D4F85432E26A94F87500069305926D
:1030400008F0CAFB4AF2A13B5844AAFB0031069B98
:10305000059AA3F19400D4F808321044C01A284409
:10306000A0EB090003F1300994F87530258EDA1EC3
:10307000A0EB9110012A06904FEA490905F1960547
:1030800040F22B811846059308F0A6FB5844AAFB92
:10309000003A059B4FEA9A1A184608F095FBA94496
:1030A000C14B069AD14448445860D4F85432D31ADC
:1030B000B3F5917FC0F01482E16966E0E36AD4F869
:1030C000FC014946184409F029FA4946C4F80802A7
:1030D000E06909F023FA94F87E30002B40F0528129
:1030E00094F87550C4F80C02284608F075FBDFF818
:1030F000BC9200F55F40033D012D00F14100A9FBAA
:10310000003094BF2821002101EB90118031012271
:1031100020460FF0E9F8B4F8DC31002B00F0A28073
:10312000D4F8FC31E26AD4F8080294F875501344DC
:103130001B1AE91E0693C9B2D4F8F831D4F800225C
:10314000B4F830B002FB030A0AF1300A01294FEA51
:103150004A0A0BF1740B40F2C680284608F03CFB8B
:10316000924B00F52340A130A3FB00304FEA9019A9
:10317000284608F029FBDA448B4B069AE169CA44D9
:1031800050445860012384F80432D4F80C526FF490
:10319000AD734D1B1D44D21BD4F84872D4F84C3289
:1031A0000692854228BF0546BA1843F10003C4F8C9
:1031B00034320023C4F8302284F82032C4F8D851C5
:1031C00004F13C000EF0FEFFD4E98C232844C4E94E
:1031D0009223C4F82402A4F8506205F047FF20B1FE
:1031E000D4F824321E33C4F82432B4F8C811039A38
:1031F0008E1B002336B29E4284F82832C4BF0223BD
:1032000084F82832002A40F0D380029A002A40F045
:10321000D38094F80432002B40F0EF8094F81C0225
:1032200041460AF02BFF002800F05581049B84F8EA
:10323000183200200BB0BDE8F08FD4E98E010023D6
:1032400084F81B32C4E992015546012366E5CDF8A6
:10325000108053E594F81B02002800F0DE80524BEA
:10326000586892E7029B002B3FF45AAFD4F8FC3128
:10327000E56A94F875001D4408F0AEFA00F52340A5
:10328000A130A9FB00304FEA901BD4F80802D4F813
:103290004022A5F1940A94F87550AAEB000A9244D2
:1032A000E91ED4E98E23C9B20129AAEB020A40F231
:1032B000C380284608F090FA94F8755000F2E73081
:1032C000A9FB0039E91ED4F808024FEA9919C9B2DE
:1032D000AAEB0B024A4406922EE74FF0650ADBE6A2
:1032E0004FF0650A52E64FF0650941E70E2B18BF13
:1032F00003957FF4F9ACB4F89832B3427FF48AAD09
:10330000B4F85232B4F8DC211344C4F80032D4F8D3
:103310000C32C4F8F831E369C4F8FC31204606F0F9
:103320005DFC94F8AC32002B40F0AD80D4F8A05294
:10333000E269954204D0208810F06FF8D4F8A022FA
:1033400094F87E30002B00F0928041F64B539D4262
:1033500040F2928000234FF096112387616384F836
:103360007E30D4F89C32E362B4F89A322386D4F8E3
:10337000A4326362022384F804320123CDE90333CB
:10338000E261BBE40230ABE6023028E60027CBE482
:10339000B4F89822B21A12043FF55DAD94F89B225E
:1033A000002A18BF934656E5F0110020D34D621055
:1033B000029A002A3FF432AFB4F8F021D2B1B4F847
:1033C000F20194F8F41100FB01118A4200F10100AE
:1033D0007FF724AF002B3FF421AF002384F828327D
:1033E000A4F8F20102F03AFD00F00700013084F881
:1033F000F40113E7A4F8F22110E7E169D4F80C32E4
:103400004046C91A0EF0ACFA80B200283FF406AF6D
:10341000149BA3B1188001200CE7B4F8DC010BE584
:103420004FF065096AE5D4E98E23AEF1E90EAEEB03
:10343000020E3C21754446E54FF03C0948E7012067
:10344000F8E6E0690593494609F068F894F87E20AB
:10345000059B02B10230B4F8DC71D4F80C22C4F838
:103460000C0257447F1B821A02FB07F7C9E441F69E
:103470004B518D423FF673AF4FF04D136363002302
:10348000238701236BE720880FF0C4FF68B3B4F8EB
:103490009822B4F8A812618694F87E30B4F8AA1283
:1034A0004281013A02820022C2818181D4F8A022A5
:1034B000002B7FF44FAF52E794F8751094F8D601C3
:1034C000E76A05930EF0A5FA059B0744D4F8FC01C2
:1034D00067E4FFF7D9FA40F293513020FDF7A8F9DD
:1034E00040F2DE413020FDF7A3F940F23E7130207A
:1034F000FDF79EF940F232513020FDF799F9B4F80A
:10350000DC01D4F80CC23C21DDE440F24A51302009
:10351000FDF78EF9F0B585B0002800F01081044663
:10352000072900F2F380DFE811F095000800080099
:103530007E00F10083008B00ED0010F03EF8D4E92E
:103540008E23801A61EB0301012871F10003C0F2A0
:10355000FF806FF00102002382428B41C0F20181A3
:10356000E3690BB1B0FBF3F394F88F20442A00F029
:103570009B800E2A94F88E1000F096804339012922
:1035800040F29280B4F88810B4F816220B449BB233
:10359000D11A090400F1C880531C9BB2A4F816325A
:1035A00094F81932B4F81612002B00F0B380B4F876
:1035B000C200B4F888306D4FB4F852220344B4F816
:1035C000C000013B1B1A9EB23B680132A4F8522294
:1035D00002AD53B1013989B2002220469847B4F8B0
:1035E0001612084481B2A4F81612731A1B0462D48E
:1035F000002300951A462046FFF746FB40B30128FA
:1036000040F0A180B4F81612B4F8C831CA1A1004F8
:103610006ED4BDF80830194489B23B68A4F816127C
:10362000002BD7D1E1E705B0BDE8F04007F05ABE66
:10363000012009F06FF905B0BDE8F040FEF740BF8A
:1036400090F80432042B40F08880002380F8043284
:1036500005B0F0BD90F81832D3B1B0F81622B0F82A
:1036600088309A4263D0D31AA0F8CE31A0F88820CF
:10367000D4E98C232046C4E98E2306F0CFF994F8D0
:10368000D331002BE4D005B0BDE8F0400FF053BEBD
:10369000B0F81432B0F88810B0F81422A0F88820DE
:1036A0005B1AA0F8CE31E3E7B4F81612013189B203
:1036B000A4F816127BE794F892200394002A0CBF1A
:1036C0003E220822012384F8B12028468DF80830D4
:1036D00002F0D4FE20460FF030FE002384F80432BE
:1036E00094F81C020AF0B2FB202384F81C32AFE7E6
:1036F000BDF80820114489B2721A12F4004F18BFA5
:1037000019468AE7D6213020FDF792F8DA213020D9
:10371000FDF78EF8B4F8CC318B427FF448AF01311D
:1037200089B2A4F8161242E701339BB236E7B0F82B
:10373000CC31A0F888309B1AA0F8CE3198E7AA21A6
:103740003020FDF775F840F276613020FDF770F813
:1037500040F21E613020FDF76BF8D0213020FDF7DC
:1037600067F840F21F613020FDF762F87405002011
:103770002DE9F043D0F814310026D0E9548983B004
:1037800080F8186105460F4683F8D62180F8386125
:103790000121D0F8140101F073FFD5F81441C4E9F8
:1037A0008E8995F8103184F81C32C4E99289C4F8E6
:1037B000547284F80462A4F850623346009632468C
:1037C00031462046FFF760FAD0B9012384F804326D
:1037D000C4F80002C4F8F801A4F81602A4F8140210
:1037E00084F81902B4F88830A4F85202013BA4F816
:1037F000883007F0C9FB03B0BDE8F0430AF010B908
:1038000040F2FF113020FDF713F800BFD0F814018B
:10381000704700BF2DE9F04385B000230322CDE9B6
:103820000033FF268DF806206846FDF797FF044613
:1038300020BB009D95F83831002BF5D085F86061EC
:10384000012128460FF0BEFB95F83831002BEBD054
:1038500095F810010AF060FE95F810010BF080FA5F
:1038600095F810010AF0F2FA002840D085F83841A6
:103870006846FDF773FF04460028DAD0DFF884803D
:10388000012388F80830002502264FF6FF771EE056
:10389000029B03B393F81C22202A1CD01888B8423C
:1038A0001FD00221FDF720FF814628B390F81C02AB
:1038B0000AF032FE99F81C020BF052FA99F81C0239
:1038C00089F804420AF0C2FA202389F81C32CDE9B3
:1038D00002558DF80E6002A8FDF740FF044600284F
:1038E000D6D0002388F8083005B0BDE8F08340F258
:1038F000EB113020FCF79CFF4FF49B713020FCF75C
:1039000097FF00BFF0110020054B0022012142F279
:1039100010705A72588119701A72FFF77BBF00BF7E
:10392000F01100202DE9F84390F83831002B76D1C2
:103930000446884601465648154603F0FF070AF03C
:1039400051FA202806466AD05822394604F5887074
:103950000BF0F4FF84F81061C4F81481FF2384F89D
:103960003831B8F1000F06D002F090FA00F00700ED
:10397000013088F8F40102234FF00008A4F8483120
:1039800084F8408108F01CFE9E3086B220460FF07D
:10399000DAFA002847D00DF02FFE00F5CD6081B295
:1039A000284608F0BBFD2844C4F844010FF005FE8A
:1039B000301841F100014FF00109C4F85001A4F89A
:1039C0002680C4F8541184F8189120460FF0D1FADB
:1039D000002846D0494620460FF028FA6FF49C6331
:1039E0001D442D1AC4F81C514FF0FF326FF00043F4
:1039F000C4E9562394F8100104F5A0710AF03EFBC7
:103A000000283FD0D4E954232046C4E94A23C4E91E
:103A10004C2300210FF0D6FA3846BDE8F8830C2776
:103A20003846BDE8F883014620460FF0FFF9DFF87D
:103A30006480E530C4F84401B8F80A0008B1E08CAD
:103A4000B8B906440FF0B9FD361841F10001C4E9D8
:103A50005461002DC8D0AE1941F10001C4E956618E
:103A6000C8E748460FF086FBE53D2D1AC4F81C5107
:103A7000BAE702F00BFAB8F80A30B0FBF3F202FB37
:103A80001300DEE740F2CD113020FCF7D1FE00BF7D
:103A9000952A0000F011002090F838310BB9002071
:103AA000704710B50446FF2380F8603101210FF004
:103AB00089FA94F838310BB9002010BD94F8100140
:103AC0000AF02AFD94F810010BF04AF994F810015D
:103AD0000AF0BCF920B1002384F83831002010BD71
:103AE00040F2EB113020FCF7A3FE00BF014B5872EF
:103AF000704700BFF011002090F8602182B910B526
:103B000002F0FF0490F8182112B90122104610BDEE
:103B1000D0E947319942F9D904F060FE2246F5E731
:103B200000221046704700BF08B506F049FE044B5E
:103B3000DA6882422ABF187A002080F0010008BDAE
:103B4000F011002008B540F2FF110EF0D6FBB0F5E1
:103B5000296F28BF4FF4296080B208BD90F8D33197
:103B6000002B75D1F0B503F0FF0590F80432032B5C
:103B700085B0044601D005B0F0BD0FF01EFDD4E9BC
:103B80008E23801A61EB0301012871F10003F2DB3F
:103B90006FF00103834275EB01035CDBE369B4F86A
:103BA0008820002B55D0B0FBF3F080B2531C184492
:103BB00080B2A4F81402B4F81422B4F8CC319B1AE1
:103BC0001BB2002BD7DD94F81C020AF0A5FC0028DC
:103BD000D1D0FF2384F81932B4F88850B4F8C22049
:103BE000B4F8C030214F1544013DED1A3B68ADB229
:103BF0000DF10E066BB1B4F81412013989B200222E
:103C000020469847B4F8143210FA83F39BB2A4F814
:103C10001432B4F81432EB1A1B04ACD4B4F81412F6
:103C2000009689B2002301222046FFF72DF80028D4
:103C3000A1D0012814D1B4F81432BDF80E2012FA24
:103C400083F39BB2A4F814323B68002BD3D1E0E796
:103C500070471846AAE740F2C7513020FCF7E8FD4C
:103C600040F20E613020FCF7E3FD00BF7405002038
:103C70002DE9F043044683B0062900F22B81DFE8EA
:103C800001F0042613232C338C00D0E98E23D0E9D5
:103C9000900182428B41C0F0B180914B1B7A03F0BE
:103CA000FF02002B00F09B80042384F8043207F00D
:103CB0006BF909F0B5FEB4F88820A4F816220023A9
:103CC000A4F8523284F8193203B0BDE8F08303231C
:103CD00080F8043203B0BDE8F08306F079FDC4E952
:103CE000900103B0BDE8F08300881121FDF7FCFCD2
:103CF00094F87530002800F0DC80022B00F0D780AB
:103D000066D8012B08BF0A3040F0DE80808840F280
:103D10004517874234BFC01B0020D4F80C52E3691A
:103D2000DFF8BC912A18934284BF5B1B1D1A99F8D7
:103D3000093098BF00251BB9E36B9D4228BF1D4683
:103D400004F13C00D4F8D8610EF03CFA06EB000810
:103D500002200AF065FEA5EB080626EAE676864212
:103D600028BF0646022130460AF0C2FE00B9B04420
:103D700001233A46414620460EF0A5FAE269D4F8FE
:103D8000D831C9F80C00D0180AF0E2FD00289BD108
:103D900040F28A313020FCF74BFD90F875502846F0
:103DA00007F01AFD033D4F4900F55F40012D00F17A
:103DB0004100A1FB003094BF2821002101EB9011AC
:103DC00001228031204603B0BDE8F0430EF08CBAEA
:103DD000033B012B78D8408C40F26D1799E7B4F87B
:103DE000CC11009201232046FEF74EFF00283FF43D
:103DF0005EAF40F2DC613020FCF71AFD94F81A3215
:103E0000002B3FF44AAF94F80432032B7FF445AF04
:103E100094F875800DF0F0FB94F8C3310B2B57D854
:103E2000314AD4F8406232F81330D4F8D891C5182A
:103E300003F5C8639FB2D4E98E234046B61A07F053
:103E4000C3FCA8F10302012AADB2A9EB000939D9DC
:103E5000404607F0C1FC234B00F52342A132A3FBEF
:103E600002239B09A9EB0303A3F174025208D43B7C
:103E70009D3205FB03F3B3FBF7F36033A2EB530171
:103E80008E424FEA530302D313449E4201D908F0F5
:103E900087FBE069294608F041FB94F87E3003B1C6
:103EA00002300023C4F80C0284F81A32F5E614300C
:103EB0002CE740F26D17033B40F24512012B88BFFF
:103EC00017462AE76523CDE7CD21B420FCF7B0FCE7
:103ED000FEF7DAFD4FF4F3613020FCF7A9FC00BFD8
:103EE000F0110020D34D6210ECA50200012A70B53C
:103EF000064609D0022A14460D461ED04AB140F2A9
:103F0000C2713020FCF794FC06F05AFCC6F854024B
:103F100070BD06F055FC224601462846FFF728FCF6
:103F20000F4995F81001324608F0E4FC0028EFD163
:103F300040F2AB713020FCF77BFCD0F85412012228
:103F40002846FFF715FC064995F81001324608F09F
:103F5000D1FC0028DCD140F2BC713020FCF768FCB9
:103F600015350000F8B5044651B101295BD1002395
:103F700080F8183107F008F8BDE8F84009F050BDA6
:103F8000C58C002D47D12046D4E94A760EF09DFF1E
:103F9000401941F10001C01946EB01010022022342
:103FA000C4E95401C4E94A0184F84021A4F8483125
:103FB00094F8603103F0FF01002BDBD1D4E9560205
:103FC0006FF000439A4208BFB0F1FF3F0CD194F864
:103FD000100104F5A0710AF051F80028CAD140F28E
:103FE000FB613020FCF724FC2046D4E954560EF047
:103FF0001DFFD4F85831D4F85C215B1B00F1E500BB
:1040000062EB06021B1A62F10002002ADFDA204688
:1040100004F0E4FBAEE701F021FFE58CB0FBF5F323
:1040200003FB1505AFE740F2D2713020FCF700FC2E
:1040300090F83801003818BF01207047014B5881B3
:10404000704700BFF011002090F854305A070ED48A
:1040500013F0030301D11846704790F8550000F0A3
:10406000FD00A0F10100B0FA80F04009704790F81F
:104070005600A0F10100B0FA80F04009704700BF7F
:10408000343270B592B205460C461E460CF08CF9DF
:1040900025B1034B1D601C745E741C7170BD00BFA4
:1040A00018120020014B1870704700BF1105002046
:1040B00090F86C00003818BF01207047014B587011
:1040C000704700BF30120020F0B5070CA7F5AA42D8
:1040D000144B543A012A03EA90231FD927F40040D5
:1040E00042F6AA22801A18BF012000221621164685
:1040F0001F2487EA060562EA0505013510D0DD03B5
:10410000ADB245EA5606E503ADB2013945EA5202C1
:104110004FEA53034FEA5404EBD1F0BD0020E4E72B
:104120000020FAE7E0FF3F002DE9F0410F46063995
:1041300089B240F67A45A942BDF81880BDF82460DE
:104140003ED8941FA4B2AC428CBF00240124254663
:10415000002837D11E49097969B15CB96FF4506004
:104160003918062906D86FF450615418062C8CBFF4
:1041700000240124254605B3974226D803FB066692
:10418000B6F5FA7F21DCA8F10A039BB240F676402F
:1041900083421AD810460CF036FA42F2107303FB31
:1041A00008F87043B8EB400F0FD9BDF81C50BDF8AC
:1041B000200085428CBF002501252846BDE8F081FE
:1041C0000024C4E790F87D10C6E70025F5E700BF9E
:1041D000E01200202DE9F3410023CDE9003304462D
:1041E0000E46174600F10A086846FDF7B7FA08B10F
:1041F000002015E0009DA542F6D030460CF0FDF9F8
:10420000EB1CAA7839460DF03EFB0028ECD06A7A08
:10421000607A05F10A0341460DF035FB0028E3D032
:1042200002B0BDE8F0810000054A134692F8202054
:1042300053F8211B11F8030BC0F380100DF023BBC2
:10424000281800200138C0B2032808B504D940F26C
:1042500049310620FCF7ECFA014B185C08BD00BFA1
:10426000BCA602000138C0B2032808B504D940F248
:1042700049310620FCF7DCFA014B185C08BD00BF91
:104280002CA702000138C0B2032808B504D940F2B7
:1042900049310620FCF7CCFA014B185C08BD00BF81
:1042A0001AA80200F7B5114B9C7EDD7E9F8B064657
:1042B00014B900F0E1FD0446A5B900F0DDFD0546A6
:1042C00014B9092003B0F0BD0028FAD0304601A986
:1042D0008DF804408DF80550ADF806700DF095FB93
:1042E0000020EFE7002CF1D1EBE700BF74170020AE
:1042F00010B503210020FDF7F7F9044670B903213A
:10430000FDF7B4F9044620B940F291313920FCF7A9
:104310008FFA034B93F960100EF042FD204610BD5A
:10432000E012002038B50DF0ADFA01F0B5F800F05C
:10433000B1FD0DF0EBFE01F04BFA02F051FB01F084
:104340007BFA012000F04EFD1A4B1B4A1B4C002546
:104350001D601B4BA4F854501A601B229A805D8389
:104360009D839D771D76174BA576F9225868228389
:10437000154A1B892260E0612946142204F12400B9
:104380002384A580A5750BF0D9FA012304F13A0026
:1043900042F21072C4E90A2284F8243084F83930D9
:1043A00084F856500FF02CF804F14400BDE8384072
:1043B0000FF04BB87805002003021B00E01200202C
:1043C00074170020BCA602001B004801044B41F6F4
:1043D0004C521B21C3E9022219745A61FFF7A2BF94
:1043E0007417002073B53B4DAB68C3633A4B1B7920
:1043F000003B18BF012380F87D30384BC361044671
:10440000FFF7A0FB064600F031FD2B7C84F844301A
:10441000334BA4F8466010F0200F1B681DBFAA881C
:104420006988A4F866101B2208BFA4F86620A4F8C7
:1044300068201BB194F97C1020889847294B1B6891
:1044400013B12949208898472046FFF72BFF0646DD
:1044500050B120880221FDF75DF9002836D040F2E6
:1044600024613920FCF7E4F9012363861F4B1B68A4
:1044700013B10146208898471D4B1B6813B1208853
:10448000002198471B4B1B680BB1208898471A4B9B
:104490001B680BB120889847AB886A8869780191BE
:1044A00003332978009103329BB292B204F11801D0
:1044B00004F11400FDF78AF9636913B940F24E6103
:1044C000CFE7A3691BB940F24F61CAE7092630461E
:1044D00002B070BD74170020E012002000093D00FA
:1044E0008C05002080050020E81200209C0500209B
:1044F0009005002094050020980500202DE9F34147
:1045000005460E460EF08DFC002800F0AF802846D0
:104510000EF019FD30B1B6F80130013B7F2B01D907
:10452000122404E028460EF012FD20B90C24204687
:1045300002B0BDE8F0812846FFF77AFD0028F5D1EA
:1045400028460EF017FC80460028EFD1284603F0DD
:104550005BFE0028E4D0B6F80170F17842F21073E7
:1045600028465F430EF0DAFC04213078FDF7BCF8F2
:10457000062104463078FDF7B7F8002C78D038B122
:1045800041F67D313920FCF753F990F8BD8004469F
:10459000414E3368002B6DD0403420460EF05BF95D
:1045A000002867D020460EF04AF9002862D1B8F101
:1045B000000F08D0394B20461B689847002859D077
:1045C00041F69131DEE73649336849694246204673
:1045D000984700284ED041F69631D3E728460EF092
:1045E000B2FC40B902210DF10600FDF707F80646BE
:1045F00058B90D249BE728460EF0B7FC0028F1D1EE
:10460000284B1B79002BEDD18AE7002101F038F807
:10461000BDF806303380284631460EF0C4FC2846EB
:104620000EF0A3FCA8B9296A28460EF0A8FC0146A2
:104630003046FFF7D7FE044600287FF478AF3A46AD
:1046400031462846FFF76EF9044620B141F6C231E3
:1046500098E70121ECE7134BDB6D002B3FF467AFCC
:10466000024606F591713046984760E742245EE7BE
:1046700000288AD128460EF05EFC01460028ADD104
:104680003A462846FFF74EF9044600283FF44FAF5C
:1046900041F69F3176E700BF7C05002084050020AD
:1046A00074170020E0120020024B1B6803B118476A
:1046B0000C20704778050020B0F90020F8B514B23E
:1046C00092B202F5A0639BB2B3F5206F34D8B0F973
:1046D00002301DB29BB203F5A06189B2B1F5206F23
:1046E0002AD802F2F64189B240F2BE50814225D862
:1046F00003F2F64189B2814220D8002CC4BF0932AE
:1047000014B2002DC4BF09331DB20A2094FBF0F48B
:1047100001F066F867B206460A21384695FBF1F1CA
:1047200049B201F04FF8074B1B684BB1A01B40B2D8
:1047300008B198470020F8BD3020FCE71120FAE7C7
:104740001846F8E788050020034B5A8802801B783A
:1047500083700020704700BF741700207FB58378F6
:104760001A2B064609D8042B05D9012202FA03F3B5
:10477000314A134205D112251AE0292B01D03B2BD7
:10478000F9D13088B0F5706FF5D269460DF0BAF8FE
:1047900088B9019B93F8202102F0FF05C2B9B278D5
:1047A00083F82121FF2283F8202168460DF087FC41
:1047B000284604B070BD30880921FCF795FF0446F7
:1047C000002837D0B0F8AC0102A90DF09BF808B171
:1047D0000C25EDE7B4F8AE010821FCF785FF20B900
:1047E00040F691113920FCF723F803781BB994F8AF
:1047F000C831032BECD1039B93F83621002AE7D173
:1048000094F8F02102F0FF05002AE1D1B4F8B021BC
:10481000A3F8382194F8B42183F83A21027D83F873
:104820003B21B27883F83C2184F8F021FF2283F801
:104830003621BDE70225BBE72000380438B50478EF
:104840004278857804F0010352EA030104F002047F
:1048500001D1112038BDBCB9002DFAD0002B08BF02
:10486000144601E00024254620460BF052FF0028A4
:10487000EFD028460BF04DFF0028EAD0054B002072
:104880009C76DD769883E5E7002BEBD114461D4638
:10489000EAE700BF7417002013B5008869460DF0E1
:1048A00031F818B10224204602B010BD9DF8003046
:1048B00001984BB90BF0B4FE0028F3D0019890F8A2
:1048C000323123B13A24EEE70BF0B8FEF4E790F86A
:1048D000DA3003F0FF04002BF4D190F8D1309B07BD
:1048E00006D1FF2380F8323168460DF0E8FBDAE7A5
:1048F0000249D2300DF032FCD5E700BF9B27010002
:104900002DE9FF410778EF2F04460E4601D9122604
:10491000D6E0B0F80130ADF80C309DF90C209DF8D0
:104920000C30002AF3DB9DF80D209507EFD1D80657
:1049300000F19A80990603F0030240F19180002A69
:10494000E5D11A0703D503F06703012BDFD16378A4
:104950001D0711D42179E278E07942EA01226179D8
:1049600042EA0142A17941EA0021207A41EA00416C
:104970008A42CCD81F2ACAD9627A013A062AC6D8F6
:10498000A27A032AC3D813F0040102D1023A012A01
:1049900003D8E27A012ABAD811B9A27C032AB6D880
:1049A00013F01001227D72D0012AB0D1237E012B99
:1049B000ADD800297CD06378D80703D500F0D4F9AE
:1049C00000287CD06378227D03F01801082940F08C
:1049D0008B80022A73D11B0740F18E801FFA87F863
:1049E00003214046FCF780FE0546002840F09580F4
:1049F00003214046FCF73AFE0546002800F0AA8055
:104A0000554B93F960100EF0CBF9002138460EF0AB
:104A1000CDFC002840F0888028460EF089FA214617
:104A20003070E074284603F047FCE37E0646002B16
:104A300046D0002844D1E96C02466846FCF7A2FF44
:104A4000E86C324601210BF004FDE96C6846042253
:104A5000FCF798FFE86C324631460BF0FAFC2FE089
:104A6000032A7FF46EAF52E713F0600F7FF44FAF6D
:104A700003F00F0203F00703052B3FF468AF931E0A
:104A8000012B7FF664AF002A7FF441AF5FE7022A73
:104A900004D103F06F03092B7FF439AFA37D013BF1
:104AA000022B3FF634AFE37D0F2B7FF67FAF2EE76F
:104AB00000F0E2F981070AD4237D022B04D11126EC
:104AC000304604B0BDE8F081A37D022BF7D000F0A2
:104AD000D3F942073FF56FAF237D032BEFD0A37DC2
:104AE000032B7FF468AFEAE7022A3FF474AF227F1A
:104AF000002A3FF470AFE2E7E279A37943EA0223A8
:104B0000227A43EA0243B3F5804F7FF667AF0EF097
:104B1000B2FD00287FF462AFD1E7FFF789FA0028E1
:104B20003FF473AF0C26CBE740300DF094FE002825
:104B30003FF472AF637813F0330F7FF4E8AE296A65
:104B4000A77D28460EF01BFAFFF77CFB87423FF457
:104B500063AFE7E70726B3E7E012002030B502793C
:104B6000042A8BB003465CD84488B4F5804F58D8EB
:104B70002D4810440021827C457BADF8001042F0A6
:104B8000100242EA4502C57D007F8DF8081042EA16
:104B9000850242EAC00202F01F028DF80020BDF833
:104BA0000020ADF809201A888DF80B208DF80E40F2
:104BB000120A240A8DF80D108DF810108DF80C20B3
:104BC0008DF80F405A7B8DF811205A798DF81220FC
:104BD0009A79D3F807008DF81320B3F80B209B7B4C
:104BE0008DF81A307F238DF81B30012305908DF846
:104BF0001D10ADF818208DF81C308DF81E3002A85D
:104C00008DF81F108DF820108DF823108DF82410CA
:104C10008DF821108DF822106946FFF771FE0BB058
:104C200030BD1220FBE700BFBCA60200027803469D
:104C300072B1427862B142881A2A09D982881A2A46
:104C400006D9044A006810609B8893800020704752
:104C50001220704774170020024B02689A600020EF
:104C6000704700BF741700200378A3F10A02112ACD
:104C70009DBF024A00201374122070477417002051
:104C8000014B187600207047E0120020014B587647
:104C900000207047E0120020024B1B6803B1184748
:104CA00011207047A005002008B503F095F9FEF724
:104CB0002BFEBDE80840014803F078B944130020FA
:104CC00008B50CF0DDFD064800F58471FDF7FEF92E
:104CD00002200BF03BFBBDE8084000200BF036BB88
:104CE0004413002008B5074B012283F80A2203F081
:104CF0007BF904F0ADF9FFF7E3FFBDE8084000F0F1
:104D0000B1BF00BF4413002010B5064C064904F59E
:104D100003700CF031FC04F504700449BDE8104048
:104D20000CF02ABC44130020A4050020AC05002090
:104D300010B5094C094904F503700CF01DFC04F58D
:104D4000047007490CF018FC04F505700549BDE82E
:104D500010400CF011BC00BF44130020B40500202B
:104D6000BC050020C4050020014B93F80A027047DF
:104D70004413002038B5094C0D4600F04FFFD4F81D
:104D80000C02C4F804510CF0EFFBFFF71FFB01F01D
:104D900095F8012384F8183238BD00BF4413002071
:104DA000014B93F8180270474413002010B50C4CC7
:104DB000D4F810020CF0D8FBD4F814020CF0D4FB99
:104DC000FFF7B0FA202000F02FF8262000F02CF892
:104DD000292000F029F8002384F8183210BD00BF04
:104DE00044130020014B83F819027047441300203C
:104DF000014B93F81902704744130020C208084978
:104E0000012300F0070003FA00F08B5C184388547C
:104E100004490B78934238BF13460B70704700BFAC
:104E2000180500205E15002010B50E4BC40803EBDA
:104E3000D002012100F007008140185D20EA010046
:104E4000094918550B78A34205D1002012F80149F1
:104E500014B100B10B7010BD002BFAD0013BDBB2D6
:104E60000120F3E7180500205E150020014BD3E96F
:104E70000001704718050020054B1868C0F3C022D8
:104E8000C0F30020400040EA820040F0010070477B
:104E90001805002008B507F089FB084A002332F8FE
:104EA0002310814205D302EB83039B78044A1370DD
:104EB00008BD01330C2BF2D10023F7E7FCA602005A
:104EC0005F150020024B1878072828BF072070477D
:104ED0005F15002010B544682388A4F87E3184F85B
:104EE0007D1194F87400FFF7BDF984F8800194F8FF
:104EF0007500FFF7B7F9054984F8810104F5BA7028
:104F00000DF02CF9002384F82C3110BDFD150100A3
:104F1000406808490388A0F8703190F86C3080F838
:104F2000723190F86D3080F8733100F267100DF037
:104F30000FB900BF131601002DE9FF41884609791A
:104F400098F80520054601F0070102F007026C6899
:104F50004B1E501E10400B40034394F88F0094F8F2
:104F60008E7024282FD104F18F06002B47D11046D4
:104F70000CF09EFB88B394F8743098422DD094F8CE
:104F80002CC1BCF1010F0CBF94F82EC194F870C075
:104F900012EA0C0F33D0222F1FD094F86DC012EA02
:104FA0000C0F1AD10138C0B2032807D8DFF870C13E
:104FB000013B6044DBB2032B00790AD940F21F2188
:104FC0000620FBF735FC222F40F0A68004F18E0668
:104FD000CBE763441B79834211D808460CF068FB89
:104FE000B0B394F87530834232D094F82C31012B51
:104FF0000CBF94F82F3194F87130194228D194F8ED
:105000002C31012B14D11E212846FFF763FF222FDC
:1050100012D16B68182283F811210A2283F88E209E
:1050200093F8CA30002B44D140F2B321AE20C8E738
:10503000002384F82C31EAE70023284633700DF072
:1050400094F91821284604B0BDE8F0410DF0B9B933
:10505000B8F8067003AB009320463B460CF032FBD9
:105060006C6880BB94F82C31012B29D1B4F88830BE
:1050700094F87410B4F8300104F526720CF082FB39
:105080000446C0B901462846FFF724FF34706B6818
:1050900003F18F02964202D1002283F88F206B68C1
:1050A00003F18F0296424FF0000432D128460DF0F2
:1050B0005CF9002031E06B68282283F88E20E6E757
:1050C00084F82C01E3E7B4F88830A4F89872DB4345
:1050D0001F44BFB247F6FD739F4206D9282384F8C8
:1050E000B130284601F0CAF9D9E794F88F300E2B79
:1050F00002D00B3B012B01D82A23F0E79DF80C309E
:1051000084F89A329DF80D3084F89B322623337050
:10511000C5E783F8CA40CCE7022004B0BDE8F081BF
:105120002CA70200044B002283F832204FF6FF72B6
:105130009A86DA861A87704760150020054B9A8E8A
:10514000824201BF002283F832204FF6FF729A8616
:10515000704700BF60150020014BD886704700BF24
:1051600060150020084B998E4FF6FF72914206D1D0
:1051700093F83220012A04D00360012070470023F5
:1051800003600020704700BF60150020064B93F8B5
:105190003220012A1FBF0120DA8E83F832009A865E
:1051A00008BF0020704700BF60150020014B188722
:1051B000704700BF60150020064A918E138F9942F8
:1051C00005D192F8323013B10260012070470020FF
:1051D000704700BF60150020094B998E1A8F9142CD
:1051E00001D0002070474FF6FF729A8693F8322064
:1051F000002AF6D0002283F832200120704700BF39
:1052000060150020054B998E1A8F914203BF93F8C9
:105210003200B0FA80F0400901207047601500208C
:1052200050B90A4A1346012003F8010B0868C2F876
:1052300001008A889A807047012805D1034B0A68CB
:105240009A608A88D8719A81704700BF9A150020A9
:1052500048B90A4B187880B1D3F80120B3F805306B
:105260000A608B807047012806D1044BD87920B1A1
:105270009A680A609B89F4E7002070479A1500201D
:1052800020B9054B187800F00100704701280ABFCB
:10529000014B0020D879F6E79A150020F7B50022D7
:1052A0008B888DF80600ADF8043008680C4B8DF83B
:1052B0000720019D1C78014603F5AC73D0B28442EF
:1052C00001D8082009E0D3E90076AE4208BF8F423A
:1052D00003F1080302F10102F0D103B0F0BD00BFF9
:1052E000A815002030B5094B01465C78002203F573
:1052F0008173D0B2844201D8082005E013F8015B25
:105300008D4202F10102F4D130BD00BFA81500208A
:10531000F0B5254D95F8984189B0224605F29911CE
:1053200068460AF077FB214668460CF0CAFA044644
:10533000B8B300EB4001C9B202A8FBF78FFC601EB6
:1053400095F8A161C0B2012495F8982105E0731C7D
:10535000B3FBF2F102FB1133DEB206F120030DEBD9
:10536000030111F8203C002BF1D100EB4002203268
:105370006A4406EB46032B4412F8187C83F8A271AA
:1053800012F8177C12F8162C83F8A37183F8A42165
:1053900001F8204C0138AB19C0B2FF2883F89941BD
:1053A000D2D109B0F0BD00BFA815002070B50646E7
:1053B00088B00C46002A4ED0294A92F8A131D01864
:1053C00090F8991119B9FF212820FBF731FA03EB66
:1053D00043011144013391F8A251E57091F8A351B2
:1053E00091F8A41161710021257180F8991192F84A
:1053F0009811B3FBF1F001FB103382F8A13192F860
:10540000C23123B9174902F5DD700CF0A4FE6579AD
:1054100005F03F0545F0400565710D220021684605
:105420000AF08CFAE3788DF80F3023798DF80E307E
:1054300004AA0423694630468DF80D500AF022F87C
:105440009DF81F3023709DF81E3063709DF81D304D
:10545000A37008B070BD03216018FBF7FFFBD6E70F
:10546000A815002011530000044B5A78824286BFD1
:105470001B1893F84A010020704700BFA8150020B0
:10548000044B5A78824286BF1B1893F842010020D1
:10549000704700BFA8150020064B00224FF4617131
:1054A0001A8083F8C32183F8C421A3F8C61183F8B6
:1054B000C2217047A8150020014B83F8C401704732
:1054C000A8150020014BB3F8C6017047A8150020AD
:1054D00030B50A4B5C7884420ED9184490F802012A
:1054E0002B3003EBC004A5790D7053F83000106029
:1054F000A3889380012030BD0020FCE7A815002080
:105500000246074810B590F8C34124B1417821B153
:10551000023004F0F5FB204610BD0C46FBE700BF4F
:10552000A81500202DE9F74F2F4C00921A466378FA
:1055300083428046894654D9231893F8425185F016
:105540000105E9B193F84A31D3B945F002070135B5
:10555000C2B9F9070BD5062101FB084104EB08107D
:1055600001F5857182300092FFF720FF009ABB079A
:1055700033D504EB081049460230FFF717FF2CE043
:105580002F46E5E794F8A1614FF0010A002DE0D025
:1055900004EB060B9BF8991199B9009B0192D3B1CA
:1055A00000F05CFC06EB460121444FEA102C81F828
:1055B000A201019A81F8A3C1000C81F8A4018BF823
:1055C00099A194F898110136B6FBF1F001FB106631
:1055D000F6B2013DDAE747F00407384603B0BDE80C
:1055E000F08F0027F9E700BFA8150020074B5A7875
:1055F000824209D91A1892F842212AB9062202FBDE
:10560000003000F58570704700207047A815002015
:10561000064B5A78824281BF1B1893F83A01B0FAC0
:1056200080F0400998BF0020704700BFA8150020F7
:1056300030B50024A0F84040B0F8444042F2107564
:105640004C43B4FBF2F4A0F84440541E05FB034362
:10565000B3FBF2F3A0F84230084BB3FBF2F3013393
:10566000A0F84830838F05FB0344436BB4FBF2F48E
:1056700059438463B1FBF2F2426330BD005A6202C7
:1056800070B504460D4659BB4FF434720AF056F912
:10569000012384F896306FF0360384F8E130042358
:1056A00084F8E2306FF03B0384F8E3306F2384F832
:1056B000E4306FF03C0384F8E5306FF07F0384F84A
:1056C000E7302B2384F8E030FE2384F816317F2363
:1056D00084F88D30202384F8E65084F81C3270BDA5
:1056E000012922D10023A0F8DC3180F8D331154BF9
:1056F000C2691344B3FBF2F3C0F8B83040F6B833D4
:10570000A0F8BC301146C38C8030FFF791FF09F040
:10571000D1FF30B1206AFEF7D7FC10B984F8C2512E
:10572000DDE7002384F8C231D9E70229D7D1B0F8E8
:10573000A632D0F8A022C169BDE870408030FFF7E2
:1057400077BF00BF7FC3C901034B80F87C101B6883
:105750000BB1008818477047CC050020074B93F920
:1057600000301844142804DC10F17F0F03DB40B232
:105770007047142070476FF07E007047701700204C
:1057800007B57F230DF107008DF8073005F038FDD0
:105790009DF9073068B10A4A5078404243FA80F0D8
:1057A000142808DC10F17F0F07DB40B203B05DF86E
:1057B00004FB1846FAE71420F8E76FF07E00F5E7DF
:1057C00070170020014B1870597070477017002037
:1057D000024B00221A705A70704700BF70170020E9
:1057E000014B93F90000704770170020014B93F9AB
:1057F0000100704770170020054B1B7833B9054B2B
:105800001A681B79026003710120704700207047FD
:105810007217002028050020054BFF221A70054A48
:10582000016811600179117100221A70704700BF80
:10583000721700202805002007B5064B1868009055
:105840001B798DF804306846FFF7E6FF03B05DF87A
:1058500004FB00BFC9F70200437893B1C2783F2A26
:1058600005D80A49885CC31A58425841704702F16A
:105870001401C9B2022906D804490A4412F8AC0C32
:10588000F1E7184670470120704700BF34A70200B7
:105890003F2908B5C17003D80B4B5B5C437008BD52
:1058A00001F11403DBB2022B04D8074B194411F8A1
:1058B000AC3CF3E7FF2904D04FF48A612A20FAF7C1
:1058C000B7FF0123EAE700BF34A702002DE9F34741
:1058D00089466946164698460CF014F80546002895
:1058E00040D1019F36B9012487F89540204602B087
:1058F000BDE8F087D7F814A0314650460AF067FBA0
:1059000004460028F2D0194B5B88B3422CD30146E1
:1059100050460AF096FC97F895300580002B0CBF96
:1059200049460221044685700CF062FB324641462E
:10593000E01C0AF06FF8314650460AF082FB04463C
:1059400018B97E212B20FAF773FF9DF800302BB198
:1059500068460CF0B4FB019BA3F8CA51002387F8FA
:105960009530C3E70124C1E72C46BFE77417002038
:10597000024B987FC04300F001007047741700206D
:1059800083230B70014B1B78CB707047941700205A
:105990002DE9F347D0F80480D8F8186030460D465A
:1059A0000AF041FC044618B9FF211020FAF740FF25
:1059B000014630460AF045FCB4F800A01FFA8AF709
:1059C000814617B940F20311EFE71F4B1B68C11C5A
:1059D0008BB9B8F80030AB8000236B72A5F806A035
:1059E00099F8003003F00303012B11D0022B0FD0E4
:1059F00040F21D11D9E7B8F8000001913A469847E6
:105A0000019904460028E4D1204602B0BDE8F087A1
:105A10002B72304601910AF01AFC0199044610B924
:105A20004FF49371C1E7FB2F02D940F23511BCE767
:105A3000286810B94FF49B71B7E73A4609F0EAFFBE
:105A400030460AF061FBDFE7D00500202DE9F3477F
:105A5000DFF86881DFF8689106460D4605272B6957
:105A60004BB11B7A1BB980211020FAF7E1FE2C699B
:105A700094B9002365E06C68237A012BF9D0EFF329
:105A8000108372B66A6812686A6003B962B62C61E4
:105A9000237A0BB9A621E7E794F808A05FFA8AFAFF
:105AA00027720AF1FF330B2B72D8DFE803F06E0682
:105AB00010266B3C4E3C3C3C3C61636813B94FF490
:105AC000D771D1E731462046984704231DE063682B
:105AD00013B940F2B711C7E7314620469847ADF8F1
