:10000000002A00203D2700007B7400002927000003
:1000100029270000292700002927000000000000F0
:10002000000000000000000000000000A9280000FF
:1000300029270000000000004528000029270000B3
:10004000692A0000692A0000692A0000692A000064
:10005000692A0000692A0000692A0000692A000054
:10006000692A0000692A0000692A0000692A000044
:10007000692A0000692A0000692A0000692A000034
:10008000692A0000692A0000692A0000692A000024
:10009000692A0000692A0000692A0000692A000014
:1000A000692A0000692A0000692A0000692A000004
:1000B000692A0000692A0000692A0000692A0000F4
:1000C000692A0000692A0000692A0000692A0000E4
:1000D000692A0000692A0000692A000053B94AB958
:1000E000002908BF00281CBF4FF0FF314FF0FF3040
:1000F00000F00CB8ADF1080C6DE904CE00F010F87A
:10010000DDF804E0DDE9022304B07047704700BF6A
:10011000034613F8012B002AFBD1181A0138704747
:100120002DE9F04786468C460846089E15467446DB
:100130001946002B40F0C2808542B2FA82F245D9BE
:100140004AB1C2F1200300FA02FC2EFA03F39540F3
:1001500043EA0C0C94404FEA154EA8B2BCFBFEF8E3
:10016000230C0EFB18CC08FB00F943EA0C4399451D
:1001700028D9EB1808F1FF3704D2994502D9A8F124
:1001800002072B44A3EB0903A4B2B3FBFEFC0EFB56
:100190001C330CFB00F044EA0344A04214D92C1990
:1001A0000CF1FF3304D2A04202D9ACF102032C447B
:1001B000241A43EA07401EB1D44000233460736020
:1001C000BDE8F0874746DDE76346F1E792BB431B96
:1001D00001214FEA154EAFB2B3FBFEFC200C0EFB23
:1001E0001C330CFB07F840EA0343984562D9EB182F
:1001F0000CF1FF3004D2984502D9ACF102002B4437
:10020000A3EB0803A4B2B3FBFEFC0EFB1C330CFBF8
:1002100007F744EA0344A7424ED92C190CF1FF33E7
:1002200004D2A74202D9ACF102032C44E41B43EAF6
:100230000040C0E7C2F1200320FA03F1954090404E
:100240002EFA03F303434FEA154EAFB2B1FBFEFCA7
:100250000EFB1C10190C0CFB07F841EA0041884505
:1002600004FA02F422D969180CF1FF3004D288454F
:1002700002D9ACF102002944A1EB08019BB2B1FB09
:10028000FEFC0EFB1C110CFB07F743EA01439F42E7
:100290000ED9EB180CF1FF3104D29F4202D9ACF118
:1002A00002012B44DB1B41EA004192E76046E3E791
:1002B0006146F7E76046A3E76346B7E7834206D99E
:1002C00016B9002108467BE7C6E900E0F9E7B3FA72
:1002D00083F78FB9834201D3724508D8BEEB02047D
:1002E00060EB030301209C461EB9002168E73846F5
:1002F000FAE7C6E9004CF8E7C7F1200CBB4022FA48
:100300000CF41C432EFA0CF120FA0CF3B840014314
:100310004FEA14490EFA07F5B3FBF9F81FFA84FE09
:1003200009FB18300B0C08FB0EFA43EA00439A4510
:1003300002FA07F240D9E31808F1FF3004D29A45D7
:1003400002D9A8F102002344A3EB0A0389B2B3FB4C
:10035000F9F809FB183308FB0EFE41EA03418E450C
:100360002CD9611808F1FF3304D28E4502D9A8F1C7
:100370000203214443EA0040A0FB0298A1EB0E01D6
:100380004145CE46434602D306D14D4504D2B9EB92
:10039000020E68EB04030138002EA6D0B5EB0E0266
:1003A00061EB030101FA0CFC22FA07F34CEA0303A8
:1003B000F940C6E9003198E74046C5E74346D9E72A
:1003C000F0B591B00DF11F030126089308ABCDE9FC
:1003D0000A36184B0C930C46931917490D930CAB26
:1003E0008DF81F00CDE90E3651F8040B099615461D
:1003F00083680AAA1F680EABB84700280DDA9DF87B
:100400001F300E49CDE903030D4B02930023CDE9C4
:1004100000333246184606F09EFA064B2146254424
:100420008D4202D1002011B0F0BD13F8012F01F868
:10043000012BF5E75A0B0020B0050020C882000010
:10044000B48400001FB5084B029300230392CDE94A
:10045000003306490322184606F07DFA044805B029
:100460005DF804EB05F086B8E0840000C882000067
:100470004C0600202DE9F041DFF870801C4F1D4E26
:1004800086B00024CDE90044CDF80880234603223D
:100490003946204606F05FFA174D18484FF0FF33F3
:1004A0004FF0FF3205F09AF80121304601F0BAFB17
:1004B0002946134A204606F02EFBB5F90430059371
:1004C000B5F902300493B5F9003003930D4B009455
:1004D000CDE90143394620462346032206F03BFA84
:1004E0002146304601F09EFBCBE700BFF7840000B9
:1004F000C8820000F4800000900900204C06002013
:10050000900500200A85000030B58BB00B788DF87F
:10051000153012498DF8140005AB0693013206AB75
:10052000012551F8040B079208930995836808AADE
:100530001C680023A047041E4FF000030CDA084A91
:1005400008490394CDE90132184600932A4606F083
:1005500002FA60B20BB030BD1846FBE7B0050020D0
:100560001B850000C8820000F8B5114C114E002711
:100570003246012120460125277000F099FB4FF4F7
:100580008373638032462771A771257229462046FE
:10059000094C00F093F8314628462770657006F044
:1005A00089FA324629462046BDE8F84006F013BBDA
:1005B000440B002090050020580B00207FB5344CE0
:1005C000206807F058FA70B9324B33490024CDE95E
:1005D00001432046039400942346012206F0BBF910
:1005E000204604B070BDE06818B107F044FA002856
:1005F000EAD02A4C204607F03EFA034650B9284A72
:1006000025490090CDE90102012206F0A4F94FF03E
:10061000FF30E6E72269A568136823F000631360E2
:100620002B68204A1B212046984700280BDA1E4BD6
:10063000029300230390CDE90033174901221846A5
:1006400006F089F9E3E7AE6936B14FF080634FF009
:10065000A0721B212046B0471449154B4B604FF048
:1006600000638B60EB6913B10C4801229847114875
:1006700006F0F1F9FFF778FF0F48002101F0D2FAF8
:100680004FF0FF314FF0FF3007F056FBF8E700BFA7
:10069000B005002039850000C8820000D08000002D
:1006A0006185000020000100728500009C09002087
:1006B0004504000090050020F48000002DE9F0437F
:1006C000C64D85B02B88ADF8003004460023104697
:1006D000884616468DF8023006F04EF9002840F0A4
:1006E000E482002C00F0E1821346694603222120B7
:1006F00006F081F9002840F0C981142303FB084863
:10070000444500F0BD81074605F103092378002B1D
:1007100040F05C81B9F8002099F80230ADF804206F
:100720008DF806300322334601A9192006F063F93B
:1007300068BB9DF80430E27903F07F0343EAC213FB
:10074000A279520102F0600223F0600313438DF896
:1007500004306379E2781B0103F0300343EA82132B
:10076000A27802F00F0213438DF8053023799DF82B
:1007700006209B0022F00C0203F00C0313438DF8BB
:1007800006300322334601A9192006F003F9257A21
:1007900001232278012A35D13346022201A95720AC
:1007A000ADF8047006F027F950BBA2789DF804302C
:1007B000D20002F0180203F0E0031343E27802F0E3
:1007C00007021343A2798DF804309DF80530120119
:1007D00002F0300203F0C30313436279920002F087
:1007E0000C021343227923F0030302F003021343A4
:1007F0008DF805300222334601A9572006F0CAF8C9
:10080000E57909232278022A16D121796379E078E3
:10081000A5788DF8045003F00F03090143EA401353
:1008200001F010010B438DF8053001A93346552026
:1008300006F0B0F8A57908232278032A44D1E37A98
:10084000A179A27A029703F0030343EA4113E17905
:10085000CDF80B70090101F010010B43910001F07C
:100860000C010B438DF80430237A617A5B0001F0B0
:10087000010103F002030B438DF80530A3788DF8D6
:100880000630A3888DF80830190A8DF80710002A61
:1008900040F0A180A3898DF809301B0A8DF80A3039
:1008A000E3898DF80B301B0A8DF80C30238A8DF804
:1008B0000D301B0A8DF80E300B22334601A93F2064
:1008C00006F068F8A57C05232278042A43D1E37A50
:1008D000A179A27A029703F0030343EA4113E17975
:1008E000CDF80B70090101F010010B43910001F0EC
:1008F0000C010B438DF80430237A617A5B0001F020
:10090000010103F002030B438DF80530A3788DF845
:100910000630A3888DF80830190A8DF80710002AD0
:100920005ED1A3898DF809301B0A8DF80A30E3895E
:100930008DF80B301B0A8DF80C30238A8DF80D30A2
:100940001B0A8DF80E300B22334601A94A2006F00F
:1009500021F8A57C04232278052A49D12179E3785E
:1009600002971B018A0002F00C0203F010031343EC
:10097000A278ADF80C7043EA42138DF80430637925
:100980008DF80530A3798DF80630E3798DF80730BE
:1009900049BB2389ADF808306389ADF80A30A389D3
:1009A000ADF80C300A22334601A9352005F0F2FFDC
:1009B0002378A57B062B1DD0002867D1012D40F0A0
:1009C000EC809DF8003043F002033DE000252B460B
:1009D0006FF00300DDE6334605226FE73083000049
:1009E00033460522B1E7042233460DEB0201DCE772
:1009F000062A08D1A378012B40F042819DF80230ED
:100A000043F0010308E1002840D1013B082B33D813
:100A100001A252F823F000BF3D0A0000A10A000025
:100A2000DF0A00001D0B00005B0B0000BD09000089
:100A3000CD0B00000D0C0000490C0000012D06D16B
:100A40009DF8003063F07F038DF8003014E0022D34
:100A500006D19DF8013063F07F038DF801300BE083
:100A600045B9BDF8003023F4004323F08003ADF80E
:100A7000003001E0032D0CD01434A0457FF446AEC5
:100A8000334603226946212005F084FF05B0BDE806
:100A9000F083BDF8003043F4004343F08003E6E701
:100AA000012D04D19DF8003043F04003CCE7022D26
:100AB00004D19DF8013043F04003CEE735B9BDF8CD
:100AC000003023F4804323F04003D0E7032DD3D13B
:100AD000BDF8003043F4804343F04003C7E7012DE5
:100AE00004D19DF8003043F02003ADE7022D04D17E
:100AF0009DF8013043F02003AFE735B9BDF8003071
:100B000023F4005323F02003B1E7032DB4D1BDF843
:100B1000003043F4005343F02003A8E7012D04D133
:100B20009DF8003043F008038EE7022D04D19DF8B4
:100B3000013043F0080390E735B9BDF8003023F4E5
:100B4000006323F0080392E7032D95D1BDF8003030
:100B500043F4006343F0080389E7012D04D19DF8B5
:100B6000003043F004036FE7022D04D19DF80130FB
:100B700043F0040371E735B9BDF8003023F4806316
:100B800023F0040373E7032D7FF476AFBDF8003044
:100B900043F4806343F0040369E7022D04D19DF818
:100BA000013043F0020358E735B9BDF8003023F4B3
:100BB000007323F002035AE7032D7FF45DAFBDF805
:100BC000003043F4007343F0020350E7012D04D1D9
:100BD0009DF8003043F0010336E7022D04D19DF863
:100BE000013043F0010338E735B9BDF8003023F494
:100BF000807323F001033AE7032D7FF43DAFBDF886
:100C0000003043F4807343F0010330E7012D06D137
:100C10009DF8023043F008038DF802302CE7022DD6
:100C200004D19DF8023063F07F03F5E725B99DF804
:100C3000023003F07703EFE7032D7FF41DAF9DF83B
:100C4000023063F07703E7E7012D04D19DF802300D
:100C500043F00403E0E7022D04D19DF8023043F095
:100C60004003D9E725B99DF8023023F04403D3E7C8
:100C7000032D7FF401AF9DF8023043F04403CBE72E
:100C8000022B04D19DF8023043F01003C4E723B9CE
:100C90009DF8023023F01103BEE7032B7FF4ECAE86
:100CA0009DF8023043F01103B6E74FF0FF30EDE658
:100CB000F0B59C4B85B01B88ADF80030044600238E
:100CC00010460F4615468DF8023005F055FE0028F7
:100CD00040F02481002C00F0218113466946032254
:100CE000212005F088FE1423064603FB0747BC427B
:100CF00000F00C81002E40F009812378002B40F099
:100D000008812B46032201A9192005F074FEA8B919
:100D10009DF80430DA09C3F34113A3719DF805303F
:100D2000E2719A09E270C3F3011203F00F03A3709A
:100D30009DF806306271C3F3810323712378012B80
:100D400019D12B46022201A9572005F054FE90B973
:100D50009DF80430C3F3C10203F00703E3709DF86C
:100D60000530A270C3F30112A271C3F3810203F034
:100D70000303627123712278022A12D12B4601A942
:100D8000552005F038FE60B99DF80430A3709DF839
:100D900005305A09E270C3F3001203F00F03227109
:100DA00063712378032B3DD12B460B2201A93F20F1
:100DB00005F021FEB0BB9DF804305A09A271C3F3BF
:100DC0000012E271C3F3810203F00303E3729DF8A2
:100DD0000530A27203F00102C3F3400323729DF8B1
:100DE0000630A370BDF8073062725BBA9DF80A2026
:100DF000A3809DF8093002F00F0243EA02239DF818
:100E00000C20A3819DF80B3002F00F0243EA02236D
:100E10009DF80E20E3819DF80D3002F00F0243EAA9
:100E2000022323822378042B3DD12B460B2201A9D8
:100E30004A2005F0E0FDB0BB9DF804305A09A271CC
:100E4000C3F30012E271C3F3810203F00303E37200
:100E50009DF80530A27203F00102C3F34003237230
:100E60009DF80630A370BDF8073062725BBA9DF83A
:100E70000A20A3809DF8093002F00F0243EA022302
:100E80009DF80C20A3819DF80B3002F00F0243EA7D
:100E900002239DF80E20E3819DF80D3002F00F0231
:100EA00043EA022323822378052B28D12B460A22EA
:100EB00001A9352005F09FFD08BB9DF804305A09B3
:100EC000A270C3F30012C3F3810323719DF80530B0
:100ED00063719DF80630E270A3719DF809209DF8BA
:100EE0000730E3719DF8083002F00F0243EA022355
:100EF0002381BDF80A306381BDF80C30A38114F85A
:100F0000143B062B08D1A7427FF4F7AE304605B05C
:100F1000F0BD6FF0030011E70646E8E64FF0FF363C
:100F2000F4E700BF308300002DE9F04F91B0840753
:100F3000009302F004030293C2F3C20303F101031E
:100F4000DDF86880039205460E46059340F0BA81AD
:100F5000041D30B1072909D86FF01B0011B0BDE89E
:100F6000F08F01F007063444C6F10806009B4FF0ED
:100F70000009591E4FF0040A4FF0FF330193CDF8DA
:100F800010904F46CB4653460DB1009A226005980B
:100F9000002800F3E8809848009A824203D39748DB
:100FA0008242C0F0E080039AA4EB050E92074FEA5C
:100FB0009E0000F103810F2F00F2B180002D00F0A0
:100FC000058107F140020DEB020C019A0CF8200C90
:100FD0000CF8102C049801300490E7E07A285DD8D2
:100FE0004B280ED8472859D829282DD8252852D043
:100FF00054D820287AD02338D0F1000B4BEB000BCB
:1010000074E04C382E2849D8DFE800F07048484892
:1010100048484848484848484B484848484848484D
:101020004859484B4B595959704B6D487048184BAB
:10103000184848827F4B48484B487F0000204FF0BB
:10104000000B4FF0040A38E02A38C0B2012202FA3D
:1010500000F010EA0E0F49D110F0625C2FD110EAB7
:10106000020B43D06046013C5444B4FBFAF40AFB43
:1010700004F4002D61D0A3EB050CA444B4453FF665
:101080006BAF002868D1042B47D158F8043B23608C
:10109000043404232AE0019A013A01924FF0000B34
:1010A00024E011F8010C6C2834D111F8023C002026
:1010B0006C2B8346C5D14FF0080A5346D3E708F19D
:1010C000070828F007080734F8E802AB24F0070403
:1010D00035B106982044B0423FF63EAFC4E900ABBC
:1010E00008344FF0000B4FF0080A534611F8010F77
:1010F000002878D0BBF1000F7FF470AF2528F5D120
:10110000019B013301934FF0010B4FF0040AECE710
:10111000584694E700208346A5E7082B02D06FF0DD
:1011200015001BE708F1070828F00708F8E8022374
:10113000C4E9002308340823D8E768B9042B02D196
:1011400008F10408A4E7082BE9D108F1070828F002
:10115000070808F10808EDE7059A013A059258F8E2
:10116000042B009210E7039A900720D5A4EB050EFC
:101170004FEA9E004FF0010CBEF5007FCFD20F2F3B
:10118000CDD8F5B107F140020DEB020EC0B2019AC5
:101190000EF8200C0EF8102CBCF1000F3FF41AAF23
:1011A00060F07F000EF8200C09F101090137C5F14C
:1011B0000802043406924FF6DA7E97E74FF0000CEF
:1011C000DAE7BCF1000F01D00136EFE702980236F2
:1011D0000028EBD10098CDE90631FEF799FFDDE953
:1011E00006310644E2E7631BB3F5806F97D23DB941
:1011F000A6F10804E018B1E664800000A88E0000A3
:10120000029A28609B082B709DF81030C2B1EB70D9
:1012100085F80290B9F1000F05D008A80022C5F1A9
:10122000010C97420ED1C5F101030DF120084FF0DA
:10123000000A01930DF1300B574512D1601B8DE66A
:101240006B70E5E710F8013B190608D50CEB040EAE
:10125000B64503F07F033FF67FAE04F8013B013251
:10126000DFE7B9F1000F03D098F90020002A17DB5F
:10127000029BD3B11AF80B2004F8012B0022019B2A
:1012800018191044B0423FF667AE98F8000004F811
:10129000010B00990392204606F061FE039A144464
:1012A0000AF1010A08F10108C6E798F8002055F88C
:1012B00022300093029B45F822300098FEF728FF69
:1012C000421CDCE76FF00D0048E600BF80B5054624
:1012D0000E461746984604F00FFE034606F0B8FE89
:1012E000DFF81890044649F8003042463046394647
:1012F000A84754F8090001F08FFA00BF0800000069
:101300002DE9F047058B04462807904611D40229A1
:1013100005F0070540F0CC80204605F028FE78B1A6
:101320000138218B042811D8DFE800F0C2106D8548
:10133000950001290CBF45F0100545F020052583D7
:1013400088F31188BFF36F8FBDE8F08701F0070ABB
:10135000AA4500F0A5800027B9463E46A368002BA9
:1013600000F0BC8041F00801218388F31188BFF3AD
:101370006F8FA168002900F0BA800D68002900F085
:10138000B680D1F80480334652462046C047002D2F
:1013900076D02B6829461D46F0E701F007035A1F57
:1013A000012A1BD8002221F00701062B276889B2E9
:1013B000C4E9002209D13B4603E0628B013262831B
:1013C0001B68002BF9D141F002012183204605F072
:1013D000CEFD00287AD041F0200176E0042B0AD11E
:1013E00021F0070189B22183204605F0C0FD10B12C
:1013F00041F020012183218B01F0070AAA454FD03B
:101400000027B946AAE7236921F0070141F0060148
:10141000062DD3F8009021832DD1B9F1000F3FD0D4
:1014200041F00801218388F31188BFF36F8F3A4997
:101430002046C84729E021F00701236941F0040153
:1014400089B2042DD3F804902183E6D000273E46CC
:101450004FF0040A82E721F00701236941F00501FA
:1014600089B2052DD3F808902183D6D000273E46B7
:101470004FF0050A72E700273E464FF0060A6DE777
:101480002B4687E7B9F1000FD1D1EFF31188202364
:1014900083F31288BFF36F8F238B23F0080323831A
:1014A000258BEA062ED525F01003238305F00705CA
:1014B0006669218B002EBFF670AF00232768C4E950
:1014C000003321F0070141F001012183218B01F05C
:1014D000070AAA454FF000097FF440AF002F9CD0C7
:1014E00041F00801218388F31188BFF36F8F002F2B
:1014F000C8D03D68394633465246204605F063FD64
:101500002F46F4E7AB067FF51BAF25F020032383BE
:1015100005F0070500E700BFF36F00002DE9F84F65
:10152000814630480F4605F0FEFD064670B92E4C48
:10153000DFF8B8B00546A0464FF0010A5C4507D376
:10154000B9F1000F02D04FF0010AFDB9BDE8F88FE4
:10155000237B83B12368DB680BB12046984763681F
:1015600083F806A023681B6943B9636804221968DD
:10157000204605F0FDFD01361034DFE72046984790
:101580000028F2D00AFA06F31D43F4E7A94695FABB
:10159000A5F4B4FA84F40AFA04F3260108EB04145F
:1015A0006FEA030B25EA0305237B63B158F8063085
:1015B0001B6993B94644042273682046196809EAF6
:1015C0000B0905F0D5FD002DE1D127B14FF4A47032
:1015D000002106F0B1FB4D46B7E7204698470028AA
:1015E000F1D1E7E7B009002018830000288300004C
:1015F000014B53F8200070474883000008B50346AC
:1016000008462BB1044A136000F080FA002008BDA0
:101610006FF01500FBE700BFC80500200C4A0D481D
:10162000002310B513700C4A13600C4A4FF40041AC
:101630001360FFF7E3FF0A4B0A4918468B4200D3B9
:1016400010BD1A1A5C681211013222711033F5E7CD
:10165000DA0B002023710000A8090020AC0900204B
:10166000188300002883000070B50B4D297841B91C
:101670000120FFF753FF094C094EB44202D3012366
:101680002B7070BD63685B791BB1236820469B6833
:1016900098471034F1E700BFDA0B002018830000F0
:1016A0002883000010B50446084805F03CFD5CB1F5
:1016B000BFF35B8F064B53E8001F013943E800126C
:1016C000002AF8D1BFF35B8F10BD00BFA80900202E
:1016D000AC09002070B50A4B0A4C1B680A4E05463F
:1016E0009847A860B44200D370BD63685B7923B1AA
:1016F000236829461B68204698471034F2E700BF4C
:10170000C80500201883000028830000044A054B08
:101710009B1AB1EBD30F34BF52F831000020704751
:10172000C8820000188300002DE9F04F87B004AF95
:10173000D7E90EA93D6B04460E4693469846BAF18A
:10174000000F1ED0C7F80490CDF8009010217A6BDE
:1017500053460020FFF7E8FBB0F5006F014611D3B8
:1017600040F2FF730393194B02930023CDE900333A
:1017700017490222184605F01DFD0C37BD46BDE88D
:10178000F08F514604F007040BF0070BE40044EA25
:101790008B1444EA412444EA055417350D4425F0DE
:1017A0000705ADEB050D04ADBAF1000F07D0CDF87C
:1017B00000907A6B534605F11000FFF7B5FB4346E6
:1017C00022463146284605F0DCFCD6E7D3850000EA
:1017D000E0820000406820B1034BC01A40F3CF0004
:1017E00070474FF0FF307047C88200000EB403B559
:1017F00003AB014653F8042B0448019301F0C6FAE9
:1018000002B05DF804EB03B0704700BFF171000057
:10181000CA0605D48B064CBF02490349FFF7E6BF51
:10182000704700BF0C8600000B8600002DE9F04FCA
:1018300087B004469DF844600D4690469946002EB8
:1018400000F0A280159B03F0020A03F00103049349
:10185000159B03F0080B03F48073059305F086FCD9
:10186000024600283DD095492046FFF7BFFF0746B6
:10187000BAF1000F09D0159B13F0440F33D19049F2
:101880002A462046FFF7B2FF0744049B53B18D4B15
:101890008D4953F826208D4B2046002A08BF1A4652
:1018A000FFF7A4FF059B002B49D0BBF1000F64D1CB
:1018B000B8F1000F66D0864942462046FFF796FFF2
:1018C0000546129B3D44002B6DD1149B002B73D118
:1018D000159BDB0700F1EB8015992046FFF798FF79
:1018E000D8E00746C4E77B4B18680028CCD07A4B79
:1018F0004FF47A7A1B68B5FBF3F54FF46163B5FBDF
:10190000F0F100FB11550AFB05F54FF03C0CB1FB63
:10191000F3F203FB1211B5FBF0FEB1FBFCF300FB8D
:101920001E550CFB13110AFB05F50091B5FBF0F5F4
:101930006A49CDE901E52046FFF758FFA4E7BBF16E
:10194000000F1DD0664B674953F826202046FFF74D
:101950004DFF0546B8F1000F05D05D4942462046CF
:10196000FFF744FF0544B9F1000FAAD05E494A468B
:101970002046FFF73BFF0544A3E74FF00009E1E7EE
:101980005D46E7E745469CE7B9F1010F129B06D19A
:10199000002B66D1149B002B7CD000250CE0002B83
:1019A000F8D052485EE05248129B5249224605F058
:1019B000A0FA149B002B6AD0DFF83C81DFF83C9141
:1019C000149F1599102F204628BF1027FFF720FFDE
:1019D0004FF0000B5D4547DC139B49461A782046C3
:1019E000FFF704FF4FF0010B1BF0070F03D1414637
:1019F0002046FFF7FBFE5F453DD9139B494613F890
:101A00000B202046FFF7F2FE0BF1010BBBF1100F8C
:101A1000EAD13B49DFF8ECB020464FF0000AFFF76F
:101A2000E5FE5246139B9A5CA2F120015F2928BF74
:101A30002E2259462046FFF7D9FE0AF1010ABAF1D3
:101A4000100F1DD01AF0070F03D141462046FFF7B3
:101A5000CDFE57455246E5D841462046FFF7C6FE23
:101A6000EBE7234835469FE741462046FFF7BEFE99
:101A70000BF1010BAEE724492046FFF7B7FEC3E7A1
:101A8000139B3B441393149BDB1B149398D1002EA0
:101A90007FF41EAF6268A1682068D2E9002305F0D8
:101AA00099FB636800221A6007B0BDE8F08F074A0F
:101AB00005492046FFF79AFE0EE700BF1386000097
:101AC0001786000058830000758C00000E86000009
:101AD0003C860000B8090020B409002020860000E0
:101AE0006C83000040860000468600000D720000F6
:101AF000F17100008D2D0000538600004B86000020
:101B0000558600005786000051860000074A0021D4
:101B10000123904206D8064A01B901231360054B00
:101B20001860704740085B000121F2E740420F0057
:101B3000B4090020B8090020014B01221A70704737
:101B4000DB0B0020014B002019607047D0090020FA
:101B500010B5064B18680C46FFF74AFD21460346B0
:101B6000BDE8104002480F22184700BFD0090020EE
:101B70009C830000F8B5094D094B0A4ED5E9004792
:101B800001221A700CB92C60F8BD214630463A4645
:101B900000F00AF8241A0644F4E700BFC409002044
:101BA000DC0B0020DD0B0020F8B5194D07460E4672
:101BB000042432463946002003F0D6FAC8B1012386
:101BC0002B70144B1B782BB93046F8BD5CB92C70C8
:101BD0004FF0FF34002003F00BFB0028F4D02B78EB
:101BE000002BF3D1F0E7013C41F2883005F03EFFD5
:101BF000F0E72B7813B1013C04D12C702B78002B2B
:101C0000D7D1E1E741F2883005F030FFF6E700BFB9
:101C1000DB0B0020DC0B0020014B03600020704731
:101C2000AC83000070B5046A0D46002C3FD0244AF6
:101C30002379565CB3423DD0224A525C9A423CD151
:101C4000A3689847002814DA022D10D0032D0FD175
:101C500010F1860F0BD0BFF35B8F54E8003F43F0C9
:101C6000020344E80032002AF7D1BFF35B8F2671EC
:101C700070BD022D267101D00020F9E7BFF35B8F04
:101C800054E8003F23F0040344E80032002AF7D16F
:101C9000BFF35B8FBFF35B8F54E8003F23F0020379
:101CA00044E80032002AF7D1BFF35B8FE4E76FF01E
:101CB0005700DDE76FF07700DAE76FF08500D7E7D0
:101CC000AD860000A98600007FB50BAB059303939A
:101CD000054B02930023CDE9003302221846FFF79B
:101CE00023FD07B05DF804FBB18600002DE9F04349
:101CF000894685B00521054605F02CFB17461E4692
:101D0000044630B3DFF8908098F8001029B305F04E
:101D100098FF4FF0FF33421E43F1000305F1180016
:101D200005F021FB041E34DB4946EB68BBB91B4AB6
:101D30001B490093CDE9013218460222FFF7C4FF88
:101D40006FF0770498F800301BB105F1180005F02A
:101D50000CFB204605B0BDE8F0830C46E5E7013BEF
:101D6000EB60002BEED141B102232B713A46334692
:101D700005F1380003F0FEFDE4E7AB6868699847B9
:101D8000041EB7BFEB6801230133EB60A8BF2B71C2
:101D9000D8E76FF00F04DCE7E00B0020B18600000D
:101DA000008300002DE9F347056A064625B90024A3
:101DB000204602B0BDE8F0870521284605F0CAFAA2
:101DC0000028F4D0306A082105F0C4FA074660B351
:101DD000EFF31187202383F31288BFF36F8F356AE7
:101DE000EA682B68E2B95A070AD4AB680121304689
:101DF0009847041E0EDA87F31188BFF36F8FD7E779
:101E00002869036A1B68DB050CD5FFF7CBFF041EAE
:101E1000EBDAF0E700232B71EB680133EB60EAE7C4
:101E20000024F9E76FF00A04E5E73F4E347854B137
:101E300005F007FF421E67F1000305F1180005F0E9
:101E400092FA041E6DDB05F0FCFE10B12B79022B1B
:101E50000ED02F6917B33846FFF7A4FF044648B9E0
:101E60000121284605F076FA60B1384605F07FFA80
:101E70006FF00A043378002B9AD005F1180005F0B2
:101E800074FA95E7BFF35B8F55E8003F43F0040316
:101E900045E80032002AF7D1BFF35B8FEB680133CE
:101EA000EB602B79022B08D105F1380005F0B6FE66
:101EB00010F0010001D12871DCE7337843B105F15E
:101EC00028074FF0FF384FF0FF392B79022B10D045
:101ED000EB68012BCED8AB68686901219847041ED6
:101EE000B7BFEB68002303F1FF33EB60A8BF2B7192
:101EF000C0E70321384605F1180A06F029F85046D4
:101F000005F033FA0022CDE900890321384606F0B6
:101F100023F84FF0FF324FF0FF33504605F023FA1D
:101F2000D3E76FF00A0443E7E00B0020F8B5056A39
:101F30000646002D61D00521284605F00BFA002841
:101F40005ED1304605F0A5F9044600285AD1306A22
:101F5000082105F0FFF9E0B1356AEFF3118720237E
:101F600083F31288BFF36F8F297931B9AB6830469C
:101F70009847041E07DB01232B712B6843F02003D5
:101F80002B600023EB6087F31188BFF36F8F20462F
:101F9000F8BD1E4F3B783BB14FF0FF324FF0FF339F
:101FA00005F1180005F0DFF96B692BB918496E616E
:101FB00005F1380005F026FE2979E1B9AB686869BA
:101FC0009847041E0FDB01232B710023EB60BFF346
:101FD0005B8F55E8003F43F0200345E80032002ABC
:101FE000F7D1BFF35B8F3B78002BD0D005F1180001
:101FF00005F0BBF9CBE70024E7E76FF08504C6E7FF
:102000000024C4E76FF00F04C1E700BFE00B00201D
:10201000C973000008B5044804F09CFFBDE80840FF
:10202000024804F097BF00BFC4860000F986000094
:1020300070B5064686B00D46002938D08B680593EA
:102040004B6804930B6803930024244B24490293A8
:10205000012223462046CDE9004405F0FAF96B69D8
:1020600005932B690493EB6803931E4B1C49009462
:10207000CDE9014301222346204605F0EAF9EB6948
:102080000393194B16490094CDE9014301222346DD
:10209000204605F0DEF9AB690393144B1049009418
:1020A000CDE9014301222346204605F0D2F9012E55
:1020B0000DD1EFF30583103B03930D4B02930023E7
:1020C000CDE9003306493246184605F0C2F92946E3
:1020D000304606B0BDE8704003F0C0B82787000066
:1020E000F882000056870000858700009487000072
:1020F000C287000030BFFFF7FDBF00BF2DE9F041F0
:102100000B4EDFF8308006EB0807CC1B0546324645
:102110000949204605F023FFA01942460021083C4A
:1021200005F02BFFC5F8804007F10800BDE8F081FD
:10213000000000000400000028830000054B5A69DD
:102140009B689A421FBF044A536843F08053536010
:10215000704700BF100B002000ED00E0F0B585B027
:102160000024434B0293CDE90044234607460E4624
:1021700001224049204605F087F93F4B9B6ADB046A
:1021800065D53E4B3B490094CDE9014320462346AB
:10219000012205F079F91720374B9B6A1D050AD5F6
:1021A000374B029300231846CDE900333149012211
:1021B00005F06AF91820304DAB6A9C051FD5002444
:1021C000304B0293012223462046CDE900442949A1
:1021D00005F05AF9AB6BAA6A10040FD503932A4B8A
:1021E00024490094CDE9014301222346204605F00D
:1021F0004BF91FB1AB6A23F40043AB6219201E4BAD
:102200009B6A59050AD5214B029300231846CDE954
:1022100000331849012205F037F91A20164A936A4B
:1022200013F4807315D01A4B029300231846CDE99E
:1022300000331049012205F027F91B200E4A936A4A
:1022400043F47F4393620023337005B0F0BD162042
:10225000A2E7926A9204F1D50E4A06490093CDE9AD
:1022600001321846012205F00FF91C20E6E700BFF5
:10227000D5870000F882000000ED00E0EB87000049
:10228000FC8700000F880000288800003D880000BF
:1022900058880000708800001FB50024374B029357
:1022A00001222346CDE900443549204605F0ECF8EB
:1022B000344B9B6A9A015ED5334B31490094CDE98A
:1022C000014320462346012205F0DEF81E202D4B57
:1022D0009B6ADB010AD52D4B029300231846CDE9FA
:1022E00000332749012205F0CFF81F20254B9B6AB8
:1022F0001C030AD5264B029300231846CDE9003370
:102300001F49012205F0C0F821201E4B9B6A59038A
:102310000AD5204B029300231846CDE90033184913
:10232000012205F0B1F82220164B9B6A9A030AD5C8
:10233000194B029300231846CDE9003310490122BE
:1023400005F0A2F823200F4B9B6ADB030AD5134B41
:10235000029300231846CDE900330949012205F014
:1023600093F82420074A936A6FEA03436FEA134302
:10237000936204B010BD1D20A9E700BF9F88000034
:10238000F882000000ED00E0B7880000CA88000075
:10239000E4880000028900002789000041890000CC
:1023A0002DE9F04385B000244D4B0293CDE9004464
:1023B00023468046894616464A490122204605F0B2
:1023C00063F8494B9B6ADF0640D5484B0094CDE942
:1023D0000143204623464349012205F055F81124C4
:1023E000414B9B6A1D070AD5414B02930023CDE95F
:1023F00000333C490122184605F046F812243A4DB4
:10240000AB6A980724D500243A4B36490293CDE9AC
:10241000004423460122204605F036F86F6BAB6A74
:10242000190659D5344B2F490397CDE90143009440
:1024300023460122204605F027F8B9F1000F03D00A
:10244000AB6A23F08003AB62132403E01024C7E7D8
:102450006FF01507244B9B6ADA070AD5274B0293C6
:102460000023CDE900331F490122184605F00CF87E
:1024700014241D4B9B6A9B060AD5214B0293002313
:10248000CDE9003317490122184604F0FDFF152459
:10249000154B9A6AD50602D49A6A90070AD55B68EA
:1024A000190507D54146384600F096FA10B180F379
:1024B000098802240C4B9A6A920642BF5A6A22F497
:1024C00000525A629A6A42F0FF029A622046002342
:1024D000337005B0BDE8F0836FF01507B4E700BFB7
:1024E0006C890000F882000000ED00E082890000A5
:1024F000FC870000B5890000CD890000E389000059
:10250000708800002DE9F041754B5F6890B004467B
:10251000C7F30806002383F31188BFF36F8F02F01F
:102520007F40B0F17F4F0CD102F00C00082819D188
:102530006C4A6D490093CDE901321846012204F03E
:10254000A3FF00252C464FF00008F31E8DF81F80D6
:10255000092B00F2AC80DFE803F00BA0A49CAAAA30
:10256000AAAAAAA8120746BF0C461D460125EAE7FB
:102570005E4B5D495A4FCDF80080CDE901830023C1
:102580000122184604F080FF8DF81F80FE6A16F0C5
:10259000020605D0564BCDF80080CDE9018306E058
:1025A000FB6A002B0BDA534B0096CDE90163002345
:1025B0004D490122184604F067FF00223BE0FB6A08
:1025C0005B00FAD54C4B48490096CDE901630122E6
:1025D0003346304604F058FF7B69A26943F48073A8
:1025E0007B61BFF34F8FBFF36F8F7B6932F8022C93
:1025F00023F480737B61BFF34F8FBFF36F8F4DF672
:1026000002739A420AD0BB6ADBB2002B33D00DF1C1
:102610001F0201212046FFF7C3FE3CE0236803931D
:10262000364B31490096CDE90163012233463046ED
:1026300004F02AFF22689DF81F30CBB908AE04F1E0
:10264000200720686168334603C30834BC421E4635
:10265000F7D10F9B002D3ED0C3F3080121B96FEADB
:1026600053236FEA43230F9308A91046FFF7E0FCBA
:1026700010B0BDE8F081BB6A13F47F4F05D00DF1B7
:102680001F010120FFF76AFD05E0BB6AB3F5803F3B
:1026900093D3FFF701FE0246CDE70DF11F020021A3
:1026A000B8E70DF11F010020ECE7154B73E7154A61
:1026B000154B0D4917F4F87F18BF1346103ECDE9AE
:1026C0000336124B02930023CDE900330122184652
:1026D00004F0DAFE71E723F4FF7323F00103C2E78D
:1026E00000ED00E0308A0000F88200005B8A000004
:1026F000728A0000938A0000A18A0000C08A00004C
:10270000DC8A0000178A0000028A0000008B0000AB
:10271000044B5A6942F010025A615A6922F00802C9
:102720005A61704700ED00E0EFF30880EFF3098194
:1027300001B57246FFF7E6FE01BD00BF002080F341
:102740001488BFF36F8F0F4880F3088801F00AFDEB
:1027500000200D490860BFF34F8F00F02BF82020B8
:1027600080F3118809484FF40461401880F3098808
:10277000EFF314800221084380F31488BFF36F8FB6
:1027800000F0FAF8002A002094ED00E0401C002040
:102790000749D1F890200023C2F30722184693423C
:1027A00000DB7047C1F89830C1F8A0000133F6E7AC
:1027B00000ED00E008B572B6002383F31388FFF73D
:1027C000E7FF144B4FF0FF32C3F88020C3F884209A
:1027D000C3F88820C3F88C20C3F89020C3F8942055
:1027E000C3F89820C3F89C20C3F88021C3F8842143
:1027F000C3F88821C3F88C21C3F89021C3F8942131
:10280000C3F89821C3F89C2162B6BFF34F8FBFF382
:102810006F8F08BD00E100E0084B9B6883420BD13D
:10282000EFF3058343B1064B5A6842F080525A6079
:102830005A6A22F400425A6203F064BB100B002073
:1028400000ED00E015498A684FF030001044EFF3C6
:10285000098C80E8F01F202080F31288BFF36F8F6F
:102860000F4F4FF000664A698A603E60D2F88000E0
:102870000C4C2060D2F884000023C2F8843080F32E
:10288000118804B5104600F00DF9BDE8044002F1CE
:10289000300090E8F01F8CF309887047100B00207F
:1028A00004ED00E0D40900201EF0040F0CBFEFF38C
:1028B0000880EFF30980816911F8021C0229FFD01A
:1028C00001B5724604F0D5FD01BD00BF40B200283D
:1028D00007DB044A4109012300F01F00834042F84E
:1028E0002130704700E100E040B200280CDB4309D2
:1028F000064900F01F0020330122824041F82320C6
:10290000BFF34F8FBFF36F8F704700BF00E100E050
:10291000054B420900F01F0053F82220012303FA5F
:1029200000F01040704700BF00E100E040B2002816
:10293000A8BF00F1604001F10101B8BF064B4FEAAA
:102940004111ACBF00F5614000F00F00C9B2B4BF47
:10295000195480F80013704714ED00E0044B054A49
:1029600023F07F039360BFF34F8FBFF36F8F7047E8
:102970000000000000ED00E008B5FFF7EFFF074A98
:10298000D2F8883023F47003C2F8883002F044FD96
:1029900003F0ECFB00F05CF802F082FD00ED00E0DB
:1029A00042F8203C009B42F81C3C0A49019B42F83B
:1029B000183C029B42F8143C21F001014FF0807357
:1029C00042F8043C42F8081C0023203A0265C0F893
:1029D00084307047CD120000094A0346906870B1F8
:1029E00013F1160F006F05D0A0F140029A4205D8EE
:1029F000834203D2814228BF0020704700207047E5
:102A0000100B002008B515460A4A0B4B9060D0F811
:102A100080201A600E4600F045F82C4686F309889F
:102A20000020064B98472046002100220023044C3A
:102A3000204700BF100B0020D4090020B174000013
:102A4000CD120000014B10221A61704700ED00E02A
:102A5000044800232021C2180133272B82F80013D9
:102A6000F9D1704700E100E008B5EFF30583064AAD
:102A7000103B02EBC30152F8330049688847BDE8B8
:102A80000840FFF75BBB00BF18810000024B034A00
:102A90000348012100F096B800000120000000204A
:102AA000AC830000026F054B403A1A60044A402193
:102AB000C3E901121846012100F08EB8D8090020A0
:102AC00000000B151FB5144AD2F89030C3F307234A
:102AD000013B98420FD9114B029300230390CDE99B
:102AE000003318460E49012204F015FD6FF0150061
:102AF00005B05DF804FBC2F898000B6823F01F03D3
:102B0000034343F01003C2F89C308B6843F0010389
:102B1000C2F8A030ECE700BF00ED00E0178B00002A
:102B2000F0820000F0B50E4689B01F46044600252D
:102B3000B54212DA606838B3BFB1431E18420FD0F5
:102B4000134B02930023CDE9003312490395012270
:102B5000184604F0E0FC6FF01502104609B0F0BD15
:102B60001F28EDD921680B42EAD12368059304F0B0
:102B7000C2FCA36805A90343D0B20793FFF7A2FFE5
:102B800010F1160FE7D0421C01350C34D0E700BF1E
:102B90003D8B0000F0820000044B0522C3F8942016
:102BA000BFF34F8FBFF36F8F704700BF00ED00E0A2
:102BB000BFF35F8F024B0022C3F89420704700BF21
:102BC00000ED00E010B5034C01232278FFF7AAFFC7
:102BD000207010BDDE0B002008B50B4A00231278D0
:102BE000FFF7A0FF10F1160F07D0084A0021D2F816
:102BF0009030C3F30723984200DB08BDC2F8980069
:102C0000C2F8A0100130F2E7DE0B002000ED00E07A
:102C10002DE9F04357485849D0F890300D68C3F378
:102C200007239D4285B000F2A180FFF7C1FF4968EC
:102C30000022954201F10C011AD1504C504F2570E1
:102C40006846FEF7E9FFDFF83C81DFF83C91064675
:102C50000025AE421FD1237846490020D1F89020AC
:102C6000C2F3072293427BDBFFF796FF00204CE084
:102C7000C0F8982051F80C3C23F01F03134343F095
:102C80001003C0F89C3051F8043C43F00103C0F835
:102C9000A0300132CDE7009800EB05114FEA051C8A
:102CA000CB683B40B3F5000F44D00AD8B3F5001F02
:102CB0002ED0B3F5800F34D0B3F5801F10D001357E
:102CC000C7E7B3F1807F3ED0B3F1007FF7D150F872
:102CD0000C3088684A6804F00EFC40F4802009E05B
:102CE00050F80C3088684A6804F005FC40F08850C1
:102CF00040F43020039001A92078CDE90123FFF7AB
:102D0000E1FE002828DA6FF0150005B0BDE8F08379
:102D100050F80C3088684A6804F0EDFB40EA08007F
:102D2000E8E750F80C3088684A6804F0E4FB40EAB1
:102D30000900DFE750F80C3088684A6804F0DBFBD4
:102D400040F08270D6E750F80C3088684A6804F08A
:102D5000D2FB40F08870CDE7237801332370AEE7D3
:102D6000C1F89830C1F8A000013377E74FF0FF3089
:102D7000CBE700BF00ED00E0B8830000DE0B0020D1
:102D80000000F0FF0000081100000206F0B587B057
:102D900007460E4614460021102268461D4605F0DF
:102DA000ECF802238DF802302A46054B01932146A8
:102DB0006846CDE9047603F071FB07B0F0BD00BFB3
:102DC0003775000008B50649064821F00701C1F132
:102DD000005202F5803204F034F8002008BD00BF34
:102DE000872E0020E4090020044A0123C2F8403560
:102DF0004FF080420020C2F87835704700E0014073
:102E000020B1034B800143F001031847704700BF16
:102E100040830000084B70B5C31A0D4607499B104C
:102E2000044659430648402204F094FB2B460146D1
:102E30002046BDE870401847040A0020B76DDBB695
:102E4000AC80000073B50C4C0C4A4023041B00936B
:102E50000D460B460A49A41061430646094804F092
:102E6000A4FB011E05DA30462B4602B0BDE87040D7
:102E7000184702B070BD00BF040A0020137600009E
:102E8000B76DDBB6AC800000002270B501210446AE
:102E90001046FFF74BFD0F4801F046FB0E4B9842E2
:102EA00015D101F051FB26690C49304604F0AEF80B
:102EB00000280BDB012535642469084904F11C0056
:102EC00004F0A4F8002801DBE564002070BD6FF079
:102ED0000400FBE7313000000000AD0BD883000098
:102EE0001FB500220123CDE90223094ACDF800D005
:102EF0006B46CDF804D004F085FB002805DB4FF4C9
:102F000080420023684602F069FB05B05DF804FBCF
:102F10002B76000010B5074C23782BB94FF4A57021
:102F200004F0A4FD01232370BDE81040002001F04F
:102F30001DBB00BFDF0B002010B5EFF31184202371
:102F400083F31288BFF36F8F074A136823F00201DF
:102F5000DB07116002D4012004F0B3FC84F3118874
:102F6000BFF36F8F10BD00BF540A002030B4104B68
:102F70000C2202FB003301460020D3E90E52986375
:102F8000EFF31180202484F31288BFF36F8F1C6C41
:102F900004F0C00444F002041C6480F31188BFF301
:102FA0006F8F1DB12B46034830BC184730BC7047AB
:102FB000040A0020AC80000010B4EFF3118220233B
:102FC00083F31288BFF36F8F1748016841F0020442
:102FD0000460C80707D482F31188BFF36F8F012004
:102FE00010BC01F0C3BA4FF08041D1F80C04D1F805
:102FF0000C14C907EFD5EFF3118083F31288BFF3E8
:103000006F8F0A490B6C03F0C00343F002030B649B
:1030100080F31188BFF36F8F82F31188BFF36F8F36
:10302000002010BCFFF7A2BF540A0020040A0020B1
:1030300010B1012804D07047034B1B6C5B0701D112
:10304000FFF794BF704700BF040A00202DE9F0414C
:103050003849BFF35B8F0746012251E8003F41E842
:1030600000200028F9D1BFF35B8F33B932493348D0
:103070004B60CB608A6003F0DCFF7B1E012B2BD8FA
:10308000012F07D14FF08043D3F81C3403F0030322
:10309000012B21D004F0D5FD0546F8B9284B1B784B
:1030A000E3B14FF080430222C3F808230646DFF85D
:1030B00094804FF08044D4F81824D4F81834D20304
:1030C00015D503F00303012B01D0012F0FD155B308
:1030D00086F31188BFF36F8FBDE8F081EFF311869F
:1030E000202383F31288BFF36F8F0125DFE7ADB193
:1030F000304604F0F1F9D4F81835002BDBD1D4F8C0
:103100000421002AD7D0C4F80431D4F804310123B3
:10311000C4F81835C8F88031A360CCE7002121201D
:1031200004F00AFEE7E74FF080430222C3F80423CD
:10313000D2E700BF000A0020F0090020200A00208A
:10314000E00B002000E100E070B545682B69064601
:10315000B3B11035284601F003FD044680B901469D
:10316000284601F0D9FC0B4B98420FD10A49224660
:10317000284601F0B9FC224605210620FFF7D6FBC0
:1031800030460649BDE8704004F099B86FF004007D
:1031900070BD00BF0000AD0BA131000091760000B2
:1031A000430970B507D10B4B596821B101250C6853
:1031B000094E854001B970BD8A682A4002D04B682B
:1031C000304698471CB1236821461C46F2E7234647
:1031D000FAE700BF580A0020D08000002DE9F04F28
:1031E00040F2063BD0F8048087B00D4602EA0B0B94
:1031F000D10654BFC2F340130323BBF5837F98F875
:103200000C908DF803300646144622D014D8BBF13A
:10321000060F20D00AD8BBF1000F1CD0BBF1020F63
:1032200020D06FF0150007B0BDE8F08FBBF5807FB0
:10323000F7D14FF0010B0EE040F20222934514D07B
:10324000BBF5407F14D0BBF5007FEAD14FF0020BF5
:1032500001E04FF0070B3046FEF7A4FD071E0ADA27
:103260003846E0E74FF0040BF5E74FF0050BF2E7C7
:103270004FF0030BEFE7220331D5D8F804300122D9
:10328000AA40C3F80825D8F8102005F01F0545EA24
:1032900049156ABB05F01F036D097BD19B0003F143
:1032A000A04284F48033D2F80017C3F30043C4F380
:1032B000404444EA43049DF8033021F4E16144EAC8
:1032C000830321F0070143EA010444EA0B24C2F816
:1032D0000047304604F04BF8002FA4D0C0E763034A
:1032E00041BF0123D8F80420AB40C2F80C35CAE72F
:1032F00008F110080DF102022946404601F0FAFBE0
:1033000014F4403F81460CD12946404604F04BFB63
:10331000234B9945DDD19DF80210404601F02AFC6F
:10332000D7E701AB4FF0000A03AA29464046CDE992
:10333000043ACDE901AACDF80CA001F0ABFA184B84
:10334000984203D0304604F012F86AE714F40033D0
:1033500015D09DF803308DF80E3084F48034C4F31A
:103360000044534603AA294640468DF80CB08DF818
:103370000D4001F043FB0A4B9842C9D0E2E7CDE98A
:10338000043303AA0DF1030329464046039301F0D9
:1033900081FAF0E703F5E07352F82330FFDE00BF57
:1033A0000000AD0BF0B516464268107B01F01F041B
:1033B00044EA4014106987B000286ED0B6F5001FAB
:1033C00002F1100506D12146284604F0EEFA00204D
:1033D00007B0F0BD01A80027B6F5800F0197476040
:1033E00038D1B3F1007F14BF052304238DF80430D6
:1033F0000023CDE904030393936823FA01F111F04C
:1034000001010DF103073AD1B6F1A07F37D104F0E5
:103410001F03620903F5E07345D14FF0A04252F853
:103420002330DB072BD43A462146284601F062FBC5
:103430001E4B984219D0029703AA2146284601F054
:1034400029FA1B4B98422BD101222146284601F034
:10345000A1FBBCE7B3F1C06F05D0B3F1007F14BF8F
:1034600001230223C2E70323C0E73946284601F0BF
:1034700089FB0F4B9842DED06FF00B00A8E73A466D
:103480002146284601F036FB094B9842D4D19DF8DD
:103490000310284601F06EFBCEE76FF0850097E73A
:1034A0006FF0150094E751F82330FFDE0400AD0BF8
:1034B0000000AD0B2DE9F04FDFF80081DFF800913F
:1034C0008C46002740F2FF1EFBB29C4502D800202C
:1034D000BDE8F08F50F82730C3F3C72414F0080478
:1034E000C3F3C321C3F3080A57D1F24518F80150BA
:1034F0004FEA136136D0052926D006293CD1C2F8FF
:1035000010A5264650F8271001F4004BBBF1000F20
:103510001CBF002601245FEA5A1A03F01F0346D19C
:103520009B0003F1A043C1F3412BD3F800A729026C
:1035300041EA8B010AEA090A41EA0A01314341EAF8
:103540004401C3F8001715E0C2F80CA501245FEA96
:103550005A1128D101264FF0A04106FA0AFBC1F802
:103560000CB5CFE7052913D006290AD14FF0FF3358
:10357000C2F810350137A7E7042911D1C2F808A510
:10358000E5E704290CD14FF0FF33C2F80835F1E725
:103590004FF0FF33C2F80C35ECE76FF0150097E7FA
:1035A0006FF0850094E70023C3F80C35FFDE03F5C8
:1035B000E073002252F82330F8E700BFAA8B000026
:1035C000F0F8FCFF2DE9F04145680669286A86B0ED
:1035D000002104F0EEF8041E16DB696A481C24D0B2
:1035E00005F1280000F016FB10F1130F04460FD16F
:1035F000304B02930023CDE900332F4901221846B6
:1036000004F0C8F86FF01204204606B0BDE8F0815F
:10361000411D0AD1294B02930023CDE900332649ED
:103620000122184604F0B6F8EEE7EB699847B56852
:103630000127D6E9023203EBC2039D4204D3304690
:1036400004F0F4F80024DFE7286804F014FA0346D5
:1036500068B92A7904922A68174912680392184AAD
:103660000090CDE90102012204F094F8CAE728682D
:103670002979EB88D0F810C0D0F80880DCF8004039
:10368000DA0754BF43F4B01383F4D01323F4801249
:1036900007FA01FEDB074CBF44EA0E0424EA0E04DD
:1036A000CCF80040D8F800309847041EACDB083551
:1036B000BFE700BFB28B000010830000DD8B00006D
:1036C000FA8B00007FB50546406829698A6C0B6D4E
:1036D0000ABBABB14C6C8B6516461A46C96C02919D
:1036E000CDE9004611B3002B18BF134600226946EE
:1036F000039301F06BFC0E4B98420AD06FF0040369
:103700002C69236304F1200001F034FF002384F8C6
:103710005C3004B070BD4C6C13B19A4228BF1A469D
:10372000002C8A6514BF16460026D7E70B46DDE756
:103730000000AD0B30B5037885B00C4663B98D6DD4
:1037400065B94B6D1C696FF07303236304F12000AE
:1037500001F010FF84F85C5005B030BD8A6C52B1A6
:1037600095421DD9274A28490093CDE901321846D0
:10377000012204F00FF8236DA26D5BB19A4227D9A4
:10378000204B02930023CDE900331F490122184644
:1037900004F000F8606D05B0BDE83040FFF792BF5F
:1037A000521B8A6472B94B6B08334B638B6B013BC2
:1037B0008B6301F1480204F13400383103F0D7FF84
:1037C0006064D8E74B6C002BD5D02B444B64D2E718
:1037D0009B1A23657BB9E36B0833E363236C013BDE
:1037E000236404F1500204F1400104F13C0003F0B1
:1037F000BEFFE064CEE7E36C002BCBD01344E36460
:10380000C8E700BF1E8C0000108300002DE9F04FB8
:103810008DB004690493436805938B889D04074623
:103820008846924634D44FF0FF324FF0FF3304F114
:10383000100001F0D3FEC4F80480D7F81090D7F838
:1038400004B099F85D3023B1D9F80030984500F004
:10385000E080B8F8046016F4006320D0BA4B0293FD
:103860000023CDE90033B9490122184603F092FF45
:103870006FF0850523689B8813F4005304D16360BF
:1038800004F1100001F076FE28460DB0BDE8F08F7F
:10389000A369002BC7D163689942C4D1CDE716F064
:1038A00001020DD03A680392A94AA8490093CDE9D4
:1038B00001321846012203F06DFF6FF01505D9E7BC
:1038C00016F008030AD0A34B0092CDE9012313465A
:1038D0009E490122184603F05DFFEEE7C6F345124C
:1038E000082A04D09C4A0093CDE90132F0E7D8F8C9
:1038F00000509A4A954201D8994AF4E70BF1080E14
:10390000BEE80F000DF11C0CACE80F00DEF8003033
:10391000CCF80030934B9D425AD9934B9D425AD9D3
:10392000924B9D425AD9924B9D425AD9914B9D42FE
:103930005AD9914B9D422CBF4FF000454FF0804526
:10394000B007099506F0040351D5002B14BF0323DB
:1039500002238DF82830C6F300138DF82930DBF8E8
:103960000030D3F80825511C12D016F0020F02F0D7
:103970001F00C6F340014FEA52124FF001033AD143
:10398000002A40F03F814FF0A0428340C2F80C353E
:1039900099F85D302BB1584601F0E0FA002389F820
:1039A0005D304B46754A07A9584601F0A3FA744B9F
:1039B000984229D0734B029300230390CDE9003342
:1039C00062490122184603F0E5FE6FF0040551E755
:1039D0004FF00075B4E74FF08065B1E74FF0006538
:1039E000AEE74FF08055ABE74FF00055A8E7003B3E
:1039F00018BF0123ADE7002A40F007814FF0A04235
:103A00008340C2F80835C3E7012389F85D30C9F85F
:103A10000080012384F85C30059B596A4A1C0FD052
:103A200003F1280000F026F9743009D1564B0293B7
:103A30000023CDE9003345490222184603F0AAFECF
:103A4000BAF1000F40F0A480C4F834A00023A363AF
:103A500004F1480204F1380104F1340003F087FE58
:103A6000049B6064002B40F09C80E363002323648C
:103A700004F1500204F1400104F13C0003F077FE30
:103A8000E06420680023236348B183683BB10121CF
:103A9000083003F0B7FE2368186903F0E7FF3846E3
:103AA000FFF710FE0023A06B1A46824240F082808E
:103AB0000022256C1146A94240F08380934226469D
:103AC00038BF13464FF4FA5202FB03F556F8203B79
:103AD0004FF000081B68B5FBF3F54FF4004CC835F8
:103AE000414640F2E7304FF47A720023E5FB0C01C7
:103AF000FCF7F4FA02460B46304601F06FFD002851
:103B000066D0224B1149CDF80080CDE90183012216
:103B10004346404603F03EFE00250598A56501F0AA
:103B20001DFA84F85D503F696FF07308C7F8308064
:103B300007F1200001F01EFD87F85C50304601F0CF
:103B400073FD454648E000BF3C8C00001083000038
:103B5000568C0000788C0000978C000047E801002C
:103B6000C68C00008FD003001FA107003F420F004A
:103B70007F841E00FF083D0000127A0035370000E8
:103B80000000AD0BF78C00001E8D0000488D00007A
:103B9000DAF800306363002B3FF458AFDAF80430F2
:103BA00055E7049B1B68E363002B3FF45FAF049B66
:103BB0005B685CE7616B01EBC201013249680B4451
:103BC00073E7E06B00EBC10001314068024472E72B
:103BD000256B15F1740F9FD02368002B3FF44AAE7C
:103BE0009A68002A3FF446AE998811F480567FF413
:103BF00041AE186903F03AFF20683146083003F0FF
:103C000001FE37E6C1F80C15FFDE0023C3F80835C6
:103C1000FAE700BFF0B587B001238DF80230022328
:103C20008DF804306B4403930F4601AB0DF1030193
:103C30000024049305460291059400F0A3FF0C4B69
:103C4000984206460FD103AA3946284600F022FEC4
:103C5000B0420BD09DF80310284600F08BFF6FF0A8
:103C6000040007B0F0BD6FF01200FAE72046F8E755
:103C70000000AD0B2DE9F0410D46064603F097FE1E
:103C8000002207462946304600F084FF6B0905F004
:103C90001F0429D1A40004F1A044164BD4F8002736
:103CA000134043F00C03C4F8003703F0F5FD8046E1
:103CB0003368DB597BB100273046294603F075FE97
:103CC000D4F800270B4B134043F00403C4F800372B
:103CD0003846BDE8F08103F0DFFDA0EB08000628C0
:103CE000E6D96FF07307E7E704F5E074002353F8B3
:103CF0002430FFDEF0F8FCFF70B5012383400E4A4C
:103D0000BFF35B8FDC4352E8001F01EA040542E881
:103D10000056002EF7D1BFF35B8F4FF48032824004
:103D20000648C0F80823BFF35F8FBFF36F8F0B42C5
:103D300014BF0120002070BD680A0020001001405F
:103D400070B40E49D1E90034D01AC31844F100040C
:103D500022F07F46C1E90034A6F50013B3F5400F09
:103D600009D2074B1B681A0A1B069C19054B42F126
:103D70000005C3E9004570BC02F0D4BA000700207A
:103D80006C0A00200807002011B3BFF35B8F0123EA
:103D9000104A834052E800CF4CEA030C42E800C1CD
:103DA0000029F7D1BFF35B8F0B4A4FF48033834078
:103DB000C2F80433094BBFF35B8F1B68BFF35B8F03
:103DC000C340DB0742BF064B4FF40032C3F800216B
:103DD000704700BF680A002000100140640A0020FC
:103DE00000E100E00D4B1868010A0006BFF35F8F89
:103DF0000B4BD3F80435181841F10001B3F5801FBF
:103E00000AD2084BD3E90023904271EB030303D29B
:103E100010F1807041F10001704700BF6C0A002072
:103E200000100140080700202DE9F04F85B016462C
:103E30001F469DF840A00446FFF75EFF0190FFF784
:103E4000D1FFB04271EB070354D23E4B301A67EBFF
:103E50000101984271F100014FD23B4B03EB041377
:103E6000D3E902239F4208BF96425ED037494FF400
:103E7000803804F1500508FA04F8AD00C1F8488311
:103E80002046ADB203F0FCFC26F07F4B05F18045E7
:103E900004F5A87305F58835DC464FF00309029355
:103EA000029A2CF07F4341F82230C1F84483D1F8C4
:103EB0000435274A6FF00200C01A604420F07F40AA
:103EC000904232D9286868B1D1F804350393A3EB46
:103ED0000B0020F07F40B0F5000F26D9204603F0FC
:103EE000CFFC039BBAF1000F07D109EB030C09F1DA
:103EF0000109D5E7BAF1000F09D06FF0150520468A
:103F00000199FFF741FF284605B0BDE8F08F012376
:103F1000104ABFF35B8FA34052E8000F184342E8FA
:103F200000010029F8D1BFF35B8F07490E982301E8
:103F300001EB0412C8500F9B5360C2E902670025D1
:103F4000DDE700BF01008000F00600200010014006
:103F5000FDFF7F00640A00207FB51C4C1C4BC4F899
:103F60000833C4F848331B4B00254FF0FF304FF0A7
:103F7000FF31C4F80855C3E902014FF48033C4F897
:103F80000433154B02264FF400320121C4F80463B8
:103F90001120C3F880212A46FEF7C8FC1120FEF745
:103FA00095FC0E4A0123A360236013600C4B0D4A5D
:103FB0000093CDE9015500232846FFF735FF304631
:103FC000FFF744F8284604B070BD00BF0010014060
:103FD00003000F00F006002000E100E0680A002066
:103FE000413D0000FFFF7F002DE9F7432F4CD4F83F
:103FF000043399070BD5D4F8043143B12C4A00237C
:10400000C4F80431D4F80431136801331360D4F8D0
:104010000433DA0329D5BFF35B8F264B53E8002F17
:1040200022F0010143E800100028F7D1BFF35B8FB5
:10403000D30702D4D4F84031BBB10025C4F84051B5
:10404000D4F84031FFF7CEFEEFF31182202383F343
:104050001288BFF36F8F184BD3E90267B042B941A2
:1040600006D282F31188BFF36F8F03B0BDE8F083EF
:104070004FF0FF384FF0FF39C3E90289D3E9001050
:104080001D604FF48033C4F84833C4F84051D4F86D
:10409000403182F31188BFF36F8F0029E5D0009083
:1040A00032463B4628468847DFE700BF0010014004
:1040B0006C0A0020640A0020F006002030B5431C82
:1040C000124C85B005D08442A8BF0446012CB8BF6D
:1040D0000124FFF787FE0E4B0C4DD3E90013401A65
:1040E000B0F5000F10D22218AA4228BF2A46521853
:1040F0004FF0000007490091CDE9010043F10003B2
:10410000FFF792FE05B030BD2A46F0E7FFFF7F00C3
:1041100000070020413D000008B5FFF763FE024B99
:104120001B68C01A08BD00BF000700204FF0704395
:1041300093F8E02F062A09D1D3F8E83FC3F303131D
:10414000033B042B02D8024AD05C70470020704722
:10415000978D0000024AD2F80034002BFBD0704744
:1041600000E0014010B503F09BFB40B14FF08053DD
:104170008E4AD3F82433C3F30423C2F84035FFF743
:10418000D5FF10B18A4B8B4A5A6703F089FB48B1BF
:104190004FF080534FF08042D3F84432C3F34233A0
:1041A000C2F83C35FFF7C2FF30B1834AD2F8FC3089
:1041B00023F08073C2F8FC3003F072FB40B14FF083
:1041C00080430022C3F80C21C3F81021C3F838251E
:1041D000FFF7ACFF20B14FF080430322C3F8A025C6
:1041E000FFF7A4FF60B1754B0522C3F8102601222A
:1041F000C3F888260022C3F818263F22C3F81426E5
:104200004FF08053D3F83021511C09BF4FF0704359
:10421000D3F8343193F8E02FD3F8E83F08BFC3F365
:104220000313062A4DD1033B042B03D8644AD35C05
:10423000002B46D04FF08052624BD2F80414C3F8E2
:104240002015D2F80814C3F82415D2F80C14C3F8BA
:104250002815D2F81014C3F82C15D2F81414C3F88A
:104260003015D2F81814C3F83415D2F81C14C3F85A
:104270004015D2F82014C3F84415D2F82414C3F81A
:104280004815D2F82814C3F84C15D2F82C14C3F8EA
:104290005015D2F83014C3F85415D2F83414C3F8BA
:1042A0006015D2F83814C3F86415D2F83C14C3F87A
:1042B0006815D2F84014C3F86C15D2F84424C3F83A
:1042C000702503F0EDFA48B14FF080534FF0804273
:1042D000D3F8583203F04F03C2F8E43E03F0E0FA9B
:1042E00048B14FF08043D3F80024D20744BF6FF0A9
:1042F0000102C3F800244FF08053D3F83021062A7E
:1043000026D1D3F83431033B042B02D82E4AD35C98
:1043100063B12E4AD2F83C3743F48063C2F83C378D
:104320004FF08053D3F83031062B11D14FF080532A
:10433000D3F83431033B042B02D8254AD35C3BB17C
:104340004FF01023D3F808224FF08043C3F85825CC
:104350004FF01023D3F80022002A03DBD3F80432F5
:10436000002B22DA1B4901234FF01020C1F804353D
:104370001524FFF7EFFEC0F80042FFF7EBFEC0F890
:104380000442FFF7E7FE0023C1F80435FFF7E2FE21
:10439000BFF34F8F0849104BCA6802F4E062134321
:1043A000CB60BFF34F8F00BFFDE710BD0030014071
:1043B00000C007400DF0ADBA00ED00E00050004035
:1043C000928D000000C000408D8D00000010004064
:1043D000888D000000E001400400FA0530B5046853
:1043E000CCB1BFF35B8FB4FA84F3C3F11F03DBB22C
:1043F00001229A4024EA020250E8005FA54204D15B
:1044000040E8002CBCF1000FF6D1BFF35B8FE6D182
:1044100002480B7030BD0248FCE700BF0000AD0B46
:104420000200AD0B10B50368CB40DB0714D40123A9
:104430008B400268BFF35B8F43EA020150E8004FF4
:10444000944204D140E8001CBCF1000FF6D1BFF348
:104450005B8FEED1014810BD0148FCE70000AD0BB9
:104460000400AD0BF7B50546F8B101281BD10422B5
:104470004FF4807301464FF0804003440244C0F87B
:1044800008130026012111601E608D421B688DF803
:10449000071008BF0DF1070642F210744FF0804775
:1044A00045B1012D29D003B0F0BD0C224FF4827329
:1044B0000221E0E7D7F8183403F4803366B9002B03
:1044C000F1D0012003F0FBF9013CF3D1EBE703F05D
:1044D000F6F9013CE4D1E6E7D7F8182402F003022C
:1044E0003260002BDFD09DF807000128EFD0012DAE
:1044F000D9D10C4B00225A71D5E7D7F80C3403F40C
:1045000080333EB9002BF4D0012003F0D8F9013CF0
:10451000F3D1C8E7D7F80C2402F001023270002B67
:10452000E1D1E6E7700A0020044B1A7922B9012292
:1045300018609A800248704702487047700A00204D
:104540000000AD0B0C00AD0B08B5074B1B682BB181
:104550000020FEF7DDF908B9FEF7B8F94FF0804307
:104560000022C3F8182508BD700A002038B5B0B184
:10457000012855D14FF080420023C2F80031D2F813
:104580000021304A03F18043012119602E4B1B6842
:10459000002B50D04FF08043C3F8040340E04FF0AD
:1045A0008043D3F81814D3F81824C8032AD502F08E
:1045B0000303012B04D013B10020FFF753FF0023A6
:1045C0004FF08042C2F818350023C2F80431D2F807
:1045D00004311E4AD2F8FC0040F08073C2F8FC306F
:1045E0001B4B1C6844F0010119605D685968491B48
:1045F000B1F50A5FFAD31C60C2F8FC000823154A23
:104600000220BFE7D3F81424D107D8D5D3F81C244F
:104610009207D1D40C4A12681AB10222C3F80423BB
:1046200038BDD3F80421002AFBD00022C3F80421AE
:10463000D3F80431F4E71368002BFCD00023136097
:104640001368EDE700010040700A002000ED00E073
:10465000001000E004010040F8B54FF080431C4E0C
:10466000D3F804430125002704B9F8BDB4FA84F057
:10467000C0F11F00830003F580739BB203F18043F8
:1046800005FA00F21968D2B224EA02040029EBD03C
:104690001F601B684FF08043012AC3F8082305D030
:1046A000022A08D03368C0B29847DDE77379002B3F
:1046B000DAD17271F6E7D3F81814D3F81814890711
:1046C000F0D1C3F81855C3F804239D60CCE700BFB0
:1046D000700A002070B5C3B20C4C0833054634F89C
:1046E0001330DA050E4607D5C3F3432304EBC302A8
:1046F00054F8333052689847A3682BB1E2683146CA
:104700002846BDE87040184770BD00BF780A0020F9
:1047100010B4C0B2114A083032F81030D9051BD598
:10472000C3F3432123F4F85322F8103002F10E04AE
:10473000002034F8023F13F4807F03D0C3F34323F7
:10474000994209D001302028F3D1002342F83130BA
:10475000034810BCFFF766BE10BC7047780A002003
:10476000D00A002001F18051F0B501F5C251044694
:10477000114A00208900012506468A420BD10F4BC1
:10478000D3F87C2132B10022C3F87C21D3F87C31EC
:1047900040F00040F0BD02F14043A3F5C2439B0846
:1047A00005FA03F31C4204D0176817B116601768A6
:1047B00018430432E1E700BF0061004000600040A0
:1047C000C0B2064B083033F81000830643BF400BDD
:1047D000800000F580704FF4BE707047780A0020AA
:1047E000CBB20246083308460C4931F8133099061B
:1047F00011D599070FD410685B0B01219940C0F8BF
:104800000813126802EB8303D3F8102522F0030289
:10481000C3F810257047002103F0A8B8780A0020DB
:10482000F7B5CDB2174E0835074636F81530DB0719
:104830000C4624D5FFF7D4FF36F815309A0606D576
:104840005B0B3A6803F5A273002142F8231020465F
:10485000FFF75EFF002301A826F81530019403F04E
:1048600032F8019B00EB8300074BD0F80027134080
:1048700043F00203C0F80037044803B0F0BD044819
:10488000FBE700BF780A0020F0F8FCFF0000AD0B4A
:104890000400AD0B2DE9FF41136807460C46164690
:1048A000FBB1CDB2DFF84481083538F8152002F0AD
:1048B0002202222A22D00022CDE900228DF80E20E9
:1048C0008DF80F200DF10E010DF10F02204603F0BF
:1048D00004F838F8153023F0020343F0010328F8F8
:1048E000153073684BB393F800C058683F4AE3B281
:1048F000083332F813108D0702D5B0B13C481FE0E1
:1049000021F02001C904C90C22F8131068B1BCF1D0
:10491000030FF3D87068406805783868BCF1000F61
:1049200011D105F5A27540F825C032F8131021F019
:104930001C0141EA8C0122F81310B36863BB2D48B7
:1049400004B0BDE8F08100EB850041EA4531D0F8C4
:1049500010E52EF0030EC0F810E53F6807EB850761
:1049600041F02001D7F8100522F8131020F4473049
:1049700020F44070C7F810052002D7F810E500F4C5
:10498000F85040EA0C4040EA0E00C7F8100502EB70
:104990004500A0F85C40C8E7D3E900672046FFF770
:1049A000B7FE002ECBD0114DD5E90023964203D19E
:1049B0009F4201D1002209E00F480DF10F01FFF7DE
:1049C0000DFD0C4B9842BBD19DF80F2045F832608D
:1049D000E4B205EBC20308345F6035F8143043EAF3
:1049E000422343F4807325F81430A8E7780A0020A6
:1049F0000400AD0B0000AD0BD00A00202DE9FF41F3
:104A000007460C461E4612B3CDB2DFF8D0800835FB
:104A100038F81530980701D4990621D413F01C0FEB
:104A200002D05378012B1BD001238DF80F300023C7
:104A3000CDE900230DF10F01931C2046013202F055
:104A40004CFF38F8153043F0030328F81530002EDA
:104A500042D0E1B2214D083135F81120930703D43B
:104A60001F4804B0BDE8F08196F800E0D7F800C018
:104A700022F020020EF5A270D2040023D20C4CF8D2
:104A8000203025F8112096F801C0BCF1000F23D08A
:104A90003868B67800EB8E004FEA0C4CD0F8103531
:104AA00023F4981323F4F853C0F81035230203F4C9
:104AB000F8530CF4403C3605D0F8107543EA0C036B
:104AC00006F4801642EA4E32334342F020023B4362
:104AD00025F81120C0F810350248C2E7780A0020F6
:104AE0000400AD0B0000AD0B014BC3E9021270478F
:104AF000780A0020C9B20831044B33F81130990606
:104B000043BF5B0B0248137002487047780A0020CD
:104B10000000AD0B0400AD0B70B50E4C94F86C505A
:104B20000646A5B94022294604F1100003F025FAF3
:104B30003068C0F87C51D0F87C3140F30730FDF785
:104B4000C5FE0123044884F86C30A36570BD03489A
:104B5000FCE700BF780A00200000AD0B0C00AD0B95
:104B6000034B93F86C00003818BF0120704700BF5A
:104B7000780A00200079024B03EB8000FFF752BC5B
:104B80002C0600200079024B03EB8000FFF726BCC7
:104B90002C06002073B5CBB20C460833214931F8FE
:104BA000133001689D0619D513F0020616D15B0B70
:104BB0009C0004F580754E51495901682144D1F893
:104BC000104544F00104C1F810452AB101680122E2
:104BD00002FA03F3C1F8043302B070BDD1F8042324
:104BE000002AA8BF4FF00042C3F38203A8BFC1F858
:104BF0000423042B12D0052B12D001A8019402F03B
:104C000062FE019AD0F81035D34003F00103991CDD
:104C1000204602B0BDE8704002F0A8BE0321F7E7CD
:104C20000221F5E7780A00202DE9F347514BD3F82C
:104C30000403C0B2082140F00040FFF793FD051EB9
:104C400016DA002301216846009302F09EFEDFF889
:104C500028810127009999B94FF00040FFF782FDA4
:104C60000121684602F091FE0028F3D125F00045AD
:104C7000404E414F0124002D66D102B0BDE8F087BF
:104C800091FAA1F4B4FA84F4E00804F1080304F002
:104C9000070238F813901DF80030019407FA02F269
:104CA00023EA02030DF8003001A802F00CFE019B7C
:104CB00003F5E0734FEA990150F82360C9F3820AC3
:104CC0004B07D146C6F3014623D520465146FFF790
:104CD00001FD01A8019402F0F6FD019B03F5E073CC
:104CE000F6B250F82330C3F301439E4207D10021AE
:104CF000204602F03BFE3146204602F037FE01A876
:104D0000019402F0E0FD019B07FA03F3C0F820359F
:104D1000A0E7022E0CD10321204602F027FE0AF064
:104D20000503012BEBD149462046FFF7D3FCE6E70C
:104D30000221204602F01AFEBAF1030FF3D0032E2F
:104D4000DDD1BAF1020FEDE795FAA5F3B3FA83F3DB
:104D500004FA03F225EA020503F5A27207EB430306
:104D600056F82210B3F85C00C1F30141FFF7B2FC22
:104D700081E700BF00600040780A002007B501907D
:104D800001A802F017FE019B00EB8300054BD0F851
:104D90000027134043F00303C0F8003703B05DF869
:104DA00004FB00BFF0F8FCFF73B5CB7B0446002B7F
:104DB00038D10B7B0878012B77D802F012FE0B78E4
:104DC000019301A802F0F6FD019B00EB83003C4B30
:104DD000D0F80027134043F00103C0F800374878AB
:104DE000FF2804D002F0FDFD4878FFF7C7FF8B785D
:104DF000FF2B0FD001A88D7B019302F0DBFD019BFF
:104E000000EB83002E4BD0F80027134043EA8503C4
:104E1000C0F80037C878FF2804D002F0D5FDC87864
:104E2000FFF7ACFF23792748CA78282505FB030341
:104E30009A770B7C9BB94B7825680E78FF2B18BFAF
:104E40001A468B78C5F8086508BF4FF0FF32FF2B74
:104E500008BF4FF0FF33C5F80C25C5F8103523689F
:104E60008A68C3F824254B7B0A7B2568003B18BF62
:104E70000123022A1CD0032A1DD0012A01D143F0AC
:104E80000203C5F8543523794979282202FB03032C
:104E9000D97723795343C35883B1206840F307304F
:104EA00002B0BDE87040FDF711BD02F08DFD86E750
:104EB00043F00403E5E743F00603E2E702B070BD08
:104EC000F0F8FCFFE80A002007B5019001A802F005
:104ED00071FD019B00EB8300054BD0F800271340C8
:104EE00043F00203C0F8003703B05DF804FB00BFD5
:104EF000F0F8FCFF2DE9F04190F80480144C4FF0DD
:104F0000280C0CFB08FC04EB0C06074696F81CE08A
:104F1000BEF1000F19D144F80C20736041B1CB7B76
:104F200086F82530CB78B3774B79F377FFF73CFFE2
:104F30003A6808480123C2F80035282202FB0844D9
:104F4000002262772377BDE8F0810348FBE700BFCA
:104F5000E80A00200000AD0B0C00AD0B70B506791F
:104F6000194C056828237343E35833B145F30730E0
:104F7000FDF7BAFC0423C5F808330023C5F8003553
:104F8000282303FB064393F82530BBB9D5F8080561
:104F9000FFF79AFFD5F81005421C01D0FFF794FFE8
:104FA000D5F80C05431C01D0FFF78EFF282303FB27
:104FB0000643987FFF2801D0FFF786FF282303FBD5
:104FC00006440023237770BDE80A00202DE9F8434A
:104FD0000779394C28237B439046E2180E46517FCF
:104FE0008146002966D1E3580BB10123537796E837
:104FF0000F00282505FB074505F10C0C8CE80F0078
:10500000A87F0023FF2885F8243001D002F0E9FCB6
:105010002823B8F1000F06D003FB074300222748DE
:105020005A77BDE8F883D9F8005003FB0743042200
:10503000C5F80823C3F82080C5F80881D5F80821F1
:1050400072689AB133681B78C5F81C357368012BF8
:105050000ED933685B78C5F81C3528237B43E658A6
:1050600076B10423C5F804331548DAE7DB7FEBE7B4
:10507000F368012BF1D9282303FB0743DB7FEAE721
:1050800007EB870104EBC101D5F80831002BFBD0F9
:10509000C5F808612846D5F8083102F0AFFC0028B1
:1050A000F2D1282303FB0744A07FFF28DCD002F0C5
:1050B0008BFCD9E70348B4E7E80A00200300AD0BF6
:1050C0000000AD0B0B00AD0B10B54FF040200023DE
:1050D000C0F808310A49D0F8083102F08FFC68B9ED
:1050E000887FFF2801D002F06FFC00234B770B7202
:1050F000BDE81040D1E900310248184710BD00BF9B
:10510000E80A0020F00A002008B5124BA82200216E
:10511000184602F032FF032202610F4942610F4A32
:105120008161C2614FF48062026200228262426247
:10513000C26201660A494166102181660949026717
:105140000346C266426711F8010D98540132102AD5
:10515000F9D108BD100400209C8D00001000002033
:1051600000000020B58D00002DE9F84FDFF87C80AD
:10517000182606FB008E00FB06664644DEF8244037
:10518000DEF828C07368A44507468946154603EB38
:10519000040022D8DEF820B0ABEB040A0AF1FF339A
:1051A0009A4203D802F0DBFE2C440FE063449A429B
:1051B00019D852462C4402F0D2FEB4EB0B0405D0B1
:1051C0007068224609EB0A0102F0C9FE182303FBAE
:1051D000078301205C62BDE8F88F0CF1FF3CACEB6B
:1051E000040C9445DED20020F5E700BF1004002037
:1051F000034B182202FB00339A6A586A801A7047E0
:105200001004002010B4084A08490023C85C12F8B2
:10521000014D844204D10133102BF7D110BC7047EB
:1052200010BCFFF771BF00BFB58D00001004002057
:105230001FB50446FCF718FA064B029300231846E4
:10524000CDE900330449012202F020FC204602F09F
:105250002DFC00BFB68D0000F88200002DE9F04162
:10526000054686B00E46EFF31188202383F312889B
:10527000BFF36F8F042898BF234B244A98BF53F87D
:105280002030976888BF224B127C2249039000246B
:10529000CDE90432204B0293CDE90044234601229C
:1052A000204602F0F3FB6EB1F369C3F308034BB180
:1052B0001A4B18490094CDE90143012223462046A8
:1052C00002F0E4FB2FB1384602F0C4FC08B10378C9
:1052D00003B91348134B02930023CDE90370CDE9C2
:1052E0000033184601220B4902F0D0FB3146284614
:1052F000FFF79EFF88F31188BFF36F8F384606B023
:10530000BDE8F041FDF788BA80840000100B002052
:10531000C58D0000F8820000DB8D0000038E0000C8
:10532000D38D0000248E000038B50A4B53F820407E
:10533000013053F82050A54200D838BD606830B124
:10534000037FDB0701D402F0B9FB0834F3E72368DD
:105350009847FAE79484000070B52A4B2A4C2B4DED
:10536000012286B003201A70FFF7DEFFFCF752FE21
:105370000420FFF7D9FF2646AE4204F1300410D3D3
:1053800000F0A8FC204C224EAC4226D300F0B6FC24
:10539000FBF714F91F4A137B23F00103137306B0C4
:1053A00070BD54F80C3C059354F8103C049354F829
:1053B000143C039354F8183C029354F81C3C01939A
:1053C00054F8203C009354E90A2354E90C0100F0FE
:1053D000D7FA54F8303C5E65CDE7D4E90A23B3F13F
:1053E000FF3F08BFB2F1FF3F05D052EA030120683A
:1053F00003D100F05DFD3034C6E73146183000F0CF
:10540000FFFEF8E7E00B00205082000080820000E1
:10541000317D0000A007002008B50348034A0021A1
:10542000121A02F06EFB08BD60060020E40B00209B
:1054300070B5164E164D1749902386B003FB0066D3
:1054400001220023CDE904230F22CDE9023201938A
:10545000142303FB005504464FF4C07000FB0411F5
:105460000D4B00954FF4A072304600F089FA737B23
:105470000A4AEE6023F0040373734FF4046304FBE1
:10548000033313442C746B6006B070BD100700200A
:10549000100B0020802400200B7B0000401C00200B
:1054A000BFB50020FFF740FF2A4B83F308882A4C42
:1054B0002A4F636943F4007363610025E02384F895
:1054C0002230E57725766576A57684F82050636AE4
:1054D00043F4E023636284F82350FDF719F9FDF7E4
:1054E000B1FA4FF0FF33A362E362FDF791FBFDF7E2
:1054F000CDFAFCF793F81A481A4C00F0BBFA02F008
:10550000B9FA0120FFF710FF0220FFF70DFF00F0AE
:1055100029FC154B15495C61154B05930123CDE919
:1055200003534FF480623B46CDE901550095204678
:1055300000F026FA627B064622F0040220466273DF
:1055400002F0C4FB2846FFF773FF3A463146204677
:10555000FDF758FA8024002000ED00E059530000C8
:1055600030080020A0070020100B0020002600209B
:10557000868E000070B5EFF31186202383F3128826
:10558000BFF36F8F0468A0421BD0D4B1D4E90032BE
:1055900013605A60637B002523F002036373C4E940
:1055A0000055A56004F1180002F049FC2046C4F83B
:1055B000885002F08BFB31460748BDE8704000F090
:1055C00063BBD0E902329A4218BF0133836086F38D
:1055D0001188BFF36F8F70BDE10B002013B5EFF39F
:1055E0001181202484F31288BFF36F8F846844B143
:1055F000013C846081F31188BFF36F8F002002B0FB
:1056000010BD52EA030406D181F31188BFF36F8FF6
:105610006FF00F00F3E7CDE900230246014800F0E8
:1056200011FBECE7E10B00202DE9F0410546EFF31B
:105630001187202383F31288BFF36F8F00231E4648
:105640006FF00A082C68A54216D0ACB1D4E900323C
:1056500013605A60637BA66023F002036373C4E99E
:10566000006604F1180002F0EAFBC4F888802046C6
:1056700002F02CFB0123E5E70022AA602BB139469A
:105680000548BDE8F04100F0FFBA87F31188BFF389
:105690006F8FBDE8F08100BFE10B00202DE9FF41D5
:1056A0004F4E04462027EFF3118887F31288BFF38B
:1056B0006F8FD4F89450F5B9022104F1AC0002F0D8
:1056C0002FFA002868D004F1A40500220121284601
:1056D00002F059FB0028F8D1002302934FF0FF326B
:1056E0004FF0FF33CDE90023414604F19C023D48D1
:1056F00000F0A4FCD7E7D4F898202B68C4F89430C5
:10570000954208BFC4F89830D4F8AC3043F0020397
:10571000C4F8AC30EB6823F0040343F00103EB6002
:105720006B6888F31188BFF36F8F28469847EFF3B3
:10573000118887F31288BFF36F8FEB68D80623F0C8
:10574000010236D4EA60EB689A0716D5306823F078
:105750000203EB6088B10368002170B14268954292
:1057600035D1036869BB72683360824200D17360CF
:10577000002340F8083BFFF7FDFED4F8AC3023F0DF
:105780000203C4F8AC3088F31188BFF36F8FDB05D8
:1057900089D400F0EFFA86E7D4F8AC30D9069BD56F
:1057A000C4F8AC0088F31188BFF36F8F04B0BDE874
:1057B000F08123F01103EB6005F11000FFF7DAFE32
:1057C000C1E70B607368834208BF7160D0E723B103
:1057D0001A68014618461346BFE71A46F9E700BFA4
:1057E000300B0020E10B0020F8B5C3689A0704468F
:1057F0000F46C3F340062ED45B071CD40B680BB9CD
:1058000083680B60E368DD0744BFA3683B603D68C5
:105810004CBF02260126002D3CD0204B9A68D5F8BB
:1058200090309A420AD0D5F8AC30D807C3F3800242
:1058300014D46FF0120600233B6025E002F001FA59
:10584000D5F8AC300028F0D1D907C3F3C002F0D5A9
:1058500052B15B0708D46FF00F06ECE7002AFAD1CB
:10586000C3F3C003002BF6D100232360D5F8983092
:1058700063B9C5E92544284602F06CF9E36843F0B2
:105880000403E3603B68A3603046F8BD1C60C5F8C4
:105890009840F0E76FF01506CDE700BF100B002031
:1058A000F0B589B004460020C4E925000E9D04F13E
:1058B0009C00C4E9270004F1A400C4E9290055B301
:1058C0002879002840F2011008BF0120C4F8AC007C
:1058D00000204FF0FF364FF0FF37CDE90330CDE920
:1058E0000100CDE906670D4B0094204600F096F8C4
:1058F00055B1296811B1204602F0A9F96B791BB1A5
:10590000237B43F001032373204600F0D1FAC4F84F
:10591000904009B0F0BD0120D8E700BF9D560000BF
:1059200037B501900846EFF31184202181F31288E6
:10593000BFF36F8FC16811F01E0F16D153EA020535
:1059400008D101A9FFF750FF84F31188BFF36F8FCF
:1059500003B030BD41F00801C16001998162044982
:10596000103000F04DFC0120EEE70020ECE700BF16
:10597000C97B000001460148FFF7D2BFE0080020C4
:105980002DE9F043073285B022F007020E461F468C
:105990001099017300F158037F32C0E916330446B1
:1059A000002322F03F020421836041733F2A0F98B5
:1059B000A073C4E90633E37306F14009A2F140087D
:1059C00005D883F31188BFF36F8F084602DFB5183F
:1059D00029462046FCF792FB07300E9B20F007007B
:1059E000A067C4E91C9802930D9B01932D1A0C9B90
:1059F00000932A463B4631462046FCF7D1FF002360
:105A0000636584F86C30044B9B6803B1DB6FE3671C
:105A1000284605B0BDE8F083100B0020F0B587B034
:105A200000250595109D04950F9D03950E9D0295EB
:105A3000DDE912760D9D01950C9D00950446FFF75A
:105A40009FFFB6F1FF3F08BFB7F1FF3F05D056EA11
:105A5000070305D1204600F02BFA204607B0F0BD21
:105A60003A46334604F11800014900F0C9FBF4E757
:105A7000317D000040F2011383810023C0E91C3313
:105A8000C367014B98607047100B00200A4A936867
:105A90006FF00A01C3F888100849C3F884004B6806
:105AA00043F080534B60002383F31188BFF36F8F63
:105AB0009368D3F888007047100B002000ED00E0D9
:105AC00070B590F90D20437B002A36DBD90634D11E
:105AD0001B4C63F07F032246437352F8183FE16981
